:020000041000EA
:1000000000B5324B212058609868022188439860DF
:10001000D860186158612E4B002199600221596106
:100020000121F02299502B49196001219960352056
:1000300000F044F80222904214D00621196600F024
:1000400034F8196E01211966002018661A6600F04E
:100050002CF8196E196E196E052000F02FF8012189
:100060000842F9D1002199601B49196000215960AB
:100070001A491B48016001219960EB211966A021F2
:10008000196600F012F800219960164914480160C1
:100090000121996001BC002800D000471248134993
:1000A000086003C880F30888084703B5996A0420EC
:1000B0000142FBD001200142F8D103BD02B5186610
:1000C0001866FFF7F2FF186E186E02BD00000240BE
:1000D000000000180000070000035F00212200005C
:1000E000F4000018222000A00001001008ED00E03C
:1000F00000000000000000000000000074B24E7A12
:1001000000200420F7010010C3010010C5010010F9
:10011000C1010010C1010010C1010010C101001097
:10012000C1010010C1010010C1010010C701001081
:10013000C1010010C1010010C9010010CB01001065
:10014000CD010010CD010010CD010010CD01001037
:10015000CD010010CD010010CD010010CD01001027
:10016000CD010010CD010010CD010010CD01001017
:10017000CD010010CD010010CD010010CD01001007
:10018000CD010010CD010010CD010010CD010010F7
:10019000CD010010CD010010CD010010CD010010E7
:1001A000CD010010CD010010CD010010CD010010D7
:1001B000CD010010CD010010CD010010CD010010C7
:1001C00000BE00BE00BE00BE00BE00BEEFF3058054
:1001D000103800BEF2EB8871043900102C39001081
:1001E0003402001090A31AE700201F49086006C8D7
:1001F00081F3088810471D48006800282FD10DA4FE
:100200000ECC002902D000F012F8F9E71849194A7B
:10021000002000E001C19142FCD1174988471749ED
:1002200088471749884700BEFDE701C901C29A42C5
:10023000FBD370472C390010C0000020640200205E
:10024000D03A00100000042000000420D03A001032
:10025000001004200010042000000000704709482E
:1002600001F06AFD0047000008ED00E0000000D04A
:10027000680200204C070020A51B00100503001099
:10028000991C00105756000006005250ABB3605343
:100290005438001006005250861C030264380010C7
:1002A000060052505422A29D703800100500525092
:1002B000DE65F468D03A0010F8B5C04610B5064CBB
:1002C0002378002B07D1054B002B02D0044800E017
:1002D00000BF0123237010BD68050020000000004E
:1002E000A8370010044B10B5002B03D00349044875
:1002F00000E000BF10BDC046000000006C050020FB
:10030000A8370010F0B5DE464E4645465746E0B5E4
:1003100085B002F0C3FF5A495A4803F0AFF80C23E6
:10032000050000220021574803F00CF901220C239C
:1003300052420021534803F057F90621022000F0F1
:10034000B7F80621032000F0B3F880235B02009386
:100350006B1CEA011B0313434B4A05201340019316
:100360004A4B03934A4B029301F0AAFB02F0D0FAE6
:10037000484902F082FA061C02F024FB84B20023F2
:10038000002C0DD0200002F0C3FA011C301C02F03A
:100390006EFA8721C90502F084FA02F013FBC3B29A
:1003A00024041B022343374C2A0020000093002121
:1003B0006B4603F06BF9012280252368002013436C
:1003C0002360354E00246D000EE0200001F050FD4A
:1003D000324A334B01F03BFD0022324B01F037FD36
:1003E00001F05EFD02F004FB2F4902F02BFC2F49C7
:1003F00002F057FA02F0E6FA371901343870AC42CD
:10040000E3D1002380259A46FF271E4C6D026368C6
:100410001A002A402B42FAD153469B009C46F023F7
:100420001B06994699235B00504606219846226197
:1004300063463B40F25C3B000B40F35C12041B0242
:100440001A433B000340F35C1A434B461A4363686C
:100450002B42FCD103239B46023122610130DC4454
:100460004145E5D163682B42FCD101235B42236106
:100470000A2000F01FFD01239C46E244C7E7C04666
:10048000A837001000002050FFFFFF9F0308102036
:10049000000006408096184B48060020182D445452
:1004A000FB2109400000703F0000A04000007F4396
:1004B000094A830094464022634410B51C68C0007A
:1004C0006240C02414408022520113431C60034B3D
:1004D0009C466044416010BD04C0014000400140A2
:1004E000024B18688007C00F7047C04600C0064026
:1004F000EFF3108072B6034A1368002BFCD0BFF3F1
:100500005F8F70472C0100D0BFF35F8F0022024B3A
:100510001A6080F3108870472C0100D070B5EFF39B
:10052000108C72B60D4D2B68002BFCD0BFF35F8F83
:100530000724CB08C618C05C01230C40A3401C0054
:100540000440034207D103433370BFF35F8F2C6035
:100550008CF3108870BD100001F0A2FB2C0100D0BC
:100560000021044B044ABFF35F8F02C39342FAD1C8
:100570007047C046000100D0800100D0044A1078C6
:10058000431CDBB2172B00D9102313707047C046F1
:100590009801002001238340002904D0034A1360FE
:1005A000034A13607047034A1360FBE780E200E0F0
:1005B00000E100E080E100E0024B10309B68800029
:1005C000C058704700ED00E070B50D00EFF31086E5
:1005D00072B60F4A1368002BFCD0BFF35F8F0D4B30
:1005E00010309B6884001B590B4A934203D09D42F4
:1005F00001D001F06DFB074B9B681D51BFF35F8F6E
:10060000BFF35F8F0022024B1A6086F3108870BD23
:10061000240100D000ED00E0CD010010F0B5DE4671
:1006200057464E464546E0B50C0083B0EFF31089BF
:1006300072B6584A1368002BFCD0BFF35F8F564B3D
:100640009A68030010339F00D559544A904695424A
:1006500032D0A54243D0524EAA1B2F2A2CD80122B9
:100660008240924651464F4A1268114001915146CC
:100670004D4A1160BFF35F8FEFF305829346002A66
:1006800033D101232A009A4393689C4208D177E032
:100690004B005B189B00F3189968A1422AD01A00FE
:1006A000062151560029F3DA019B002B19D052463E
:1006B0003E4B1A603B4B1A60374B9B68DD51BFF3D2
:1006C0005F8FBFF35F8F0022324B1A6089F310886F
:1006D00003B0F0BCBB46B246A946A046F0BD15002B
:1006E000EAE75246304B1A60E6E79342C9D001F080
:1006F000EFFAC6E706215956002921DB4A005018B7
:10070000800034188046A0689860E079D87106208F
:1007100020569871002824DBA488F01A640524155B
:1007200044440019E0240005400D24022043988031
:1007300052181F4B9200B6181A781970B271B3E7AD
:10074000594600290FD1FF3191711A4991801849FA
:100750000A789A71184A9B1B5B415A43120D0A7022
:10076000A2E71648E3E7164A1649D21A083A500299
:10077000400D01439980144952080A43DA8093E7F7
:100780000621515613000029B8DA5A46002AEAD148
:100790004546DCE7240100D000ED00E0CD0100106B
:1007A0009C01002000E100E080E100E080E200E048
:1007B0004907002001BDFFFFAAAA000001BD0000FB
:1007C000D601002000F0FFFF00F8FFFF70B5EFF347
:1007D000058101240443EFF3108C72B6214A13689B
:1007E000002BFCD0BFF35F8F1F4B05001F4AED1A93
:1007F0006D416A43120D1E4D8900AE6852B27658A3
:10080000A6421CD00621595691421CD0122159569D
:10081000914222D01E215956914220D02A21595668
:100820000324914210D0134B19781A708171BFF3D1
:100830005F8F00220B4B1A608CF3108870BDAB6881
:100840000D4C5C50EFE700246100091989005B182A
:10085000FF21997109499980E5E70124F4E7022411
:10086000F2E7C046240100D09C010020AAAA0000A3
:1008700000ED00E049070020CD01001001BDFFFFA1
:10088000054B064A1360064A136053609360D360B9
:1008900013615361936170478080808000E400E0C1
:1008A00004E400E0024B9C4661448900016070470B
:1008B0004000003410B50400FFF760FE0100200086
:1008C000FFF7F0FFFF232371BFF35F8F10BDC0461A
:1008D00010B50400FFF752FE01002000FFF7E2FF11
:1008E000FF23A380BFF35F8F10BDC04683680B4812
:1008F00010B5844661446244090112019A185918DE
:1009000054684B6801209C4201D802D00020C0B23C
:1009100010BD12680B689A42F9D8F7E7FFFFFF0F86
:100920000A4B1968EFF3108072B60A68002AFCD0EF
:10093000BFF35F8F1B68BFF35F8F00221A6080F3E5
:10094000108840BF002000217047C0462C060020C0
:10095000F8B557464E464546DE46E0B599460CABDF
:100960001C780DAB1B78060090469A460768002C51
:1009700011D1BC7B002C42D065003B682D19033D92
:1009800059194B78BB73002B00D1FB7300238B707C
:100990004B700B7004E065003B682D19033D59193D
:1009A000B2682A4B94464246E3181B0163441A601E
:1009B0004A465A600A9A9A600B9ADA6000238B7052
:1009C0004B700B707B7B9B46002B2BD02200594633
:1009D000B8687B6898473A68002816D05B46584646
:1009E0005B005B445519033BA870D118D35C002B06
:1009F00000D06B705B460C707B73A34513D0F0BCCA
:100A0000BB46B246A946A046F8BD5B465B005B44C8
:100A1000033BD3189C705119525D002A00D05A70C4
:100A20005B460B707C7342464B46307D00F0BAFB50
:100A3000051E06D05346002B03D12100306800F07C
:100A4000D5FD0E9B002BDAD01D70D8E7FFFFFF0FFE
:100A5000F0B5DE4657464E4645460023E0B58BB01E
:100A60000893674B8200D45800239B46099000F0FE
:100A70000FFB626806000F00EFF3108572B6136873
:100A8000002BFCD0BFF35F8F23689C465B7B9946AD
:100A9000002B00D169E0A2685A4B90464B441B01E1
:100AA000984443461A685B6810001900801BB941DE
:100AB000002900DC63E0099800F074FB00230022A9
:100AC000984600230692079300239A466368BFF373
:100AD0005F8F5A461A6085F310885346002B08D161
:100AE0000028C4D10BB0F0BCBB46B246A946A04614
:100AF000F0BD089B414618024B461843D047626838
:100B000006000F00EFF3108572B61368002BFCD0BF
:100B1000BFF35F8F002F50DB33003B4302D02369CC
:100B2000002B61D12368D97B002907D04A005218D5
:100B300019688C4649466244033A51709A7B002AF0
:100B400001D14A469A734A46DA734B46E168013B43
:100B5000CA5C0132CA545B4623616368BFF35F8F8E
:100B60005A461A6085F3108881E7002300229846D0
:100B7000002306920793002300209A46A6E7002947
:100B800002D1002800D096E70021604600F0ACFCBE
:100B900043461A685B680692079343469B689A46E9
:100BA0004346DB689846E3684B44013B1B78089357
:100BB0001B0203432361002088E72369002BB1D087
:100BC000069A079B921BBB41002B15DB59460491EB
:100BD000012103914946029141460191514620006D
:100BE0000091FFF7B5FEB6E700F052FA32003B0085
:100BF00012184B41002BE9DA0122034B5242E5E780
:100C000018060020FFFFFF0FFFFFFF7F10B5144CF9
:100C10006368002B04D00A211248FFF743FE10BD81
:100C20002300114A1021206800F078FB032000F017
:100C300023FA032000F020FB03200C4900F06CFA9B
:100C4000FFF79CFC0A4B9C4603232375D0231B060D
:100C50001B6860446375074B80006060DC60DAE706
:100C6000E40100202C060020ED080010510A0010BD
:100C70004000003418060020F0B54E464546DE46DA
:100C80005746E0B585B0019310AB1B78060003937F
:100C900000239946984600927268EFF3108B72B663
:100CA0001368002BFCD0BFF35F8F3568AC7B002C42
:100CB0003DD067002B683F19033FDB195A78AA73B0
:100CC000002A00D1EA73B168474A8C46009801991E
:100CD000A21812016244106051600E9991600F9940
:100CE000D16042469A705A701A706B7B9A46002BFC
:100CF00067D022001900A8686B6898472A68002806
:100D000052D0534650465B005344D719033BB8704A
:100D1000D118D35C002B00D07B7053460C706B73E2
:100D200054454FD0F3681B19013B187800E00020B0
:100D30007368BFF35F8F42461A608BF31088002CF4
:100D40004FD04B46002B08D10002204305B0F0BC29
:100D5000BB46B246A946A046F0BD039B002B3ED041
:100D60000E9B00200F999847030004000D000B43D1
:100D700035D000290ADA009A019B121BAB41009280
:100D80000193002B0ADB039B994685E700F080F96D
:100D900024184D4100940195002DF4DA0123134CE1
:100DA0005B4200930194EEE753465B005344033BE0
:100DB000D3189C70D119D25D002A00D05A705346C6
:100DC0000B706C73307D009A019B00F0EBF981464B
:100DD0000028A7D02100306800F008FCA2E700201E
:100DE000B4E701204042B1E7FFFFFF0FFFFFFF7FA5
:100DF000F0B504000D0006267642F717C6463619F0
:100E00006F4100B584B08F4214D811D000F040F982
:100E100032003B00121A8B41002B15DC002B3ED018
:100E20002000290000F068F904B080BCB846F0BD8D
:100E30008642EBD90026002700F02AF932003B0059
:100E4000121A8B41002BE9DD002302930193154B0D
:100E50003200009314483B00FFF70EFF0028DFDB51
:100E600000239846BC46114A114F7B6A9C4504D822
:100E7000B96A8E42D4D99C45D2D11168EFF3108063
:100E800072B60B68002BFCD0BFF35F8F1368BFF303
:100E90005F8F4146196080F3108820BFE5E7002A84
:100EA000BED0D1E721090010E40100202C0600206B
:100EB0000040054070B5060000F0EAF8FA22040090
:100EC0000D00002330000021920001F0B3FC001956
:100ED0006941002902DBFFF78BFF70BD012001494A
:100EE0004042F8E7FFFFFF7FF0B5EFF30583CE4602
:100EF000474680B505000C0085B0002B12D02C4A67
:100F00000020536A9C4203D8926A0130AA4204D35B
:100F100005B0C0BCB946B046F0BDE01A421E9041D3
:100F2000C0B2F5E7234E02930193234B02000093D6
:100F300030000B00FFF7A0FE031EE0DD20BF71684C
:100F4000EFF3108772B60A68002AFCD0BFF35F8FF8
:100F5000DAB294463068427B62451DD0FF221A40C7
:100F60005100894601689144884649464144033905
:100F70008978002913D0F1681B0A88464244013A57
:100F80001278DBB29A420FD07368BFF35F8F0022F2
:100F90001A6087F31088B2E7FF221A40EBE7326944
:100FA0009342F1D13161EFE7614600F01FFBEBE7BF
:100FB00000400540E401002021090010F0B5EFF3E6
:100FC0000582D6464F4646461000C0B51038EFF3AE
:100FD000108872B6214C2368002BFCD0BFF35F8FC2
:100FE0000123190081401E4D1F006963AA461D4D53
:100FF00029601D4D2E78AC463500C5402F402B4250
:1010000009D1BFF35F8F276088F31088E0BCBA4630
:10101000B146A846F0BD5346144D5F6A83005D5942
:10102000AF420ED3124A8E439B5862461670BFF3EE
:101030005F8F0022226088F31088002BE6D098474B
:10104000E4E70C4B92009C46624413681360BFF3C4
:101050005F8F0023236088F31088D7E7280100D032
:10106000004005403C7005404A0700203006002043
:101070008C050020D03F054010B50100024A03480E
:10108000FFF74CFA10BDC046B437001048070020E7
:10109000034B596A0A00986A596A8A42FAD1704722
:1010A0000040054070B504000D00124A536A190053
:1010B000966A536A8B42FAD13000190024184D41C8
:1010C000AB4211D80ED02B000A494A6A9A42FCD38F
:1010D00007D1084A02E0516A994202D1916AA142BD
:1010E000F9D370BDA642EED9012301246442E5176D
:1010F0005B42E9E700400540064A536A9942FCD842
:1011000007D1044B02E05A6A914202D19A6A8242A4
:10111000F9D370470040054070B504000D00EFF3AF
:10112000108672B61A4A1368002BFCD0BFF35F8F8B
:10113000002D1BD02000FFF73FFA164981420AD04C
:101140002000FFF741FA01212000FFF723FA0123D5
:10115000A340114A1360114BA400E550BFF35F8F09
:1011600000220B4B1A6086F3108870BD0B4BA20057
:10117000D5500122A2400A4920000B7893430B70FE
:101180000449FFF74BFA00212000FFF703FAE5E7D7
:10119000280100D0BD0F0010386005408C050020EC
:1011A0004A070020F0B54F46D6464646C0B5070070
:1011B0002C4C616A0D00A66A616AA942FAD18B4281
:1011C00008D805D00120E0BCBA46B146A846F0BD1B
:1011D000B242F7D9EFF3108A72B6234801680029AA
:1011E000FCD0BFF35F8F0125BD4020491D4C8846D0
:1011F000097889462943C9B28C4641466046087041
:10120000391D1B48890065630A51B9000B50216ADA
:101210000020294219D0616A0800A66A616A8142E9
:10122000FAD18B4219D801D1B24216D8CC4516D08A
:101230000C4B1F201D625D6301230740BB400D4A1C
:101240001E38136043464A461A70BFF35F8F002270
:10125000054B1A608AF31088B5E70020F5E70120F6
:10126000F3E7C04600400540280100D04A070020AF
:101270003006002080E200E0EFF3108C72B60A49DD
:101280000B68002BFCD0BFF35F8F01238340074A1C
:101290000748136202789A430270BFF35F8F0023FE
:1012A0000B608CF310887047280100D00040054087
:1012B0004A07002070B5050014001600002915D05B
:1012C0000C00002A12D080686B68984729680028B3
:1012D0000ED073009B196200033B1219CB18033A1E
:1012E0009C7088188A5C002A15D10670200070BD99
:1012F00063001B197200033B9219CB18033A9E70CE
:1013000088188A5C002A02D104703400EEE75A7013
:1013100004703400EAE75A700670E7E730B583607E
:101320000023CCB243730133047342608373C473EC
:101330000D000068012C06D9421C0133DBB213708A
:1013400003329C42F9D1FF2129404B005918002358
:1013500040180338437030BDF8B5CE464746060006
:101360000C0080B5002907D04D0003686D18033DBF
:101370005A195778002F04D12000C0BCB946B04696
:10138000F8BD7900C919033988464344597889461C
:1013900000215970517073683A00210080689847A5
:1013A0003368002814D042469A18947059195B5D2E
:1013B000002B00D053700F70270049463000FFF714
:1013C000CBFF390002003000FFF774FF0400D3E7C1
:1013D000424641465D19AF709A185B5C002B00D005
:1013E0006B701470E9E7C046F0B557464546DE46D7
:1013F0004E46E0B50D006B0001685B19DF1E04006E
:10140000C85D83B00192CA19002850D043001B1850
:10141000033BCB185E78B446002E1AD1019E002EF5
:1014200042D0E67B002E04D073009B19CB18033BFF
:101430005D70A37B002B00D1A573E57300282FD12D
:101440000023537003B0F0BCBB46B246A946A04689
:10145000F0BD72006244033A89184A78904600222F
:101460004A7091465A70010032002000FFF722FFB7
:1014700043468246002B07D05B0021684344033B70
:10148000CB185A78002A16D1424651462000FFF761
:1014900011FF2168019BCA19002BC2D10028CFD0AF
:1014A00043001B18033BCB1800219970C8E7019B30
:1014B000002BB6D1C4E750008018033809184878CB
:1014C000834648464870587041462000FFF7F2FEB8
:1014D000594680462000FFF73FFF414602002000AA
:1014E000FFF7E8FE8046CFE7F0B557464546DE46B3
:1014F0004E46E0B583B00191457B04006B00006867
:101500005B19DF1EC15DC219002952D04B005B1868
:10151000033BC3185E78B446002E1CD1019E002EFA
:1015200044D0E67B002E04D073009B19C318033B04
:101530005D70A37B002B00D1A573E573002931D129
:10154000002328005370617303B0F0BCBB46B24661
:10155000A946A046F0BD72006244033A8018427862
:1015600090460022427091465A7020003200FFF7E8
:10157000A1FE43468246002B07D05B00216843440E
:10158000033BCB185A78002A17D142465146200017
:10159000FFF790FE019B01002068C219002BC0D10B
:1015A0000029CDD04B005B18033BC3180020987076
:1015B000C6E7019B002BB4D1C2E750008018033866
:1015C00009184878834648464870587041462000BC
:1015D000FFF770FE594680462000FFF7BDFE4146EA
:1015E00002002000FFF766FE8046CEE770B50400DB
:1015F00000292CD0437B8B422ED005684800401830
:10160000033828188278002A21D053009B18033B06
:10161000EA5CEE188A4202D11BE0002A08D053008F
:101620009B18033BEB185A788A42F6D142785A70DD
:1016300000230122837043702000FFF7D5FE617BF9
:1016400002002000FFF736FE6073012000E000205A
:1016500070BD43783370EBE701221900FFF7C4FE39
:1016600060730120F4E7C046F8B5CE464746040053
:1016700080B506200E0000F023FA051E51D0524B13
:101680005249E21853425A418023DB039C4692059B
:101690004F4B62441A604F4B1A6010008B6898439E
:1016A000FBD1494B8021E3185A4253414A4A5B001F
:1016B00049009952062000F003FA3100C00000F002
:1016C0006DFBC30932D14022012190466162A362C1
:1016D000256BEB0736D427008026E36A00232C37DE
:1016E00076013E4333600620256300F0E9F9414668
:1016F000800000F053FB236B05009846DB073BD4CA
:101700006022E36A5A406E231340336043462363EA
:10171000802310229B013B431A60304B2363032339
:10172000A3642800C0BCB946B046F8BD2C4A934219
:101730003FD900232B492C4A6162A362256B904656
:10174000EB07C8D52200C02330329B011343234A44
:1017500006201A60666AA26AB601B61800F0B0F9EF
:10176000224900F01BFBB6020100300000F016FB1E
:101770000021FFF797FCAEE72200C02330329B0127
:101780001343164A06201A60636AA26A9B019946AF
:10179000914400F095F94B4614499B02994600F09C
:1017A000FDFA0100484600F0F9FA0021FFF77AFC43
:1017B000A6E77F22990188461040013040081900B1
:1017C0008044030082E7C0460080FCBF00C00040A8
:1017D00000E0004000F0004040060020010300004F
:1017E000FEFF0000FFFF0000C0FF3F004E0E0000A4
:1017F00030B50C2083B000F0B9F9FEF771FE002877
:101800000ED0994B994A1A605A609A60DA601A6150
:101810005A619A61DA611A62954A5A6203B030BD20
:10182000944CA06700F0AAF90122934B1A60636CF4
:10183000012BFCD10322914B1A608E4A936B012B32
:10184000FCD1013301218E4A8E480093043300F00D
:101850003DF905238C4A009301218C4800F036F9AC
:101860008B4B5A68FF2A02D8802252005A6080228D
:101870007D4C824B21691201854D1A60002907D0E9
:10188000606900F08BFA431C5800C0180338FDD281
:10189000E0217F4B02201A681140802252012A4326
:1018A00011601968484003210140116004219A68C1
:1018B0001142FCD08022802192012A43090111604B
:1018C000802252005A60734B2361734B5968FF2981
:1018D00000D85A600321684A6F4B116002399A6838
:1018E0001142FCD0E0201A681040802252011A43B5
:1018F00010601868484003210140022011606649C9
:101900008A681042FCD08022920113438022120187
:101910001A608022614B52004A606361604B5968D3
:10192000FF2900D85A6080225E4BE16912015C4DAC
:101930001A60002907D0606900F030FA431C580093
:10194000C0180338FDD2E02255490B681A408023A5
:101950005B012B431A60802380229B012B431201E1
:101960001A608022414B52004A60E3614E4B596835
:10197000FF2900D85A6080224C4B216A12014A4D3F
:101980001A60002907D0606900F008FA431C58006B
:10199000C0180338FDD2E02243490B681A40802367
:1019A0005B012B431A60802380229B012B43120191
:1019B0001A60802380225B004B602C4BD202236292
:1019C0003B4B5968914200D25A608022394B616A80
:1019D0001201374D1A60002907D0606900F0DEF966
:1019E000431C5800C0180338FDD2E02230490B6870
:1019F0001A4080235B012B431A60802380229B01C5
:101A00002B4312011A608023DB024B60184B636288
:101A1000294B5A68FF2A02D8802252005A6080223D
:101A2000264BA1691201244D1A60002907D0606974
:101A300000F0B4F9431C5800C0180338FDD2E0226E
:101A40001D490B681A4080235B012B431A608023D9
:101A500080229B012B4312011A6080235B004B60A4
:101A60000E4BA361DAE6C046A4050020006CDC0240
:101A70001BB70000008000403CB0004030B0004088
:101A8000002F685900800240008C864700C0024049
:101A900030800040001BB7003C8000404059730775
:101AA0005480004054B000406080004060B000406E
:101AB0006C8000406CB000404880004048B000405E
:101AC000014B8000C0587047A4050020F8B5040001
:101AD00021481D0017000E0000F060F901003800D9
:101AE00000F05CF9069B29041B0319432368002BB3
:101AF00020DB1A4B1A4DE21853425A4180235B01F6
:101B00009C461203174B62441A60174B1A60170069
:101B1000AB689F43FBD1C022231D92011A432123AE
:101B20002660A06013602368002BFCDA0823E160C4
:101B30001360F8BD3F2322681340B342D9D1A36894
:101B40001B051B0D8342D4D1EE22E368D202134061
:101B50008B42CED1EDE7C046001BB7000040FDBF71
:101B600000C0004000E0004000F000408023024A36
:101B70009B000343D362704700800540AA23064AB6
:101B80001B0113602F230549D360054B196053686F
:101B9000002BFCDA7047C0460040024000B0FA005B
:101BA000006002402C4B2D4A70B51A602C4A2D4B18
:101BB0002D491A6014008B689C43FBD12B4D2C4E91
:101BC000B54208D2013E761BB60808CD98472300DF
:101BD0000134B342F9D1FFF70BFE264A214B1A60BC
:101BE000214A9368DB43DB01DD09002BF9D1402258
:101BF000214B224C224E9A675A671A67DA66B44222
:101C000008D223682000002B20D00834FEF760FEA5
:101C1000B442F6D31B4E1C4CC022A168300001F028
:101C2000D5F9A660FEF79CFCFEF72AFEFEF7EEFF54
:101C3000164C174EB44208D2013E361BB60808CCEB
:101C400098472B0001359E42F9D170BD0834FEF74C
:101C500031FEB442D5D3DDE700E00040BFCDFBFE4E
:101C6000FE7F3C0000F0004000C000405002002019
:101C700060020020FFFFFF0100F001404802002049
:101C8000500200200000002000ED00E06002002073
:101C90006402002000BEFDE710B5FFF7FBFFC04661
:101CA0000FB400B5084883B001F0C2FA049B002BC2
:101CB00007D005A91800019100F018F8034801F0B9
:101CC000B7FA0120FFF7E6FFD8370010E837001019
:101CD00010B50148FFF7E4FFEC37001010B50028FD
:101CE00000D110BD01F058FAFBE7C04610B5094A13
:101CF0000300146884B0002C08D00122009106482B
:101D0000524203A9A047012004B010BD01F090FA8F
:101D10000020F9E714060020DD1C00100148042112
:101D2000014B184710020020591D0010014B9B6801
:101D30001847000010020020142310B50100188875
:101D400004331B88984710BD162310B5010018886E
:101D500002331B88984710BDF8B54746CE4680B57C
:101D60000F1E19D0142399460433040000250126C0
:101D700098464B461888434621681B88984701C4FB
:101D8000431E9841013540420640AF42F1D1300038
:101D9000C0BCB946B046F8BD0126F8E7114A936FBA
:101DA0009B0813D210665166002905D0FFE7FFE7B4
:101DB000FFE7516F106F704704B5002801D0002075
:101DC000C04301F0E1FC002104BDC046F0B5146E33
:101DD000556E576F166FFFF7E5FF14665566576728
:101DE0001667F0BD000000D048404140484018B49C
:101DF0001B4B5B68FC46019308BD04DFAF1F00105E
:101E000018B4174B1B68FC46019308BD00DFB91FCF
:101E100000109446134A926F920809D2624618B491
:101E20000F4BDB68FC46019308BD0CDF71220010EC
:101E30000C4AF0B5146E556E576F166F6246FFF779
:101E4000EEFF084A1466556657671667F0BD18B46A
:101E5000034B9B68FC46019308BD08DF1521001069
:101E600068030020000000D00021002805D1704741
:101E7000C1174840401AFAD0C90713B5064B1B6872
:101E800098470CBC441CA2401005120B0349091BC7
:101E900009051943114310BD280600201F04000046
:101EA00018B4044BDB6FFC46019308BD7CDF212492
:101EB000001000006803002018B4044BDB6CFC46E3
:101EC000019308BD4CDFCD25001000006803002001
:101ED00018B4044B1B6DFC46019308BD50DF692606
:101EE0000010000068030020132370B51D78012D39
:101EF00015D010DD1C48FFF727FF1C4C0100802285
:101F0000200001F063F8022D06D01948FFF714FFF6
:101F1000184B186070BD154C174BA364F5E7164BB2
:101F2000124C23606360A360E36023616361A3617B
:101F3000E36123626362A362E36223636363A36377
:101F4000E36323646364A364E36423656365A36557
:101F5000E36523666366A366E36623676367A36737
:101F6000E367A364D1E7C046534400006803002040
:101F70004C330000280600207D1F001007B5604686
:101F800001880A0A0230DF2AFAD1C9B2820804D3D2
:101F9000028840880004104300E00068014A505065
:101FA000039007BD680300200FB403BC0CBCF0B560
:101FB0000124E407634000E0F0B50C0DCF0F661E6E
:101FC0003605891B640503D3C943404200D3013160
:101FD000640D03D0661CF60A07D0E41B00207F00C6
:101FE000791C89078912803C24031D0DDF0F6E1EAA
:101FF00036059B1B6D0503D3DB43524200D30133EF
:102000006D0D03D06E1CF60A07D0ED1B00227F0079
:102010007B1C9B079B12803D2D032F1B661B58D4F6
:10202000A446202E46DA20371400BC401D00BD40D7
:10203000F24033412A4380185941CB0F05D0C943A0
:10204000C043002264425041514162464D0D28D1A7
:102050000D0D07D100281FD0241940414941013AF4
:102060000D0DF9D0640006D3013000D30131002CEE
:1020700001D140084000013A0BD4941CE40A04D179
:1020800012051144DB071944F0BDD907204B194351
:1020900000E0D9070020F0BD0029DDD1002CDBD104
:1020A000F0BD0132C6074008CD0728434908002E7D
:1020B000E1D0D9E73C2E29DA203E40371400BC405D
:1020C00000D00124F24014431A00BB401C43D31734
:1020D000ACE7AC46202F08DA20360400B4400D00EF
:1020E000B540F84039412843A5E73C2F0CDA203FA2
:1020F00040360400B44000D00124F84004430800F6
:10210000B1400C43C117EAE710001900002494E71E
:102110000000F07FF0B50C0D661E3605891BE60A3F
:102120006405640D02D0651CED0A04D00020012175
:102130000905803C2403A4461C0D671E3F05DB1BDC
:10214000E70A6405640D02D0651CED0A04D0002284
:1021500001231B05803C24037740644497B484B278
:1021600096B27443070C7E43150C6F4380B26843EC
:10217000361802D3012000043F183004350C001932
:102180007D41844688B29AB250430C0C62431F0CC6
:102190007C438EB27E43921902D301263604A419E1
:1021A0001604170C3618674101BC81B29AB251432C
:1021B000040C62431B0C5C4380B25843121802D3D8
:1021C0000120000424181004130C401863412D183A
:1021D0005E410020474106BC88B293B258430C0CC4
:1021E0006343120C544389B251435B1802D301215B
:1021F0000904641819041A0C091862416D18564133
:102200000020474118BCF902720D1143F0026A0D1B
:102210001043ED020A0D03D16D1940414941013BC4
:10222000124E9B1B7600B3420ED26D0007D30130D5
:10223000002671416646354301D1400840001B0528
:10224000C918E4072144F0BD0BDA013306D101308F
:1022500004D101314F0D01D04908F2E7E107002018
:10226000F0BD013631050020EBE70000FF03000060
:10227000F0B51C0D671E3F05DB1BE70A6405640D06
:1022800002D0661CF60A04D0002201231B05803C04
:102290002403D0252D060026F6432E661E096E6601
:1022A000CE0FF619B44649004F0D02D07E1CF60A37
:1022B00003D000200021403F3F033E1BB600B44442
:1022C000013F7F05C91B49082E6F013676089C0225
:1022D000950D25437543ED137543AD1301356D1011
:1022E000F603761B0CB4CC02450D2C43A2B2B3B25C
:1022F0005A43270C7B43350C6F43A4B26C431B1924
:1023000002D3012424043F191C041D0CA4187D4190
:1023100024196D41009A91B2ACB26143170C7C4311
:102320002B0C5F4392B25A43A41802D30122120429
:10233000BF182204230C52187B41019C6C431B19CB
:10234000520ED9010A434401A01A81B2B2B25143DC
:1023500003145A43360C734387B27743D617D21906
:1023600000277E4136049B191704160C7F185E4126
:102370007316ED18F301002680337541A90F06D1BD
:102380006400690AE8055B0A184309D22FE00422B9
:10239000944480337541A90AA8059B0A184326D3A3
:1023A000404149412404009A019B0D005543641BA0
:1023B0004343E41A95B286B27543170C7E43030C6F
:1023C0005F4392B25A43B61802D301221204BF18D7
:1023D0003204330C52197B4152429C41002C02D4EE
:1023E0000022013051414008CA071043490802B099
:1023F0006246D7079210084BD218084B9A4203D274
:1024000012058918C919F0BD0020002A01DC390025
:10241000F0BD01331905F5E7FD030000FE070000DC
:102420004A00520D144BD21A13DDFF2A1EDAD205D0
:10243000CB0FDB071A43C300400F0903490A0843C7
:1024400010435B0001D301D0013070474308FBD239
:10245000704702D0C80FC00770470A031213013239
:10246000F8D1420F072AF5D1012200E0FF22C80F60
:1024700000028018C00570478003000000210A0098
:10248000002104E000210A00C11704E0002200231B
:1024900006E0C0460022CB1758405940C01A994167
:1024A00030B5184CA21A002903D1010010D0002029
:1024B000203A4C1512D104D2013A001849414C0D72
:1024C000FAD3114CA24204D212058918DB07C918AD
:1024D00030BDD243520D00200021F5E703D4013A6C
:1024E00000184941FBD50B324405C00A4D0528436D
:1024F000C90A640003D0002460416141E1E7E0D3F0
:102500004408F8E732040000FE0700000A0DCC0F73
:10251000531E1B05C91A520503D3C943404200D3B9
:102520000131520D03D0531CDB0A07D0121B0020CF
:102530006400611C89078912803A1203014BD21A88
:1025400070470000FF030000023225D40C2A1CDA79
:102550001125AD1A0B002B41083207350600EE405D
:10256000904091403143F0CC63431A1500235A4107
:10257000554356435743BF02F41276057619674117
:10258000ED177F19801BB94170470C220020C91735
:10259000490001310905DBE70902030E1943000276
:1025A0005342203208D40C0019419440D8402043B3
:1025B00000225041514170470800C917203B20328A
:1025C000F1D500200021002270470000F0B5FFF790
:1025D0009DFF54A4FFF7B8FF002904DA204C214DD9
:1025E00000196941013A04B4012752A600220123CF
:1025F0009B0730CEB446001BA9410BD47E42203647
:102600001D003D411C00B4401600FE4034436241B1
:102610006B4101E00019694166460137212FE8D17D
:1026200085B29EB2754307147E43190C4F4384B2A2
:102630004C43F11736190024614109047F18340412
:10264000310C64197941A40F880020438917801840
:10265000594104BC52423E32FFF71DFFF0BD00005D
:102660006BDE73F4FD855C2CF0B54F0050D27F1506
:102670004ED001374FD0FFF749FF04B44902C20DD5
:102680001143400201272BA6B446002200237E42BC
:1026900020360D003D410C00B4400600FE4034439E
:1026A00044414D41AE0F05D120002900664630CE91
:1026B000121BAB410824A4440137212FE7D1890024
:1026C000891012184B4180BC17A413CC01377843F2
:1026D00079437C434F05C912CD17C0196941A70240
:1026E000A415CD17C9196C41DD17801859416C41EB
:1026F0003E22CD17AC4208D000090E07304309092D
:10270000260731432411043AF3E7FFF7C4FEF0BD76
:1027100002490020F0BD02490020F0BD0000F0FF9A
:102720000000F07FAAB800006BDE1300A3EF0F00DB
:1027300021170B00F34B98BFEC23F319D6104DCDA6
:10274000E3FB470E7AB9BC8ADBC18907CC542C0263
:102750001846E103053083E7B029F8011E1FE08722
:102760004505FE00249E41ACA9807F00811762458B
:1027700015E03F00E610ABA902F81F008858455548
:1027800000FE0F00C4AAA90A80FF070056455501A4
:10279000E0FF0300ABA92A00F8FF01004555050042
:1027A000FEFF0000AAAA0080FF7F0000551500E090
:1027B000FF3F0000AB0200F8FF1F0000550000FEC5
:1027C000FF0F00000B0080FFFF0700000100E0FF8B
:1027D000FF0300000000F8FFFF0100000000FEFF03
:1027E000FF0000000080FFFF7F00000000E0FFFF0F
:1027F0003F00000000F8FFFF1F00000000FEFFFF89
:102800000F00000080FFFFFF07000000E0FFFFFF58
:1028100003000000F8FFFFFF01000000FEFFFFFFC4
:1028200000000000000000800000000000000040E8
:102830000000000051434343C9188C46110C83B279
:102840004B4310B4040C614392B280B250436243D4
:102850001C041B0C001910BC59411304120CC018A5
:1028600051416144704700004840414048400E4B90
:102870005B6818470C4B1B6818470C4A936F9B0802
:1028800002D2094BDB681847F0B5146E556E576FCE
:10289000166FFFF7F6FF054A146655665767166709
:1028A000F0BD014B9B68184768040020000000D071
:1028B00007B548404140484001E0C04607B54200E6
:1028C000120E03D0FF2A03D1420218D8C00DC00552
:1028D0004A00120E03D0FF2A03D14A020FD8C90DB5
:1028E000C9050122414005D4414001D5814207BDBF
:1028F000884207BD0143491801D0C043001807BDF5
:1029000000B5FFF7DBFF01D0002000BD012000BDB6
:10291000491A002808D1084670470000C10FC907AE
:1029200000D54042002817D0F44603B40B4B1B6877
:10293000984706BC81409E384042803107D20B0642
:1029400007D04900490AC0051043084360470130D9
:10295000F8E7490A8902F5E77047000028060020D9
:1029600041000A0E80231B067E2A0BDD9E3A0BDAFD
:10297000C1174002400818435242D040490001317B
:102980004843704700207047C00FC0180138704797
:10299000C0420DD300B540004008002100F012F8FD
:1029A000002801D4404200BD8020000600BD000088
:1029B000034BDB69FC4618471CDF752F0010000035
:1029C00068040020014B5B6A18470000680400207F
:1029D000014B1B6B1847000068040020034BDB6FA2
:1029E000FC4618477CDF8D2F001000006804002093
:1029F0004100090E862902DA044B1B6C1847044972
:102A000000B500F09BFA02BC8E46F5E76804002092
:102A1000DB0FC940132310B512481C78FFF794F957
:102A20000100012C0AD003DD80220F4800F0CEFA0D
:102A30000E48FFF781F90E4B186010BD0A4C542266
:102A4000200000F0C3FA0B4B6365A365E3652366C2
:102A50006366A366E36623676367A367E36723622E
:102A6000E361E5E753460000680400204C330000B2
:102A700028060020492F0010F0B5D6464F4646469E
:102A80000C00C0B5051C012953D0CE0F7618761066
:102A9000012E46D00327CA1717407F18BF10012FF9
:102AA00037D0072313405B18DB109846012B2BD03F
:102AB0000F2313405B181B119946012B1BD01F23BA
:102AC00013405B185B119A46012B0BD03F210A4043
:102AD00012199111FFF7D0FF011CFFF7E2FE5346D8
:102AE000DB072FD4011CFFF7DCFE4B46DB0702D5CA
:102AF000291CFFF7D6FE011CFFF7D3FE4346DB0778
:102B000002D5291CFFF7CDFE011CFFF7CAFEFB070B
:102B100014D4011CFFF7C5FEF30702D5291CFFF7EB
:102B2000C0FE011CFFF7BDFEE30702D5291CFFF71D
:102B3000B8FEE0BCBA46B146A846F0BD291CFFF776
:102B4000B0FEE6E7291CFFF7ACFECBE7F8B50400C2
:102B5000061C0D1C002817DA4B001B0E7F3B0ED401
:102B60001722D31A0BD401210A009A40013A2A42B3
:102B700005D1172B28D02A00DA40114224D1802316
:102B80001B069C466444261C281CFFF7E9FEE20D48
:102B900007000100002A22D0FF2A20D064021ED1A3
:102BA0002748874202DB3800FF2F41DC7F3A504341
:102BB00003007F33002B3DDDFE2B3DDCFE239B0518
:102BC0009C46C005604409E080231B06E018291CD0
:102BD000FFF7BCFF80231B069C466044F8BD002F16
:102BE00010D03B002033402B0FD8002F06DAFE20F8
:102BF000311C8005FFF741FE7942061C301CFFF7AF
:102C00003BFFEBE7FE208005E8E7301CFFF7E6FE20
:102C1000FFF75EF906000F00281CFFF7DFFE320009
:102C20003B00FFF714F9FFF747F9FFF739F9D5E74C
:102C3000FF20BBE70020D1E7FF20C005CEE7C0465C
:102C400000FFFFFFF8B5CE4647460D1CFE2180B5BC
:102C50008905041CFFF754FE261C00282CD1EB0D1F
:102C6000FF2798463B40994643461F4229D05D497D
:102C7000201CFFF745FE002826D04B46FF2B20D016
:102C80004346FF2B41D0584B984538D07F224B46C6
:102C900052429B1839D4534A1721CB1A002B06DD18
:102CA000163999400B00013B2B4200D07CE0291CD7
:102CB000201CFFF74BFF061C301CC0BCB946B046B9
:102CC000F8BDFE26B605F7E73900E30D22001940EE
:102CD0001F4216D17F224B465242002D18DB9A1814
:102CE0000DD417239B1A0AD4012002009A40013AFE
:102CF0002A4204D1172BDFD0DD402842DCD1002648
:102D0000DAE7FF2B1AD1002DF9DBFF26F605D3E712
:102D10009A18FAD417239B1AF7D4012002009A407C
:102D2000013A2A42F1D1172B02D0DD402842ECD0E3
:102D3000FF26E00FC007F6050643BDE72A48834299
:102D400027D17F224B465242002D10DB9A18DCD44B
:102D500017239B1AD9D401229A40013A2A42D4D18E
:102D6000172B02D0DD40EB07CFD5204EA4E79A18F1
:102D7000C5D417239B1AC2D401229A40013A2A4291
:102D8000BDD1172B02D0DD40EB07B8D58026360623
:102D900092E74346FF2B1DD080451FD07F214B4635
:102DA00049425B1800D477E7002AAEDB201CFFF70E
:102DB00015FEFFF78DF806000F00281CFFF70EFE2A
:102DC00032003B00FFF743F8FFF776F8FFF768F8AB
:102DD000061C71E77E2998DC00266DE77E2994DDCC
:102DE0008DE7C046000080BFFF010000000080FFAB
:102DF000F8B5454657464E46DE46E0B5FF268846BE
:102E0000C50DC90D35401700041C0E40002A01D025
:102E100000231360FF2D60D0002E5ED0002D5FD008
:102E2000201CFF2E53D0731EAB4250DCE20F9446A1
:102E30008022120491466402640A144342464946C1
:102E40005202520A11438946AB4251D06346002BCD
:102E500058D000216442AD1B002D5CDD4B460120A3
:102E6000D9114042FEF79AFF1D23834600219C465C
:102E70002A000C2D00DD0C22584663129440434377
:102E80006046A246801A03414C46504691400133A9
:102E90005B105C435918041BAD1A002DE8DCA145FA
:102EA00037DC4B46E41AA14546DCE41A02316300E4
:102EB0004B4519DC16D04346002B00DA4942002F5F
:102EC00000D0396096212000891BFFF781FDF0BCFE
:102ED000BB46B246A946A046F8BDFF20C005F6E7AE
:102EE0000020F4E7CB07E6D54B460131E41AE2E7D0
:102EF0008C42ECDD6346002B13D14B002E000121E8
:102F0000E41AD8E7AD1B002DA8DC8C4211DA0021B1
:102F1000CDE7002CCBDA4B46E41808D54C440239F7
:102F2000C5E74B0001212E001C1B4942C3E70139B4
:102F3000BDE74B460021E41A0131B8E710B5002285
:102F4000FFF756FF10BDC04607B5604601880A0A64
:102F50000230DF2AFAD1C9B2820804D3028840883D
:102F60000004104300E00068014A5050039007BD80
:102F7000680400200021C2158032803201D0024A4C
:102F80001047002070470000CD2A0000C30FDB0768
:102F900041000A0E07D0FF2A08D00909054A8918FE
:102FA0001943400770471900002070470249C918AB
:102FB000FAE70000000000380000F07F014804211B
:102FC000014B184720020020591D0010014B5B687F
:102FD0001847000020020020030010B5080011006F
:102FE0001B68984710BDC046F0B546464F46D646CA
:102FF000C0B5437D80460E001700002B46D0002A46
:103000003FDD4B1E9946244B0125002400209A46A3
:103010000DE04B461B5D0D3B5A425341325DDBB226
:103020000A2A0BD02B00013401359F421ADD002CF7
:10303000EFD14346325D1B7D0A2AF3D1002BF1D13B
:10304000A04204DA4346211A1B68301898474346C9
:1030500050461B6802219847013428002B00013597
:103060009F42E4DC874204DD4346391A1B6830186E
:103070009847F619013E33780D3B5A425341424678
:103080001375E0BCBA46B146A846F0BD036811000E
:1030900030009847F5E7C046AC380010F0B5DE4682
:1030A00057464E464546E0B585B017001C00060061
:1030B0000D00FDF7EDFF0023304A12184B41002BA5
:1030C00058DB2F4908008A4600F066FB01906B1C14
:1030D00003D1300000F020FB0500002C25D1294B46
:1030E0009846294B1C68002C15D0002F20D1274F63
:1030F00002E02469002C0ED02368002BF9D03B6835
:10310000002B01D0A342F4D120002A003100C04797
:103110002469002CF0D1019B002B27D105B0F0BC15
:10312000BB46B246A946A046F0BD194B9846D8E723
:10313000164B994602ABDF1D0A239B4602E0246929
:10314000002CE8D02368002BF9D04B461B68002BDD
:1031500001D0A342F3D12A0031002000C0475B46D2
:103160000122390020003B70C047E8E7504600F0DC
:1031700003FBD3E70122074B5242A2E740420F0074
:1031800048020020E92F00100C0600201006002045
:10319000D92F0010FFFFFF7FF0B5CE46474680B520
:1031A00083B06B460600DD1D2870FDF771FF00231C
:1031B0001A4A12184B41002B2BDB1949080088468C
:1031C00000F0EAFA174B81461C68002C14D0164F09
:1031D00002E02469002C0FD02368002BF9D03B6853
:1031E000002B01D0A342F4D1200001222900FFF7D7
:1031F000FBFE2469002CEFD14B46002B05D130009B
:1032000003B0C0BCB946B046F0BD404600F0B4FAC9
:10321000F5E70122054B5242CFE7C04640420F007E
:10322000480200200C06002010060020FFFFFF7F50
:1032300070B5040000F070FA0023010005000122BF
:103240002000FFF72BFF084B1C68002C06D063689A
:10325000002B05D098472469002CF8D1280070BDB8
:103260002469002CF3D1F9E70C0600200A4A136800
:10327000002B05D10CE01A001B691032002B07D07F
:103280009842F8D1002902D10369136001617047A7
:103290000029FCD01060FAE70C060020002210B5CF
:1032A000024BDA6200F0C6F8012010BD0040054074
:1032B000F0B50D1E15DD0E4B0D271A680D4B451987
:1032C000D31859424B410C495B005E5E20210478C3
:1032D000A64207D093691942FCD101301460A8427C
:1032E000F5D1F0BD93691942FCD11760F2E7C046F1
:1032F000440600200080FCBF4006002030B50400DA
:103300000D1E26DD002010211B4B013C1A6893691D
:10331000194219D1013093691942FCD11368235421
:103320008542F4D1154B1B68002B0CD050239363BE
:10333000516B183B34320B401100802252010A437A
:103340001360002815D030BD0C4B1B68002BEDD14D
:10335000F7E70A4B1B68002B0BD050223821064B95
:103360001B689A635A6B3433114080225201134315
:10337000196003204042E6E7440600209C05002037
:10338000064B10B51B68002B06D00021044A1268BA
:103390009163044A1068984710BDC0469C05002000
:1033A00044060020A00500201D4BF0B51A68C64653
:1033B00098461C4B0E00D31859424B411A4F1433F8
:1033C0001C00050000B53B68002807D0002B11D079
:1033D000164B3D601E6080BCB846F0BD002BF7D098
:1033E000906300212000FDF7D5F820001049FDF77B
:1033F00015F9EDE720000E49FDF7E6F80121200060
:10340000FDF7C8F84346502238211B689A635A6B6F
:10341000343311408022520113431960D8E7C0466B
:10342000440600200080FCBF9C050020A005002071
:10343000813300100C4B10B51B780C4B0C4C1B78D7
:103440000C4B022100202360FDF732F802210120FD
:10345000FDF72EF8E12120684902FEF705F9012168
:103460000548FFF703FF10BD24390010283900106C
:10347000440600200040034030020020F0B5D6464C
:103480004F4646468846C0B505240600FDF730F88D
:1034900043461F791C57284B8146F0184342584138
:1034A000264B9A4683009C46534662469858012212
:1034B0002023BA40DB1B013A002C32DB9C422DDC7E
:1034C000A2401500104229D1002F1AD043465A7845
:1034D00019781202114342469B78D2781B040B43A1
:1034E00012061A439046002241465300C95A4B0B1C
:1034F00000D10919131912339B00013299519742D7
:10350000F2D85346624605439D504846FCF7FCFFFF
:103510002000E0BCBA46B146A846F0BD0848FEF718
:10352000BFFB002B02DAF9E7013BF7D315009D4002
:103530001C000542F8D1C7E70000D0AF8405002089
:10354000F0380010F0B5DE4657464E4645468B46ED
:10355000E0B51C0085B04B0003935B44DB00C5184D
:103560002F00DC3716003A68844600922A00CC32DD
:103570001268CC330192C02263449201134380222B
:10358000920202901A60002C19D08023DB049A4624
:1035900001239946E0231B029846D8352000FEF708
:1035A000C5FB5246430113433B6033004A46C340C8
:1035B0001340424613432B60631E1C40EED1029B16
:1035C00003989C465844C00060440300009ADC33D2
:1035D0001A60019BCC30036005B0F0BCBB46B2461C
:1035E000A946A046F0BDC046F0B5DE4657464E4659
:1035F00045468B46E0B51C0085B04B0003935B4409
:10360000DB00C5182F00DC3716003A6884460092AC
:103610002A00CC321268CC330192C022634492015A
:1036200013438022920202901A60002C18D080234B
:10363000DB049A4601239946134BD835984620005F
:10364000FEF774FB5246430113433B6033004A4686
:10365000C3401340424613432B60631E1C40EED10F
:10366000029B03989C465844C00060440300009AA3
:10367000DC331A60019BCC30036005B0F0BCBB4664
:10368000B246A946A046F0BD80E00000F0B5012595
:103690008D400468AC434D0004606C18E4000419CC
:1036A0002600C836002B28D01F68DC3437605F68DE
:1036B00077609F68DB68B76023606D18EB001D00C2
:1036C0008024D035451964012C4380252D062560C2
:1036D000256001250F4C2E008C4084600C1DA640F7
:1036E000802408318D401F21A4010443C0180A40E2
:1036F000D830266025600260F0BD80277F023760E9
:10370000F8277F027760C027DC343F03B76023606F
:10371000D3E7C0460101010110B583070AD00300B9
:10372000032102E001330B4205D01A78002AF9D1B7
:10373000181A10BD030019680C4A0D4C8A188A43E8
:1037400022420FD15968094A04338A188A43224217
:1037500008D15968054A04338A188A432242F1D0B5
:1037600000E001331A78002AFBD1E1E7FFFEFEFEFC
:1037700080808080F8B5C04601B40248844601BC10
:10378000604700BF5D01002001B40248844601BCCF
:10379000604700BF8501002001B40248844601BC97
:0837A000604700BFC1000020DA
:1037A800B037001002FF0000016042B04861726447
:1037B8007761726520616C61726D20256420616C8F
:1037C800726561647920636C61696D6564000000ED
:1037D8000A2A2A2A2050414E4943202A2A2A0A0026
:1037E8000A00000048617264206173736572740096
:1037F80052656C6561736500626F6F74325F773212
:10380800357130383000000068747470733A2F2FA7
:103818006769746875622E636F6D2F726173706269
:103828006572727970692F7069636F2D6578616D43
:10383800706C65732F747265652F484541442F700D
:10384800696F2F617061313032000000312E352EE2
:10385800310000007069636F0000000070696F5FDD
:1038680061706131303200004665622031342032A7
:103878003032340006005250BBFF3CB65C380010B2
:10388800060052509A23561810380010060052505D
:10389800E182887F0038001006005250D3F075424C
:1038A800F83700100D0A0000554152542073746413
:1038B800696E000055415254207374646F7574002A
:1038C8005541525420737464696E202F20737464B8
:1038D8006F7574000600525053B4F4A1C838001034
:1038E80008005250920000004E6F2070726F67728D
:0C38F800616D20737061636500000000CA
:10390400AC020010A0020010940200107C380010D9
:10391400880200108838001094380010A038001075
:08392400DC380010E838001047
:10392C00F0B5C646150000B504001E000268EFF3A2
:10393C00108172B61368002BFCD0BFF35F8F042389
:10394C00E356002B2DDB2268BFF35F8F0020106045
:10395C0081F31088D0221206127852B290469A4205
:10396C0003D1002080BCB846F0BD00270BE02368D3
:10397C00BFF35F8F1F6081F310882800310000F0C7
:10398C0033F80028EDD12268EFF3108172B613687A
:10399C00002BFCD0BFF35F8F23797F2BE7D94346F5
:1039AC0002E0D0231B061B6823712368BFF35F8FD3
:1039BC0000221A6081F310880120D3E70268EFF32C
:1039CC00108172B61368002BFCD0BFF35F8FFF23FE
:1039DC0003710368BFF35F8F00221A6081F31088B4
:1039EC0040BF70477047C04601B40248844601BCD2
:1039FC00604700BFE90E001010000000000000003E
:103A0C0000000100000000000000000000000200A7
:103A1C000000000000000000000003000000000097
:103A2C00000000000000FF000000000001B5486825
:103A3C0001318E460047704609380149884701BD5F
:103A4C00CD070010FC0100200000000068020020DF
:103A5C00CC0500200000000000000000DC05002068
:103A6C00000000000000000010000000000000003A
:103A7C00503300004C33000054330000523300002C
:103A8C004D5300004D4300005334000043340000FC
:103A9C00B132001000000000FD320010A9330010FC
:103AAC000000000000010000000000000000000009
:103ABC00BD2F00101D1D0010E91E0010152A00104E
:043ACC00E5020010FF
:04000005100001E9FD
:00000001FF
