:020000041000EA
:1000000000B5324B212058609868022188439860DF
:10001000D860186158612E4B002199600221596106
:100020000121F02299502B49196001219960352056
:1000300000F044F80222904214D00621196600F024
:1000400034F8196E01211966002018661A6600F04E
:100050002CF8196E196E196E052000F02FF8012189
:100060000842F9D1002199601B49196000215960AB
:100070001A491B48016001219960EB211966A021F2
:10008000196600F012F800219960164914480160C1
:100090000121996001BC002800D000471248134993
:1000A000086003C880F30888084703B5996A0420EC
:1000B0000142FBD001200142F8D103BD02B5186610
:1000C0001866FFF7F2FF186E186E02BD00000240BE
:1000D000000000180000070000035F00212200005C
:1000E000F4000018222000A00001001008ED00E03C
:1000F00000000000000000000000000074B24E7A12
:1001000000200420F7010010C3010010C5010010F9
:10011000C1010010C1010010C1010010C101001097
:10012000C1010010C1010010C1010010C701001081
:10013000C1010010C1010010C9010010CB01001065
:10014000CD010010CD010010CD010010CD01001037
:10015000CD010010CD010010CD010010CD01001027
:10016000CD010010CD010010CD010010CD01001017
:10017000CD010010CD010010CD010010CD01001007
:10018000CD010010CD010010CD010010CD010010F7
:10019000CD010010CD010010CD010010CD010010E7
:1001A000CD010010CD010010CD010010CD010010D7
:1001B000CD010010CD010010CD010010CD010010C7
:1001C00000BE00BE00BE00BE00BE00BEEFF3058054
:1001D000103800BEF2EB8871204A0010484A001027
:1001E0003402001090A31AE700201F49086006C8D7
:1001F00081F3088810471D48006800282FD10DA4FE
:100200000ECC002902D000F012F8F9E71849194A7B
:10021000002000E001C19142FCD1174988471749ED
:1002200088471749884700BEFDE701C901C29A42C5
:10023000FBD37047484A0010C0000020C00D0020CA
:100240004857001000000420000004204857001008
:10025000001004200010042000000000704709482E
:1002600001F07EFE0047000008ED00E0000000D035
:10027000D00D0020141A0020D91D00100503001015
:10028000CD1E00105756000006005250ABB360530D
:100290007447001006005250861C03028447001069
:1002A000060052505422A29DA04700100500525053
:1002B000DE65F46848570010F8B5C04610B5064C26
:1002C0002378002B07D1054B002B02D0044800E017
:1002D00000BF0123237010BDD010002000000000DB
:1002E00028460010044B10B5002B03D003490448E6
:1002F00000E000BF10BDC04600000000D410002088
:1003000028460010F0B5D64646464F46C0B592B0D6
:1003100002F0C6F9002002F083FB364B98466B468C
:10032000DD1D03239A4601200021404202F0EAFB32
:1003300000239946484603F0D7F9002809D14B46D7
:10034000012BF0D001239946484603F0CDF900284F
:10035000F5D04022484602A903F0D6F9002842D041
:1003600002AC2700261808E00122290000202B708B
:10037000013703F03FFABE4211D0424651463B7866
:10038000D25C0A40012AEFD12033DBB23B70290056
:1003900000202B70013703F02DFABE42EDD1002072
:1003A00003F0ECF908E00122290001202B70013450
:1003B00003F020FAA64212D0424651462378D25C7E
:1003C0000A40022AEFD1203BDBB223702900012032
:1003D0002B70013A013403F00DFAA642ECD1012052
:1003E00003F0CCF9ABE7002003F0C8F9012003F0DB
:1003F000C5F9A4E71D490010004870475846001091
:10040000004870476C46001070B5002826D00428BC
:1004100031D81A4B8000C658300004F083F8C0B2BF
:10042000011C1F2815D8C9B2002821D00023144D63
:10043000AA1CF05C0133DCB210800232A142F8D871
:10044000C0230131C9B249009B001943280029800B
:1004500070BD1F21C9B20028E8D109E0084D074B43
:1004600002221968A81C01F0A3FEC1218900EDE752
:100470000449034DEAE70020EAE7C046B00C00203B
:100480009413002002030000094A8300944640228E
:10049000634410B51C68C0006240C0241440802230
:1004A000520113431C60034B9C466044416010BDE5
:1004B00004C0014000400140034BC0009C46604422
:1004C00043681F2018407047004001400A4B8000DD
:1004D0009C4604236044002901D00C230821002AF3
:1004E00000D10B00026853400C221A4080235B01AC
:1004F000184302607047C04604C00140074BC0006B
:100500009C466044036809045940C0239B0219407B
:1005100080235B01184301607047C04604400140DE
:10052000074BC0009C466044036809035940C02340
:100530009B01194080235B01184301607047C0464E
:10054000044001400123D02283401206936293614C
:10055000094A83009446402263441968C0004A4017
:10056000C02111408022520113431960034B9C4665
:10057000052360444360704704C0014000400140CF
:10058000024B18688007C00F7047C04600C0064085
:100590008023DB051868000F7047C04670B5EFF385
:1005A000108C72B60D4D2B68002BFCD0BFF35F8F03
:1005B0000724CB08C618C05C01230C40A3401C00D4
:1005C0000440034207D103433370BFF35F8F2C60B5
:1005D0008CF3108870BD100001F07CFC2C0100D061
:1005E000F8B54746CE46884680B5EFF3108C72B614
:1005F000214D2C68002CFCD0BFF35F8F9A422CD881
:10060000D4080727055D061901241740BC402C4279
:100610001FD007210127894609E0D408055D061986
:100620004C4639001440A1400C00294211D001323F
:100630009342F2D201204042BFF35F8F00220E4B63
:100640001A608CF3108800280FDBC0BCB946B04696
:10065000F8BD2C4310003470EEE7BFF35F8F00232A
:100660002B608CF31088012040424346002BECD0D5
:10067000089801F02FFCC0462C0100D00021044B4B
:10068000044ABFF35F8F02C39342FAD17047C0465A
:10069000000100D0800100D0044A1078431CDBB276
:1006A000172B00D9102313707047C046C40C0020CC
:1006B00000B5054B83B00100009318221F230348A7
:1006C000FFF78EFF03B000BDFC4600105015002060
:1006D00001238340002904D0034A1360034A1360B6
:1006E0007047034A1360FBE780E200E000E100E0AE
:1006F00080E100E0024B10309B688000C0587047DA
:1007000000ED00E070B50D00EFF3108672B60F4AF1
:100710001368002BFCD0BFF35F8F0D4B10309B682C
:1007200084001B590B4A934203D09D4201D001F033
:10073000E9FB074B9B681D51BFF35F8FBFF35F8FD2
:100740000022024B1A6086F3108870BD240100D08D
:1007500000ED00E0CD010010F0B557464E46DE46F4
:100760004546E0B585B0060002911700EFF3108B07
:1007700072B6674A1368002BFCD0BFF35F8F002569
:10078000644B5D579A46002D00DAA4E06B00624C82
:1007900003935B199B009846A146C1444B465246C1
:1007A0009B79103613705D4BB2009B68019299588B
:1007B0000B1B2F2B34D95A4B994200D0A4E0039B3A
:1007C000584A9C46584B6544AD0063534346023338
:1007D0006519E418554B0121043B1B1B1B055B0DE0
:1007E00013436B80524BEF71AB80FF23AB71029BC5
:1007F000AB604B460B431900484B019A9B689950DC
:10080000BFF35F8FBFF35F8F0022414B1A608BF302
:10081000108805B0F0BCBB46B246A946A046F0BD64
:1008200001200A008243D379BB422FD845464E4669
:10083000130040491B1B5B415943090D3A4B63535D
:100840003A4B02356519043B5B1B1B05354D5B0DAF
:100850002B4373800426B446E0444444131F1B1BFF
:100860004C46A17102991B05A16049465B0D2B43C3
:10087000A380314BE77101431360BDE75800C018F6
:1008800080002018C679BE422BD902000623D35619
:10089000002BF3DA101D8246284880460426764253
:1008A000B446E14450464E46361A3005400D824665
:1008B00056461C48957106439680039A94466544B3
:1008C0001D4AAD00641922604246A371029BA280BA
:1008D000E771A36090E701F015FB002553465D57D3
:1008E00054E7101D82469088400500158446404616
:1008F000D444664604302018301AE0260005400D26
:10090000360230438046C9E701F0FCFA57E7C0469B
:10091000240100D00F1A0020C80C002000ED00E0D8
:10092000CD01001000E0FFFF00A1FFFFF80C002048
:1009300001BDFFFFAAAA00000148804701BD0000D9
:10094000F0B5DE4657464E464546E0B50C0083B04E
:10095000EFF3108972B6584A1368002BFCD0BFF32E
:100960005F8F564B9A68030010339F00D559544A45
:100970009046954232D0A54243D0524EAA1B2F2A10
:100980002CD801228240924651464F4A12681140AB
:10099000019151464D4A1160BFF35F8FEFF305821D
:1009A0009346002A33D101232A009A4393689C423C
:1009B00008D177E04B005B189B00F3189968A142BF
:1009C0002AD01A00062151560029F3DA019B002B88
:1009D00019D052463E4B1A603B4B1A60374B9B680E
:1009E000DD51BFF35F8FBFF35F8F0022324B1A6080
:1009F00089F3108803B0F0BCBB46B246A946A046B6
:100A0000F0BD1500EAE75246304B1A60E6E7934224
:100A1000C9D001F077FAC6E706215956002921DB33
:100A20004A005018800034188046A0689860E07929
:100A3000D871062020569871002824DBA488F01A6B
:100A40006405241544440019E0240005400D2402E7
:100A50002043988052181F4B9200B6181A781970CC
:100A6000B271B3E7594600290FD1FF3191711A498C
:100A7000918018490A789A71184A9B1B5B415A4326
:100A8000120D0A70A2E71648E3E7164A1649D21A71
:100A9000083A5002400D01439980144952080A4314
:100AA000DA8093E70621515613000029B8DA5A4636
:100AB000002AEAD14546DCE7240100D000ED00E041
:100AC000CD010010C80C002000E100E080E100E052
:100AD00080E200E00F1A002001BDFFFFAAAA00007B
:100AE00001BD0000020D002000F0FFFF00F8FFFF35
:100AF00070B5EFF3058101240443EFF3108C72B657
:100B0000214A1368002BFCD0BFF35F8F1F4B0500F9
:100B10001F4AED1A6D416A43120D1E4D8900AE68E1
:100B200052B27658A6421CD00621595691421CD08A
:100B300012215956914222D01E215956914220D05D
:100B40002A2159560324914210D0134B19781A7058
:100B50008171BFF35F8F00220B4B1A608CF31088FA
:100B600070BDAB680D4C5C50EFE7002461000919C3
:100B700089005B18FF21997109499980E5E70124F3
:100B8000F4E70224F2E7C046240100D0C80C00209C
:100B9000AAAA000000ED00E00F1A0020CD0100100D
:100BA00001BDFFFF054B064A1360064A1360536000
:100BB0009360D3601361536193617047808080803C
:100BC00000E400E004E400E0024B9C46614489003C
:100BD000016070474000003410B50400FFF75CFD71
:100BE00001002000FFF7F0FFFF232371BFF35F8FA9
:100BF00010BDC04610B50400FFF74EFD01002000F7
:100C0000FFF7E2FFFF23A380BFF35F8F10BDC04655
:100C100010B504000120FFF74BFD044B9C466044D7
:100C200080002060BFF35F8F10BDC04640000034DD
:100C300083680B4810B5844661446244090112017F
:100C40009A18591854684B6801209C4201D802D068
:100C50000020C0B210BD12680B689A42F9D8F7E7BD
:100C6000FFFFFF0F0A4B1968EFF3108072B60A6896
:100C7000002AFCD0BFF35F8F1B68BFF35F8F002299
:100C80001A6080F3108840BF002000217047C046E2
:100C9000EC190020F8B557464E464546DE46E0B50D
:100CA00099460CAB1C780DAB1B78060090469A4613
:100CB0000768002C11D1BC7B002C42D065003B683A
:100CC0002D19033D59194B78BB73002B00D1FB73D1
:100CD00000238B704B700B7004E065003B682D198E
:100CE000033D5919B2682A4B94464246E3181B014A
:100CF00063441A604A465A600A9A9A600B9ADA600C
:100D000000238B704B700B707B7B9B46002B2BD092
:100D100022005946B8687B6898473A68002816D080
:100D20005B4658465B005B445519033BA870D118DD
:100D3000D35C002B00D06B705B460C707B73A345BB
:100D400013D0F0BCBB46B246A946A046F8BD5B46F0
:100D50005B005B44033BD3189C705119525D002A21
:100D600000D05A705B460B707C7342464B46307D18
:100D700000F032FB051E06D05346002B03D12100A4
:100D8000306800F04DFD0E9B002BDAD01D70D8E7C7
:100D9000FFFFFF0FF0B5DE4657464E46454600239F
:100DA000E0B58BB00893674B8200D45800239B4674
:100DB000099000F097FA626806000F00EFF31085C3
:100DC00072B61368002BFCD0BFF35F8F23689C467C
:100DD0005B7B9946002B00D169E0A2685A4B904694
:100DE0004B441B01984443461A685B681000190085
:100DF000801BB941002900DC63E0099800F0ECFA9F
:100E000000230022984600230692079300239A4667
:100E10006368BFF35F8F5A461A6085F310885346A4
:100E2000002B08D10028C4D10BB0F0BCBB46B246A1
:100E3000A946A046F0BD089B414618024B46184300
:100E4000D047626806000F00EFF3108572B6136892
:100E5000002BFCD0BFF35F8F002F50DB33003B43F0
:100E600002D02369002B61D12368D97B002907D0E8
:100E70004A00521819688C4649466244033A517038
:100E80009A7B002A01D14A469A734A46DA734B4646
:100E9000E168013BCA5C0132CA545B462361636866
:100EA000BFF35F8F5A461A6085F3108881E70023ED
:100EB00000229846002306920793002300209A46BA
:100EC000A6E7002902D1002800D096E7002160465D
:100ED00000F024FC43461A685B6806920793434679
:100EE0009B689A464346DB689846E3684B44013B5F
:100EF0001B7808931B0203432361002088E72369C2
:100F0000002BB1D0069A079B921BBB41002B15DB2F
:100F100059460491012103914946029141460191AC
:100F2000514620000091FFF7B5FEB6E700F0DAF970
:100F300032003B0012184B41002BE9DA0122034B2F
:100F40005242E5E7D8190020FFFFFF0FFFFFFF7FA8
:100F500010B5144C6368002B04D00A211248FFF727
:100F600033FE10BD2300114A1021206800F0F0FA72
:100F7000032000F0ABF9032000F098FA03200C499D
:100F800000F0E4F9FFF788FB0A4B9C460323237526
:100F9000D0231B061B6860446375074B80006060AC
:100FA000DC60DAE7100D0020EC190020310C001095
:100FB000950D001040000034D819002000487047FB
:100FC000100D0020F0B54E464546DE465746E0B5CA
:100FD00085B0019310AB1B7806000393002399465C
:100FE000984600927268EFF3108B72B61368002B6C
:100FF000FCD0BFF35F8F3568AC7B002C3DD0670021
:101000002B683F19033FDB195A78AA73002A00D1D5
:10101000EA73B168474A8C4600980199A2181201F8
:101020006244106051600E9991600F99D160424600
:101030009A705A701A706B7B9A46002B67D0220008
:101040001900A8686B6898472A68002852D0534650
:1010500050465B005344D719033BB870D118D35C9A
:10106000002B00D07B7053460C706B7354454FD0EF
:10107000F3681B19013B187800E000207368BFF388
:101080005F8F42461A608BF31088002C4FD04B467E
:10109000002B08D10002204305B0F0BCBB46B2468D
:1010A000A946A046F0BD039B002B3ED00E9B00201E
:1010B0000F999847030004000D000B4335D0002919
:1010C0000ADA009A019B121BAB4100920193002B9C
:1010D0000ADB039B994685E700F004F924184D418B
:1010E00000940195002DF4DA0123134C5B42009328
:1010F0000194EEE753465B005344033BD3189C70C6
:10110000D119D25D002A00D05A7053460B706C730F
:10111000307D009A019B00F05FF981460028A7D03E
:101120002100306800F07CFBA2E70020B4E701203A
:101130004042B1E7FFFFFF0FFFFFFF7FF0B5EFF386
:101140000583CE46474680B505000C0085B0002BD0
:1011500012D02C4A0020536A9C4203D8926A013074
:10116000AA4204D305B0C0BCB946B046F0BDE01AEF
:10117000421E9041C0B2F5E7234E02930193234BE8
:101180000200009330000B00FFF71CFF031EE0DDA0
:1011900020BF7168EFF3108772B60A68002AFCD08E
:1011A000BFF35F8FDAB294463068427B62451DD050
:1011B000FF221A40510089460168914488464946F9
:1011C000414403398978002913D0F1681B0A884605
:1011D0004244013A1278DBB29A420FD07368BFF3EF
:1011E0005F8F00221A6087F31088B2E7FF221A404F
:1011F000EBE732699342F1D13161EFE7614600F0EC
:101200000FFBEBE700400540100D0020650C0010BF
:10121000F0B5EFF30582D6464F4646461000C0B5FE
:101220001038EFF3108872B6214C2368002BFCD0E5
:10123000BFF35F8F0123190081401E4D1F006963BA
:10124000AA461D4D29601D4D2E78AC463500C5407F
:101250002F402B4209D1BFF35F8F276088F310889E
:10126000E0BCBA46B146A846F0BD5346144D5F6A8D
:1012700083005D59AF420ED3124A8E439B5862469B
:101280001670BFF35F8F0022226088F31088002B56
:10129000E6D09847E4E70C4B92009C466244136802
:1012A0001360BFF35F8F0023236088F31088D7E7B4
:1012B000280100D0004005403C700540101A002075
:1012C000F019002038150020D03F054010B501006E
:1012D000024A0348FFF762F910BDC04618470010E4
:1012E0000E1A0020034B596A0A00986A596A8A420A
:1012F000FAD170470040054070B504000D00124A55
:10130000536A1900966A536A8B42FAD13000190069
:1013100024184D41AB4211D80ED02B000A494A6A1D
:101320009A42FCD307D1084A02E0516A994202D19D
:10133000916AA142F9D370BDA642EED901230124DE
:101340006442E5175B42E9E70040054070B50400E0
:101350000D00EFF3108672B61A4A1368002BFCD00A
:10136000BFF35F8F002D1BD02000FFF7C3F9164994
:1013700081420AD02000FFF7C5F901212000FFF7C4
:10138000A7F90123A340114A1360114BA400E550B3
:10139000BFF35F8F00220B4B1A6086F3108870BD7D
:1013A0000B4BA200D5500122A2400A4920000B7825
:1013B00093430B700449FFF7C3FA00212000FFF7A5
:1013C00087F9E5E7280100D01112001038600540C8
:1013D00038150020101A0020F0B54F46D646464674
:1013E000C0B507002C4C616A0D00A66A616AA9426B
:1013F000FAD18B4208D805D00120E0BCBA46B146EC
:10140000A846F0BDB242F7D9EFF3108A72B623486E
:1014100001680029FCD0BFF35F8F0125BD40204942
:101420001D4C8846097889462943C9B28C464146F5
:1014300060460870391D1B48890065630A51B90070
:101440000B50216A0020294219D0616A0800A66A5F
:10145000616A8142FAD18B4219D801D1B24216D8C1
:10146000CC4516D00C4B1F201D625D630123074045
:10147000BB400D4A1E38136043464A461A70BFF3FC
:101480005F8F0022054B1A608AF31088B5E70020B1
:10149000F5E70120F3E7C04600400540280100D0F1
:1014A000101A0020F019002080E200E0EFF3108C09
:1014B00072B60A490B68002BFCD0BFF35F8F012383
:1014C0008340074A0748136202789A430270BFF3C9
:1014D0005F8F00230B608CF310887047280100D0C9
:1014E00000400540101A002070B5050014001600D9
:1014F000002915D00C00002A12D080686B6898472C
:10150000296800280ED073009B196200033B121952
:10151000CB18033A9C7088188A5C002A15D1067093
:10152000200070BD63001B197200033B9219CB1899
:10153000033A9E7088188A5C002A02D10470340035
:10154000EEE75A7004703400EAE75A700670E7E775
:1015500030B583600023CCB243730133047342601F
:101560008373C4730D000068012C06D9421C01333B
:10157000DBB2137003329C42F9D1FF2129404B00AA
:101580005918002340180338437030BDF8B5CE46D3
:10159000474606000C0080B5002907D04D000368BF
:1015A0006D18033D5A195778002F04D12000C0BC94
:1015B000B946B046F8BD7900C91903398846434495
:1015C0005978894600215970517073683A0021009A
:1015D000806898473368002814D042469A1894705F
:1015E00059195B5D002B00D053700F7027004946DE
:1015F0003000FFF7CBFF390002003000FFF774FF27
:101600000400D3E7424641465D19AF709A185B5C0F
:10161000002B00D06B701470E9E7C046F0B5574658
:101620004546DE464E46E0B50D006B0001685B198D
:10163000DF1E0400C85D83B00192CA19002850D093
:1016400043001B18033BCB185E78B446002E1AD11A
:10165000019E002E42D0E67B002E04D073009B1921
:10166000CB18033B5D70A37B002B00D1A573E57302
:1016700000282FD10023537003B0F0BCBB46B24604
:10168000A946A046F0BD72006244033A89184A7820
:10169000904600224A7091465A70010032002000A4
:1016A000FFF722FF43468246002B07D05B002168EC
:1016B0004344033BCB185A78002A16D14246514680
:1016C0002000FFF711FF2168019BCA19002BC2D12E
:1016D0000028CFD043001B18033BCB180021997082
:1016E000C8E7019B002BB6D1C4E75000801803382F
:1016F000091848788346484648705870414620008B
:10170000FFF7F2FE594680462000FFF73FFF4146B3
:1017100002002000FFF7E8FE8046CFE7F0B557460D
:101720004546DE464E46E0B583B00191457B040058
:101730006B0000685B19DF1EC15DC219002952D021
:101740004B005B18033BC3185E78B446002E1CD1D7
:10175000019E002E44D0E67B002E04D073009B191E
:10176000C318033B5D70A37B002B00D1A573E57309
:10177000002931D1002328005370617303B0F0BCFD
:10178000BB46B246A946A046F0BD72006244033A89
:101790008018427890460022427091465A7020008C
:1017A0003200FFF7A1FE43468246002B07D05B00C4
:1017B00021684344033BCB185A78002A17D142468C
:1017C00051462000FFF790FE019B01002068C219DE
:1017D000002BC0D10029CDD04B005B18033BC318B0
:1017E00000209870C6E7019B002BB4D1C2E75000DF
:1017F000801803380918487883464846487058705E
:1018000041462000FFF770FE594680462000FFF752
:10181000BDFE414602002000FFF766FE8046CEE78F
:1018200070B5040000292CD0437B8B422ED0056874
:1018300048004018033828188278002A21D0530025
:101840009B18033BEA5CEE188A4202D11BE0002A97
:1018500008D053009B18033BEB185A788A42F6D104
:1018600042785A7000230122837043702000FFF7F2
:10187000D5FE617B02002000FFF736FE6073012079
:1018800000E0002070BD43783370EBE701221900BF
:10189000FFF7C4FE60730120F4E7C046F8B5CE46FA
:1018A0004746040080B506200E0000F023FA051E0E
:1018B00051D0524B5249E21853425A418023DB0324
:1018C0009C4692054F4B62441A604F4B1A601000C1
:1018D0008B689843FBD1494B8021E3185A4253410E
:1018E0004A4A5B0049009952062000F003FA310091
:1018F000C00000F067FBC30932D1402201219046AD
:101900006162A362256BEB0736D427008026E36A69
:1019100000232C3776013E4333600620256300F018
:10192000E9F94146800000F04DFB236B0500984625
:10193000DB073BD46022E36A5A406E2313403360D6
:1019400043462363802310229B013B431A60304BA4
:1019500023630323A3642800C0BCB946B046F8BD86
:101960002C4A93423FD900232B492C4A6162A3623F
:10197000256B9046EB07C8D52200C02330329B016F
:101980001343234A06201A60666AA26AB601B61893
:1019900000F0B0F9224900F015FBB602010030005A
:1019A00000F010FB0021FFF7A7FCAEE72200C023E8
:1019B00030329B011343164A06201A60636AA26AFA
:1019C0009B019946914400F095F94B4614499B02BE
:1019D000994600F0F7FA0100484600F0F3FA0021BA
:1019E000FFF78AFCA6E77F22990188461040013064
:1019F000400819008044030082E7C0460080FCBF15
:101A000000C0004000E0004000F00040001A00204C
:101A100001030000FEFF0000FFFF0000C0FF3F00C9
:101A20004E0E000030B50C2083B000F0B9F9FEF77F
:101A3000A7FD00280ED0994B994A1A605A609A6007
:101A4000DA601A615A619A61DA611A62954A5A62D9
:101A500003B030BD944CA06700F0AAF90122934B6B
:101A60001A60636C012BFCD10322914B1A608E4AE1
:101A7000936B012BFCD1013301218E4A8E480093D8
:101A8000043300F03DF905238C4A009301218C4872
:101A900000F036F98B4B5A68FF2A02D88022520098
:101AA0005A6080227D4C824B21691201854D1A605B
:101AB000002907D0606900F085FA431C5800C0185F
:101AC0000338FDD2E0217F4B02201A6811408022AA
:101AD00052012A43116019684840032101401160F6
:101AE00004219A681142FCD08022802192012A436D
:101AF00009011160802252005A60734B2361734BBD
:101B00005968FF2900D85A600321684A6F4B116059
:101B100002399A681142FCD0E0201A6810408022F5
:101B200052011A4310601868484003210140022006
:101B3000116066498A681042FCD0802292011343EA
:101B4000802212011A608022614B52004A60636158
:101B5000604B5968FF2900D85A6080225E4BE169CA
:101B600012015C4D1A60002907D0606900F02AFA62
:101B7000431C5800C0180338FDD2E02255490B68B9
:101B80001A4080235B012B431A60802380229B0133
:101B90002B4312011A608022414B52004A60E361DC
:101BA0004E4B5968FF2900D85A6080224C4B216A5D
:101BB00012014A4D1A60002907D0606900F002FA4C
:101BC000431C5800C0180338FDD2E02243490B687B
:101BD0001A4080235B012B431A60802380229B01E3
:101BE0002B4312011A60802380225B004B602C4B38
:101BF000D20223623B4B5968914200D25A60802244
:101C0000394B616A1201374D1A60002907D06069AB
:101C100000F0D8F9431C5800C0180338FDD2E02268
:101C200030490B681A4080235B012B431A608023E4
:101C300080229B012B4312011A608023DB024B6040
:101C4000184B6362294B5A68FF2A02D8802252003F
:101C50005A608022264BA1691201244D1A60002986
:101C600007D0606900F0AEF9431C5800C018033873
:101C7000FDD2E0221D490B681A4080235B012B43F3
:101C80001A60802380229B012B4312011A6080235B
:101C90005B004B600E4BA361DAE6C0465415002092
:101CA000006CDC021BB70000008000403CB000402C
:101CB00030B00040002F685900800240008C8647F9
:101CC00000C0024030800040001BB7003C80004054
:101CD000405973075480004054B000406080004079
:101CE00060B000406C8000406CB000404880004014
:101CF00048B00040014B8000C05870475415002088
:101D0000F8B5040021481D0017000E0000F05AF934
:101D10000100380000F056F9069B29041B03194303
:101D20002368002B20DB1A4B1A4DE21853425A410C
:101D300080235B019C461203174B62441A60174BC9
:101D40001A601700AB689F43FBD1C022231D92018C
:101D50001A4321232660A06013602368002BFCDA5D
:101D60000823E1601360F8BD3F2322681340B342AB
:101D7000D9D1A3681B051B0D8342D4D1EE22E368A1
:101D8000D20213408B42CED1EDE7C046001BB70014
:101D90000040FDBF00C0004000E0004000F00040F7
:101DA0008023024A9B000343D362704700800540B2
:101DB000AA23064A1B0113602F230549D360054B54
:101DC00019605368002BFCDA7047C046004002409F
:101DD00000B0FA00006002402C4B2D4A70B51A602A
:101DE0002C4A2D4B2D491A6014008B689C43FBD163
:101DF0002B4D2C4EB54208D2013E761BB60808CDBD
:101E0000984723000134B342F9D1FFF70BFE264A6D
:101E1000214B1A60214A9368DB43DB01DD09002B6B
:101E2000F9D14022214B224C224E9A675A671A67F9
:101E3000DA66B44208D223682000002B20D0083490
:101E4000FEF7D8FEB442F6D31B4E1C4CC022A1684C
:101E5000300000F0ADF9A660FEF710FCFEF7A2FE20
:101E6000FFF776F8164C174EB44208D2013E361BE7
:101E7000B60808CC98472B0001359E42F9D170BDB9
:101E80000834FEF7A9FEB442D5D3DDE700E00040F8
:101E9000BFCDFBFEFE7F3C0000F0004000C00040D4
:101EA000A80D0020B80D0020FFFFFF0100F0014049
:101EB000A00D0020A80D00200000002000ED00E093
:101EC000B80D0020C00D002000BEFDE710B5FFF7E3
:101ED000FBFFC0460FB400B5084883B000F09AFA83
:101EE000049B002B07D005A91800019100F018F8F9
:101EF000034800F08FFA0120FFF7E6FF3C4700108F
:101F00004C47001010B50148FFF7E4FF50470010A0
:101F100010B5002800D110BD00F030FAFBE7C04634
:101F200010B5094A0300146884B0002C08D00122BF
:101F300000910648524203A9A047012004B010BDF9
:101F400000F068FA0020F9E7CC190020111F0010FA
:101F500001480421014B1847400D0020811F00104B
:101F6000142310B50100188804331B88984710BD4E
:101F7000162310B50100188802331B88984710BD3E
:101F8000F8B54746CE4680B50F1E19D014239946A2
:101F9000043304000025012698464B461888434622
:101FA00021681B88984701C4431E9841013540426F
:101FB0000640AF42F1D13000C0BCB946B046F8BDD2
:101FC0000126F8E7114A936F9B0813D210665166F9
:101FD000002905D0FFE7FFE7FFE7516F106F70475B
:101FE00004B5002801D00020C04302F0D5FA00213A
:101FF00004BDC046F0B5146E556E576F166FFFF7EF
:10200000E5FF1466556657671667F0BD000000D0FF
:10201000132370B51D78012D15D010DD1C48FFF776
:10202000A7FF1C4C01008022200000F0C1F8022D07
:1020300006D01948FFF794FF184B186070BD154C77
:10204000174BA364F5E7164B124C23606360A36043
:10205000E36023616361A361E36123626362A3625E
:10206000E36223636363A363E36323646364A3643E
:10207000E36423656365A365E36523666366A3661E
:10208000E36623676367A367E367A364D1E7C0469A
:1020900053440000D00E00204C330000E81900200B
:1020A000A520001007B5604601880A0A0230DF2A21
:1020B000FAD1C9B2820804D30288408800041043D0
:1020C00000E00068014A5050039007BDD00E002088
:1020D00051434343C9188C46110C83B24B4310B48F
:1020E000040C614392B280B2504362431C041B0C47
:1020F000001910BC59411304120CC018514161441D
:1021000070470000132310B512481C78FFF730FF0A
:102110000100012C0AD003DD80220F4800F048F8AE
:102120000E48FFF71DFF0E4B186010BD0A4C5422DD
:10213000200000F03DF80B4B6365A365E365236663
:102140006366A366E36623676367A367E367236247
:10215000E361E5E753460000D00F00204C33000058
:10216000E81900206921001007B5604601880A0AB5
:102170000230DF2AFAD1C9B2820804D3028840882B
:102180000004104300E00068014A5050039007BD6E
:10219000D00F002001480421014B1847500D0020AA
:1021A000811F0010014B1B6818470000500D0020D4
:1021B000014B5B6818470000500D0020030010B56C
:1021C000080011001B68984710BDC046F0B5464690
:1021D0004F46D646C0B5437D80460E001700002B03
:1021E00046D0002A3FDD4B1E9946244B0125002492
:1021F00000209A460DE04B461B5D0D3B5A42534171
:10220000325DDBB20A2A0BD02B00013401359F422C
:102210001ADD002CEFD14346325D1B7D0A2AF3D133
:10222000002BF1D1A04204DA4346211A1B68301872
:102230009847434650461B680221984701342800BE
:102240002B0001359F42E4DC874204DD4346391A06
:102250001B6830189847F619013E33780D3B5A42F7
:10226000534142461375E0BCBA46B146A846F0BD9C
:102270000368110030009847F5E7C046D0470010CA
:10228000F0B5DE4657464E464546E0B585B01700E8
:102290001C0006000D00FFF725F80023304A121835
:1022A0004B41002B58DB2F4908008A4602F08CF97D
:1022B00001906B1C03D1300002F034F90500002CB2
:1022C00025D1294B9846294B1C68002C15D0002F8E
:1022D00020D1274F02E02469002C0ED02368002B68
:1022E000F9D03B68002B01D0A342F4D120002A0092
:1022F0003100C0472469002CF0D1019B002B27D16D
:1023000005B0F0BCBB46B246A946A046F0BD194B8D
:102310009846D8E7164B994602ABDF1D0A239B4629
:1023200002E02469002CE8D02368002BF9D04B464A
:102330001B68002B01D0A342F3D12A0031002000FA
:10234000C0475B460122390020003B70C047E8E7E8
:10235000504602F019F9D3E70122074B5242A2E797
:1023600040420F00A00D0020CD210010BC15002020
:10237000C4150020BD210010FFFFFF7FF0B5CE4641
:10238000474680B583B06B460600DD1D2870FEF71A
:10239000A9FF00231A4A12184B41002B2BDB1949C5
:1023A0000800884602F010F9174B81461C68002C83
:1023B00014D0164F02E02469002C0FD02368002BA4
:1023C000F9D03B68002B01D0A342F4D120000122B8
:1023D0002900FFF7FBFE2469002CEFD14B46002BB0
:1023E00005D1300003B0C0BCB946B046F0BD404690
:1023F00002F0CAF8F5E70122054B5242CFE7C0468A
:1024000040420F00A00D0020BC150020C415002084
:10241000FFFFFF7F70B5040002F084F80023010085
:10242000050001222000FFF72BFF084B1C68002C41
:1024300006D06368002B05D098472469002CF8D19A
:10244000280070BD2469002CF3D1F9E7BC150020E9
:102450000A4A1368002B05D10CE01A001B691032E0
:10246000002B07D09842F8D1002902D103691360EC
:10247000016170470029FCD01060FAE7BC1500200C
:10248000F0B50D1E15DD0E4B0D271A680D4B4519C5
:10249000D31859424B410C495B005E5E2021047801
:1024A000A64207D093691942FCD101301460A842BA
:1024B000F5D1F0BD93691942FCD11760F2E7C0462F
:1024C000081A00200080FCBF001A002030B504006C
:1024D0000D1E26DD002010211B4B013C1A6893695C
:1024E000194219D1013093691942FCD11368235460
:1024F0008542F4D1154B1B68002B0CD050239363FD
:10250000516B183B34320B401100802252010A43B8
:102510001360002815D030BD0C4B1B68002BEDD18B
:10252000F7E70A4B1B68002B0BD050223821064BD3
:102530001B689A635A6B3433114080225201134353
:10254000196003204042E6E7081A002048150020E1
:10255000064B10B51B68002B06D00021044A1268F8
:102560009163044A1068984710BDC0464815002082
:10257000081A00204C1500201D4BF0B51A68C646FD
:1025800098461C4B0E00D31859424B411A4F143336
:102590001C00050000B53B68002807D0002B11D0B7
:1025A000164B3D601E6080BCB846F0BD002BF7D0D6
:1025B000906300212000FEF78BF820001049FEF701
:1025C000BFF9EDE720000E49FEF79CF8012120003D
:1025D000FEF77EF84346502238211B689A635A6BF7
:1025E000343311408022520113431960D8E7C046AA
:1025F000081A00200080FCBF481500204C15002060
:102600005125001070B50C4E0D001C003060002AE2
:1026100003DB02211000FDF737FF002C03DB022152
:102620002000FDF731FF29003068FFF737F901215D
:102630000248FFF70DFF70BD081A0020600D002052
:1026400010B5114C114B22689A4210D1104B6268A0
:102650009A420CD10F4BA2689A4208D100230E482F
:102660002360FFF77DFC0021030000209847074B03
:1026700000212360064B09486360064BA360FEF708
:102680003BFE0023236010BDC00D0020DE8116F04C
:10269000299B72BD7ABE59D355420000400D0300FC
:1026A00010B51920FDF74EFFD0238022E1211B0633
:1026B00092045A620448054B002218604902012323
:1026C000FFF7A0FF10BDC04600400340041A0020E1
:1026D00010B501210520FDF7FBFF10BD10B500224C
:1026E0000021024800F05AF910BDC046EC15002048
:1026F0008022024B5202DA647047C046002011501B
:10270000F0B5C64600B5060000F022F90C231B4DBB
:10271000FF22AB6705201A49FEF71EF840239846B2
:10272000184C402200212000FFF73CFD43460127C2
:10273000238321210023144A6770A260136063542D
:102740005F31618441462187053963540F4A10493E
:102750006360E260A1620B606362E26201F05CFFB1
:1027600080239B052F64EB6490230A4A3000EA50D3
:10277000FFF7BEFF80BCB846F0BDC0460000115058
:1027800079030020CC150020840010500001105067
:102790008000105010D001000B785B0602D14B78FE
:1027A000052B00D070478A78014B1A60FAE7C046C3
:1027B00000001150F0B5C64600B54B790C791B02EC
:1027C00088782343CC787F21A4070140C509A20F54
:1027D0004F001400324E7A195201B2189070012045
:1027E0006840507000205B055B0DD0701383D47679
:1027F0008046CA00012D33D02A48844688016244AD
:102800008446B4446046826040461060002933D05C
:10281000254AC90090466246414451603F223F33F9
:102820009343022C00D15B0020487A1901685201C1
:10283000B218D1601E4ACB18036051405340802229
:1028400088465201934228D84346A4061C4380235D
:102850007F197F011B06F6191C4373681C6011E089
:1028600014488446880162448446B44460468262C7
:1028700040461060002909D100236D01761973606C
:102880000D4BF360012080BCB846F0BD084AC9007A
:102890009046624641445162C0E7FFF733FBD3E7FD
:1028A000CC1500208400105004001050D0190020D6
:1028B00000001050800010500001105010B501F0C1
:1028C000ABFE10BD10B57F200C0020404000E40995
:1028D000110000191A00034B4001C01800F05EF807
:1028E000012010BDCC1500207F22130010B50B4035
:1028F0000A420BD0C90980225800401806494001FD
:1029000040181201002101F07FFE10BD0222034891
:10291000C909521A8266EEE7CC150020002011503A
:102920007F22100010B508400A4200D110BD0023DC
:10293000C909400040180449400108180022034911
:10294000C37001F061FEF1E7CC150020FFF7FFFF37
:1029500080220D4B520410B51A600C4B0C491A60C2
:1029600010008B689843FBD10A4C9C220021200068
:10297000FFF718FC8022002152010748FFF712FCE4
:102980000923636710BDC04600E0004000F000402E
:1029900000C00040000011500000105070B5837E50
:1029A00004000D001600002B17D10023E382013331
:1029B0002000A682A376256101F01EFE002804D027
:1029C00080219023084A8902D150200001F0ECFDBB
:1029D000002805D00123237770BD01F005FEE4E750
:1029E000200001F0F9FDF7E700201150024B587864
:1029F000431E9841C0B270471C140020024B187847
:102A00004007C00F7047C0461C140020034B1878C5
:102A1000FF38431E9841C0B27047C0469C0D00204D
:102A2000F8B5CE46474680B52C4E050033780120D8
:102A3000FF2B03D0C0BCB946B046F8BD53220021DD
:102A40002748FFF7AFFB274C2000FEF7C5F8264BC1
:102A50001C60264C20001430FEF7DAF8200001F04C
:102A600035FC234B234F1C60234B9846002B04D08E
:102A7000380000E000BF214B1860424600243B783C
:102A8000002A23D01E4A90461C4A9146A34212D8DF
:102A90000FD14346984701343B78E4B2A342F5D2C4
:102AA00028003570FFF72CFE2800FFF711FE0120EB
:102AB000C0E70020BEE74A461268630094461B192F
:102AC000DB006344002BF4D01B68E3E700F0AEFEAC
:102AD0003B780020002BADD1E2E7C0469C0D0020E2
:102AE0001C140020D413002070140020800D00203E
:102AF000741400200C1A002000000000EC100020CC
:102B00002D380010F0B5DE4657464E464546E0B536
:102B10008BB001F013F9002800D10FE1C74BC84D6D
:102B20009946C84B07AC9B462E687269EFF310813B
:102B300072B61368002BFCD0BFF35F8FB161300019
:102B4000210001F005FA7269B369BFF35F8F0021BC
:102B5000116083F31088002800D1EFE06378082B20
:102B6000E2D84A469B00D3589F466368002BDBD0CF
:102B7000A0689847D8E77F222179B24E0A405000DA
:102B8000CB093618F618300001273030C378BB4324
:102B9000C370C3780337BB43C370002A00D1F2E08F
:102BA000A94AF37C002A06D0A84A1278934200D2A0
:102BB00060E19B1ADBB2002B00D0BFE0A44E62792B
:102BC0002078A368B047AFE75B4601221B7801215C
:102BD00013435A46137033235846D25C5E468A43E9
:102BE000C254C25C04208243F2540133F25C8A4333
:102BF000F254F25C8243F254237800209A4600F0AB
:102C0000E1FC602223791A40602A0DD0402A00D1CD
:102C1000BFE0DB06DB0E012B00D136E1022B00D139
:102C2000D4E0002B00D1C3E020780021FFF75CFE48
:102C300080212078FFF758FE76E7824E3378DB0755
:102C400000D471E7834B002B00D16DE700E000BF9B
:102C50006AE77C4E3378DB0700D465E77E4B002BB8
:102C600000D161E730780007C00F00E000BF5BE7EC
:102C7000764B754A9846002627781B78002A00D1A3
:102C800079E0764A92469E425FD319D1744B380060
:102C90009847434601361B78F6B2B342F3D2694EE9
:102CA000532200213000FFF77DFA1022FF21F01C93
:102CB000FFF778FA30002022FF211330FFF772FA75
:102CC00000F076FC674B002B00D12DE700E000BF41
:102CD0002AE75E4B5C4A9846002627781B78002A34
:102CE0001FD05E4A92469E423AD321D15C4B3800B7
:102CF0009847434601361B78F6B2B342F3D2514EA1
:102D0000532200213000FFF74DFA1022FF21F01C62
:102D1000FFF748FA30002022FF211330FFF742FA74
:102D200007E0380000F004FE43461B78002BE6D095
:102D3000444E00F03DFC2379B370F5E60BB0F0BCD7
:102D4000BB46B246A946A046F0BD52461268730083
:102D500094469B19DB006344002BB1D05B6896E777
:102D600052461268730094469B19DB006344002BA3
:102D7000DED05B68BBE7380000F0DAFD43461B7825
:102D8000002B9DD18BE762792078A36800F02EFCA0
:102D9000CAE63548002800D146E700F013FC0121BF
:102DA000504608AA00E000BF002800D0BCE63BE780
:102DB000202A00D19EE0002A00D035E76379092B54
:102DC00000D931E7294A9B00D3589F467023217AC6
:102DD0000B4200D028E758460F330B405B00CE096A
:102DE000C018194F8019C07C002F06D0174F3F78AC
:102DF000B84200D2A0E0C01BC0B2002800D096E0CC
:102E0000002A00D047E11A4F02206279904682439F
:102E1000012A00D142E14246002A00D004E75B4487
:102E20009E193036F37806AA9B07DB0F0232138017
:102E30005046022308A900F05DFB75E678480010B3
:102E4000741400201C140020000000000C1A002044
:102E5000CD3B00100000000000000000EC1000203E
:102E60003139001000000000000000009C480010F4
:102E7000044900105A00D318B14ADB001268D31875
:102E8000002B00D15AE71E6999E6237A0F2B00D94F
:102E9000CAE6AC4A5B44DB78002A05D0AA4A12781D
:102EA00093425ED39B1ADBB2002B00D0BCE6A7484E
:102EB000A74E00F087FB01215046F36808AA984707
:102EC000002800D030E66022160023791E401A4206
:102ED00000D0A9E663790A3B012B00D9A4E600F0F3
:102EE00071FB63790A2B00D120E1504608A900F05C
:102EF000E9FA19E6237A0F2B00D995E6914A5B444B
:102F0000DB78002A06D0904A1278934200D2E6E09D
:102F10009B1ADBB2002B00D086E68C488C4E00F06A
:102F200051FB01215046F36808AA98473CE7002767
:102F3000002A00D168E777E647003818804FC000C4
:102F40003F683F18002A00D15EE7002F00D16BE6F2
:102F5000F86800F037FB01215046FB6808AA984743
:102F600022E7774A5E00F3181668DB00F618002E99
:102F700000D159E6F0689CE7A279019273789A42F1
:102F800007D07378002B00D046E1019B002B00D0C6
:102F9000EAE05B46019A504608A95A7000F092FA9E
:102FA000C2E5737806AA023213705046012308A9BD
:102FB00000F0A0FAB8E5E088030AC0B20F2B00D9F0
:102FC00032E664499A008A58974608A800F000FB48
:102FD0005046A179FFF782FB022233781343337006
:102FE000A2E5E388012B00D01EE608223378934344
:102FF0005A46137079E70220317806AB9A1C8B068B
:103000008908DB0F01400B4311E7E388012B00D057
:103010000AE6082233781343EAE74F4B002B00D12E
:1030200002E600E000BF021E00D1FDE5D3789178F2
:103030001B020B43504608A900F05CFAB4E6474B6C
:10304000002B00D1F0E500E000BF021E00D1EBE54F
:103050005046137808A900F04DFAA5E62189FDF73E
:10306000D3F9021EF4D1DFE5022B00D112E13C4B73
:10307000002B00D1D8E500E000BF0200002A00D1FB
:10308000D2E5D3E7FDF7B8F91223020008A95046AC
:1030900000F030FA88E62D482D4F5AE7E288002AE2
:1030A00008D142465B449E193036F378012A21D07C
:1030B0009B072ED5002F00D136E5F86800F082FA84
:1030C000FB6808AA012150469847002000F07AFAD0
:1030D00034235A46D35CDB0700D525E505E7184ABB
:1030E0005E00F3181668DB00F618002E00D19BE591
:1030F000F06814E79B07DDD51A4B1878FFF710FC32
:103100000222F37893434246F370F3789343F370CB
:10311000D0E7144B1878FFF7E7FB0222F37813434C
:103120000122F370F3781343F370C3E706AB9A1CE4
:103130005046012308A9167000F0DCF9F4E4C046FB
:10314000EC100020000000000C1A0020D53A0010FE
:1031500004490010C44800100000000000000000F6
:10316000000000009C0D0020581EC0B2FDF748F979
:10317000002800D158E543780593022B00D053E591
:103180000121C2790700931152110B400A4012012C
:103190005B0113435A4612782F318A4313435A4630
:1031A0001370C37882781B021343C3180937039343
:1031B000039BBB4200D8ACE001227B7800920B2B32
:1031C00003D1FB7800933B78FF187B78042B00D069
:1031D0002AE50026039B584ADB1B9BB20293574B00
:1031E00004931B78B24263D0B846B34256D800D09D
:1031F0001AE5534B534F41465046029A98470828C8
:1032000003D9029A824200D38AE0049B01361B78DC
:10321000F6B2B342E9D207E55046FFF74FFBB37869
:10322000454A0093454B002698461B78002A0DD04E
:10323000454FB34225D820D1444B5046984743468A
:1032400001361B78F6B2B342F3D206E0504600F0E6
:103250006FFB43461B78002B0FD1532200215846A9
:10326000FEF7A0FF5B461022FF21D81CFEF79AFF55
:103270002022FF213648FEF795FF5B46009A9A70A0
:1032800083E618233A68734394466344002BF4D0D2
:103290005B68D2E7FDF7B4F80200EFE62A4B1F683F
:1032A00018237343FF18002F00D1BDE4BB68A2E7C9
:1032B000029B39001A005046984600F065FB08282A
:1032C00000D8B1E44246824200D2ADE41D4B98469C
:1032D000009B012B28D000220AE0BB78D318DBB278
:1032E0005B44D978FF2900D09EE40132DE70D2B26F
:1032F000009B9A42F1D18046330002003900144805
:1033000000F0A0FD049B47441B78B34200D34FE775
:103310008AE4104B002B00D13BE600E000BF38E60A
:103320003B0047469846D3E74246054B92689A428F
:10333000D1D1059B0093CEE7000000000C1A0020BD
:103340008939001004490010EC10002031390010B8
:103350002F14002000000000F8B557464E46DE4608
:1033600045460C00E0B516001F00002A3CD0702333
:1033700098461E4B00259B461D4B9A461AE05B461D
:103380001B78200099465346997800F01FFD0028CD
:103390001CD021004846FFF70DFA002816D0A3786C
:1033A000DA09012A19D00A9A013513702378E41832
:1033B000B54219DA6378052B08D1E3789B079B0F98
:1033C000BB4203D14246A3781A42D8D00020F0BCB9
:1033D000BB46B246A946A046F8BD0B9A013513700C
:1033E0002378E418B542E5DB0120F0E79C0D0020CE
:1033F0001C140020702270B58B780C001A4201D08A
:10340000002070BD064B20001D78064B997800F017
:10341000DDFC0028F4D021002800FFF7CBF9F0E70D
:103420009C0D00201C140020074B080019687F2306
:1034300010B50340C0095B0033301818034B18184F
:1034400000F080FC10BDC046701400201C14002049
:10345000074B080019687F2310B50340C0095B00C3
:1034600033301818034B181800F094FC10BDC046F8
:10347000701400201C1400207F2070B508400F4CF1
:103480004000CD09241864193034E5780020ED0798
:1034900000D570BD0126E578094835430078E57010
:1034A000FFF710FA0028F4D10122E3789343E37088
:1034B000E37803329343E370EBE7C0461C1400202B
:1034C0009C0D002070B50A4E0500300008220C004B
:1034D000FEF76EFE00237F21F3602278B3609142F5
:1034E0005B412800D90100220023FFF7C5FF70BD12
:1034F00080130020F8B5CE46474691462A4E80B547
:103500000822070030000D009846FEF751FE4B469A
:10351000B3600023F381EC79A97924020C43231CC6
:10352000444500D943469AB29046B381002C13D04B
:10353000002A1FD04B46002B34D0131C402A1FD822
:103540009BB2984633787F2B20D80021174A4346F8
:103550003800FFF791FF09E07F222B7838009A426C
:10356000644100230022E101FFF786FFC0BCB94699
:10357000B046F8BD33787F2B11D980210022E6E7D1
:1035800040239BB2984633787F2BDED9074C4246C6
:1035900049462000FEF70CFE80212200D7E70021DB
:1035A0000022D4E70020E1E780130020DC13002094
:1035B00010B5142200210248FEF7F4FD10BDC046EC
:1035C00080130020014B18617047C0468013002013
:1035D00010B5054C010008222000FEF7E9FD00238C
:1035E000A360E36010BDC04680130020F8B53B4CDB
:1035F0001D0023780600DA09C9098A4213D0002089
:10360000002D00D0F8BD364B002B03D02100300038
:10361000FFF7C2F82369002B44D0220003213000B9
:1036200098470120EEE77F2B06D8A068002837D006
:103630002A002C49FEF7BCFDA368E28959195219EA
:10364000E38892B2E281A160934214D03F2D12D957
:10365000A589A81A071C80B240282FD82378BFB2AA
:103660007F2B2DD80021AA4235D01E4A3B003000C6
:10367000FFF702FFC6E72369002B05D022000221D5
:103680003000984700280FD07F2200212378300097
:103690009A42494100230022C901FFF7EDFEB1E73C
:1036A0000020AFE70120ADE700213000FFF71CF953
:1036B00030008021FFF718F90120A3E74027CDE76C
:1036C000AA4207D0074C3A002000FEF771FD802186
:1036D0002200CBE780210022C8E7C04680130020EB
:1036E00099270010DC130020020083001B1810B57E
:1036F000D8008018034BC0001030C01800F0F4FB55
:1037000010BDC046F0100020F0B584002418E4007D
:103710002418E4002600C646174F1036F61900B5E7
:10372000300092B200F064FC0500300000F0FAFBBB
:103730003F2803D8280080BCB846F0BD3B190020C4
:10374000D9789846FFF770FE0028F3D0300000F0DB
:10375000E9FB3F2809D922004346C832D978D2195B
:1037600040230020FFF788FEE4E743460020D97895
:10377000FFF76EFEDEE7C046F0100020F8B505004A
:10378000FFF734F9002801D10020F8BDFFF736F922
:103790000028F9D1AB005B19DC006419E4002500B6
:1037A000134E2435AD19280000F09EFB0028EBD005
:1037B00037190020B978FFF737FE0028E4D0093424
:1037C000FF34A41921002800402200F011FCB97830
:1037D000051E08D0030022000020FFF74DFE002840
:1037E000D2D02800D1E70020FFF732FECCE7C04658
:1037F000F010002070B584002418E40024180A4B4F
:10380000E4002434E418050092B2200000F0AAFC81
:103810000600200000F068FB3F2801D8300070BD92
:103820002800FFF7ABFFF9E7F0100020F0B5D6460F
:103830004F464646A422C0B53B4C82B00021200032
:103840009200FEF7AFFCFF23002501260827210088
:10385000200063719946354B2681E3809846277393
:103860000123402238310095103000F005FB210083
:1038700020004022783100960123243000F0FCFA29
:10388000B8239A46A2445046FDF7A6F95346236250
:10389000C0239A46A2445046E561FDF79DF9534680
:1038A00023634E234A46FF33E25442460133E25239
:1038B00023004F33FF335E80A923210020005B00EB
:1038C000E5520233E75481315930543B656340225D
:1038D000FF310095FF3BFF3000F0CEFA21002000C1
:1038E000C1316D304022FF3100960123FF3000F0DE
:1038F000C3FA80239B00E6183000FDF76DF9B22370
:103900005B00E5500433E650A033E6183000FDF7C5
:1039100063F9BC235B00E6500433E55002B0E0BC21
:10392000BA46B146A846F0BDF010002000C2FFFF25
:1039300070B5144C052200212000FEF733FC250051
:1039400020002435103000F0C1FC280000F0BEFC3F
:103950002800012100F0DAFC200049300522002176
:10396000FF30FEF71FFC20006D345930FF34FF306C
:1039700000F0ACFC200000F0A9FC0121200000F0C8
:10398000C5FC70BDF0100020F0B54E46DE4657462F
:103990004546E0B54B79060085B0022B02D18B7904
:1039A000022B08D00025280005B0F0BCBB46B2466B
:1039B000A946A046F0BD464B98469B78002B00D107
:1039C00080E0A52340465B00C35C002BEAD1AC231A
:1039D0005B009A46103B9B46483BFF3B99464B4653
:1039E00044469F00FB18DB0088784B44DB00E05422
:1039F0000C7809250C196378242B0BD1082A02D8DE
:103A00000FE0AA420DD32378E418ED186378ADB225
:103A1000242BF6D0052B24D0042B02D163790A2B5A
:103A200038D056464644300000F07CFA3F28BAD9D8
:103A30004F44FC004C44E40044440020E178FFF78C
:103A4000F3FC0028AFD0300000F06CFA3F281CD9FE
:103A50005A46C8324023E17842440020FFF70CFD6B
:103A6000A1E721003000FFF7C5FC00289AD04B46A3
:103A7000FB18DB004B44A278DB0043445A702378E8
:103A8000ED18E4186378ADB2C6E7E1780020FFF7DF
:103A9000DFFC88E75A46237830000393E118931C33
:103AA00043440193D31C4344009302220223FFF7B3
:103AB00053FC002800D175E7039B0E359C466544F6
:103AC000ADB2AEE710239A4600239B46994686E79F
:103AD000F0100020F8B560231400127805001340A0
:103AE0000020202B0CD1637922791B021343334A27
:103AF00016789E4205D0A4267600965D9E420DD093
:103B0000F8BD00266378222B28D013D8202B42D072
:103B1000212B21D1012905D00120F1E749320126CD
:103B2000FF32EFE70723210028000632FFF7E2FC0F
:103B30000120E5E7232B0FD1012939D00329EBD14F
:103B40001F4B002BE8D0E178A3780902300019431D
:103B500000E000BF0120D3E70020D1E7012927D0F2
:103B60000329D9D101273D00A378E4780239240242
:103B70001C431471254024321000694000F0C6FB3C
:103B8000104B002BC8D06208300029003A4000E0FA
:103B900000BF3800B4E70129C4D00329BCD10A4BC7
:103BA000002BB9D03000911D00E000BF0120A7E735
:103BB00021002800FFF786FC0120A1E7F01000207B
:103BC000000000000000000000000000F0B54546C5
:103BD0004E46DE465746E0B5544D1E00EB78804613
:103BE0000C0083B08B4218D0AB788B4200D187E0B9
:103BF0004C23FF33EB5C8B4200D184E0A5235B00B8
:103C0000EB5C8B4200D183E00024200003B0F0BCC9
:103C1000BB46B246A946A046F0BD00239B461023F2
:103C20009A46B8339C46AC446346AA446146504623
:103C3000B2B2019300F096FA3D4B002B1BD06B798A
:103C4000FF2B18D0002E16D03200C8329146019FAB
:103C5000A94403E00137B9450DD06B793A789A420F
:103C6000F8D1504600F056F90028F3D1584669794A
:103C700000E000BFEEE72F4B002B04D0504600F0D1
:103C800049F9002849D0504600F04CF93F2810D996
:103C90000020E978FFF7C8FB00280AD0504600F062
:103CA00041F9E9783F283CD940230020019AFFF7E9
:103CB000E3FBAB78A34201D00124A6E71E4B002B07
:103CC00002D0584600E000BF5846FFF757FD0028D5
:103CD000F2D12800243000F007F90028ECD1002EA2
:103CE000EAD0B306E8D14046A978FFF79DFB041E51
:103CF000E2D0002300224046A978FFF7BDFB84E70D
:103D000000239B46D5E7012349359B46FF3586E7CF
:103D1000012349359B46FF35CBE7584600E000BFFD
:103D2000B1E70020FFF794FBC3E7C046F010002086
:103D300000000000000000000000000010B5FEF7C9
:103D400065FE10BD037870B5DB0704000E00DD0FC3
:103D5000002B17D103785B0701D5280070BD012126
:103D60003000494200F028FC2378DB07DD0F002BF0
:103D70000AD123785B0708D4042223780125134352
:103D8000237002E00025E8E70025300000F0FCFB8E
:103D9000E3E7C04670B50D00012104004942280048
:103DA00000F00AFC23785B07DE0F002B04DB280001
:103DB00000F0EAFB300070BD2378DB0704D4042256
:103DC000237893432370F2E70026F0E710B5437998
:103DD00004791B0223435B055A0DC3789B079B0F95
:103DE000022B05D0032B15D00020012B08D010BDCD
:103DF00002291CD00020402393424041C0B2F6E784
:103E000002394B4259410D4B9C466144914240411D
:103E1000C0B2ECE702394B425941F023002049423D
:103E20009B001940403191424041C0B2DFE7044B52
:103E3000D3185A425341D8B2D9E7C046FF03000015
:103E400000FEFFFF8A1870B5914207D27F264C789A
:103E5000052C04D00C7809198A42F8D870BD3400BA
:103E60008D782C4064000419ED0963550C7809190C
:103E70008A42ECD8F2E7C046F0B5C64600B5040069
:103E800006A805788020884617001E00000282429E
:103E900027D8E068002803D00121494200F08CFBBC
:103EA0002069002803D00121494200F085FB4346E8
:103EB000236073045B0CED031D430023E068638102
:103EC000A780E5802381002801D000F05DFB2069F8
:103ED0000124002801D000F057FB200080BCB84628
:103EE000F0BD0024F9E7C04610B5048941898288F5
:103EF000A3B288B28C4207D31B1A9BB2101C9A4201
:103F000000D9181C80B210BD5100091A5B189BB271
:103F1000F4E7C046030000895B89C01A4342584158
:103F2000C0B2704710B5048941898288A3B288B2B3
:103F30008C4207D31B1A9BB200209A4201D9D31A94
:103F400098B210BD5100091A5B189BB2F4E7C04645
:103F500070B5040000690E00002803D00121494219
:103F600000F02AFB25896089A288A9B283B2854224
:103F70002CD3CD1AADB2002D2ED0AA4208D2914238
:103F800031D38B1A9BB263819A4203D89B1A9BB29E
:103F90009A42FBD9E28821685204520C5343300004
:103FA000C918FEF705F9618901254B1C9BB2A2884F
:103FB000994214D9002352009B1A9BB22069638155
:103FC000002801D000F0E0FA280070BD5500ED1A7D
:103FD0004D19ADB2002DD0D1002563899BB252009E
:103FE0009342EBDBE8E789188BB26381CCE7C046EC
:103FF000F0B546464F46D646C0B50600006989462C
:104000009046002803D00121494200F0D5FA3189B9
:104010007289B5888BB294B2914257D31F1BBFB23D
:10402000002F4DD0BD4205D2AB4254D25B199CB299
:104030002F0074814346B84540D89FB2A54203D8AB
:10404000641BA4B2A542FBD9F288281B5204530C6E
:1040500019009846336861439C4680B261448742A8
:1040600026D94346584383B21A0048469A46FEF77B
:104070009FF8434648467D1B64195C4331685044B1
:10408000A2B2FEF795F87189B588CB199BB26A0088
:10409000994217D99B1A9BB230697381002801D0CD
:1040A00000F072FA3800E0BCBA46B146A846F0BD4E
:1040B000424648467A43FEF77BF8E4E73B1CBCE700
:1040C00073899BB26A009342E6DBE3E76F003F1B14
:1040D000DF19BFB2A4E75B1B9CB2A9E7F8B50400E7
:1040E000C0680E00002803D00121494200F064FAA4
:1040F000258920896189A288ADB283B28FB28842B6
:1041000028D3DB1B9BB29A4209D8E779FF0906D175
:10411000E068002801D000F037FA3800F8BD2B0025
:10412000954203D39B1A9BB29342FBD2E28821684B
:104130005204520C5343C8183100FEF739F8A288D4
:104140006B1C9BB252009D4209D99B1A9BB201275E
:104150002381DDE75100C91B5B189BB2D3E7934273
:10416000F5DBF2E7F0B54E464546DE465746E0B58C
:1041700089460500140083B0002A6ED0C06800286C
:1041800003D00121494200F017FA2F89EA796B899F
:10419000BFB29BB2D20942D1AE889F4267D27200B1
:1041A000D31AFB189BB2002290469E4231D9F31AD3
:1041B0001A1C9BB2A34200D9221C93B29846E888ED
:1041C0004346FB189BB29B463C00B74203D3A41B5B
:1041D000A4B2B442FBD24004430C18009A462B68A8
:1041E00060439C46311B89B2604441454ED35246E0
:1041F000434649465A43FDF7DBFFAB885B00BB45AE
:1042000001D39B4503DB5A46D31A9BB29B465B46C0
:104210002B81E868002822D000F0B6F91FE0AA88B8
:104220009046944226D29F4244D34146FA1A92B213
:10423000490012198A4209DB42469A1892B2171BAA
:10424000BFB29346BB423AD97F1ABFB2E3199BB2C1
:1042500046469B46A046E888B6E700239846404677
:1042600003B0F0BCBB46B246A946A046F0BDFB1A5F
:104270009BB298E7E888A21A4404640C544342466F
:10428000A144002AC5D046461F0099E7534659432A
:1042900089B20A0001914946FDF78AFF43469A1BFD
:1042A0005346A2185A430199286892B24944FDF72F
:1042B0007FFFA2E75100CA1ABA1892B2B9E7B94211
:1042C000C2DD4646E888A0467EE7C04610B5040039
:1042D000C068002803D00121494200F06DF920692F
:1042E000002803D00121494200F066F90023E0686C
:1042F00063812381002801D000F046F9206900285D
:1043000001D000F041F9012010BDC04670B5040095
:10431000C0680D00002803D00121494200F04CF98B
:104320002069002803D00121494200F045F97F218E
:10433000E379ED011940E0682943E171002801D0DB
:1043400000F022F92069002801D000F01DF90120B9
:1043500070BDC04680210A4A4902136D0B42FCD051
:10436000092353670422074B00201A60064B0021E3
:104370001A68064BDA67064B1A68064B1A647047D0
:104380000000115080301150C8150020004001403D
:10439000D419002000C0014070B5102084B0FCF793
:1043A0008BF808285DD0324B324DDB6F324C2B60DE
:1043B000324B01221B6C01210F202360FCF786F891
:1043C00002210F20FCF7ACF808222D4B03211B68BB
:1043D0000F205A401F2313402A4A1360FCF78EF81F
:1043E00002220421284BDA677E329950274B743A17
:1043F0005A671B6D1B079B0F012B2FD1FCF7DEFDAE
:104400000600FCF76FFFFA220023920012184B41BE
:10441000002B29DB01210291002101911C49300070
:104420000091FCF7CFFD002801DB04B070BDFA203D
:1044300000218000FCF760FF8021144A4902136DBF
:104440000B42FCD0092353670422124B1A602A68DE
:10445000074BDA672268094B1A64E6E7FDF752FD5D
:10446000CCE7FDF74FFD9EE701220B4B5242D1E70F
:1044700000400140C8150020D419002000C00140B0
:104480007C4001407C500140002011500000115040
:104490005543001080301150FFFFFF7F074B10B5D0
:1044A0001B6D1B079B0F03D1FA200021800010BD5C
:1044B000FFF772FF00200021F9E7C046000011500D
:1044C00010B584B0FCF764F8012801D004B010BD29
:1044D000FCF774FD0400FCF705FFFA2200239200AC
:1044E00012184B41002B13DB012102910021019195
:1044F000094920000091FCF765FD0028E6DA032257
:1045000006490B6D9B081A42FBD0FFF745FFDDE71C
:104510000122034B5242E7E79D4400100000115076
:10452000FFFFFF7F10B583070AD00300032102E0DD
:1045300001330B4205D01A78002AF9D1181A10BDA0
:10454000030019680C4A0D4C8A188A4322420FD185
:104550005968094A04338A188A43224208D15968A3
:10456000054A04338A188A432242F1D000E001331D
:104570001A78002AFBD1E1E7FFFEFEFE80808080F2
:10458000F8B5C0460000000001B40248844601BCF2
:10459000604700BFED01002001B40248844601BC21
:1045A000604700BF290C002001B40248844601BCCA
:1045B000604700BF8108002001B40248844601BC66
:1045C000604700BF5D01002001B40248844601BC81
:1045D000604700BFC100002001B40248844601BC0E
:1045E000604700BFFD09002001B40248844601BCB9
:1045F000604700BF9909002001B40248844601BC0D
:10460000604700BF5908002001B40248844601BC3D
:10461000604700BFA509002001B40248844601BCE0
:08462000604700BF15020020F5
:1046280054696E795553420054696E795553422046
:1046380044657669636500003132333435360000ED
:1046480054696E79555342204344430009040000DD
:1046580012010002EF020140FECA024000010102FD
:104668000301000009028D000401008032080B00DC
:1046780002020200000904000001020200040524ED
:10468800002001052401000104240202052406007B
:10469800010705810308001009040100020A00004F
:1046A80000070502024000000705820240000008DA
:1046B8000B020202020000090402000102020004C7
:1046C8000524002001052401000304240202052416
:1046D8000602030705830308001009040300020A01
:1046E800000000070504024000000705840240009E
:1046F800000000004E6F207370696E6C6F636B73FF
:104708002061726520617661696C61626C65000088
:10471800486172647761726520616C61726D2025F1
:104728006420616C726561647920636C61696D6590
:10473800640000000A2A2A2A2050414E4943202AB0
:104748002A2A0A000A000000486172642061737313
:104758006572740052656C6561736500626F6F7491
:10476800325F77323571303830000000312E352E07
:10477800310000007069636F0000000074696E7991
:104788007573625F6465765F6364635F6475616CAB
:104798005F706F7274730000466562203134203296
:1047A8003032340006005250BBFF3CB67C47001044
:1047B80006005250E182887F64470010060052507C
:1047C800D3F075425C4700100D0A0000646F7562F3
:1047D8006C65207265736574202D3E20424F4F54DE
:1047E80053454C000600525053B4F4A1D44700106E
:1047F8004C4544000900525000000002F8470010E0
:104808000800525012000000556E68616E646C65B5
:10481800642049525120307825780A006570202597
:10482800642025732077617320616C7265616479F7
:1048380020617661696C61626C65000043616E2776
:104848007420636F6E74696E756520786665722072
:104858006F6E20696E6163746976652065702025C6
:1048680064202573000000006F757400696E0000F5
:10487800282B0010D22C0010702C0010282B0010B0
:10488800522C00103A2C0010C82B0010762B001068
:104898006A2B0010F62F0010E22F0010282C0010B1
:1048A8000A300010282C0010CA2F0010B62F001054
:1048B800282C0010A22F0010782F0010282C001090
:1048C80084300010683000105C300010282C001074
:1048D800282C00103E30001068300010282C0010E2
:1048E800282C0010282C0010282C0010282C001030
:1048F800282C0010282C00101A3000102D38001019
:104908003139001089390010D53A0010CD3B00101C
:10491800000000000020202020202020202028281F
:104928002828282020202020202020202020202067
:1049380020202020208810101010101010101010A7
:1049480010101010100404040404040404040410D7
:104958001010101010104141414141410101010165
:10496800010101010101010101010101010101012F
:10497800101010101010424242424242020202023B
:1049880002020202020202020202020202020202FF
:1049980010101010200000000000000000000000AF
:1049A80000000000000000000000000000000000FF
:1049B80000000000000000000000000000000000EF
:1049C80000000000000000000000000000000000DF
:1049D80000000000000000000000000000000000CF
:1049E80000000000000000000000000000000000BF
:1049F80000000000000000000000000000000000AF
:104A0800000000000000000000000000000000009E
:084A1800000000000000000096
:104A2000AC020010A002001094020010AC4700106D
:104A300088020010B8470010C4470010EC4700106F
:084A4000FC47001008480010BB
:104A4800F0B5C646150000B504001E000268EFF375
:104A5800108172B61368002BFCD0BFF35F8F04235C
:104A6800E356002B2DDB2268BFF35F8F0020106018
:104A780081F31088D0221206127852B290469A42D8
:104A880003D1002080BCB846F0BD00270BE02368A6
:104A9800BFF35F8F1F6081F310882800310000F09A
:104AA80097FD0028EDD12268EFF3108172B61368E4
:104AB800002BFCD0BFF35F8F23797F2BE7D94346C8
:104AC80002E0D0231B061B6823712368BFF35F8FA6
:104AD80000221A6081F310880120D3E7F0B5C6469A
:104AE80000B50D00040000F063FDFA2206000F0077
:104AF800002328000021920000F072FD36184F4173
:104B0800002F2CDBD0231B061B68002598460BE0E2
:104B18002368BFF35F8F1D6081F310883000390070
:104B280000F056FD002818D12268EFF3108172B604
:104B38001368002BFCD0BFF35F8F23797F2BE7D955
:104B4800434623712368BFF35F8F00221A6081F305
:104B58001088012080BCB846F0BD0020FAE7012685
:104B6800014F7642CEE7C046FFFFFF7F0268EFF3B2
:104B7800108172B61368002BFCD0BFF35F8FFF2340
:104B880003710368BFF35F8F00221A6081F31088F6
:104B980040BF704700231C4A10B59360D3601B4A7E
:104BA80000219360D3601A4A1A489360D3601A4A66
:104BB8009360D360194A9360D360194A9360D360B5
:104BC800184A9360D360184A9360D360174A936079
:104BD800D360174A9360D360164A9360D360164A2D
:104BE8009360D360154A9360D360154A9360D3608D
:104BF800144A9360D360F022920000F001FD124B3A
:104C0800124A1A6010BDC04600001050080010502B
:104C1800100010500C1600201800105020001050E2
:104C2800280010503000105038001050400010502C
:104C3800480010505000105058001050600010509C
:104C48006800105070001050D019002080011050DA
:104C5800F0B55746DE464E464546E0B5234B87B08D
:104C68009F6D002F23D0224B00249946012398469C
:104C7800204B01269A4604E001347600E4B2202C49
:104C880015D03E42F8D04B469E65434665086D00F8
:104C9800A343ED186D015544280000F0A5FB00283A
:104CA8000CD10134B743E4B27600002FE7D107B046
:104CB800F0BCBB46B246A946A046F0BDAB78082278
:104CC8009B46EB8A002103A8019300F099FC072377
:104CD800594602AA5371019B117203A80121059339
:104CE80000F0AAFB280000F017FBDAE700001150DB
:104CF80000301150CC1500209823D14AF0B5D55872
:104D080080232C009B02102685B01C401D4278D0C1
:104D1800CC4BCD4C9A6ACD4B00261A603B23E35C02
:104D2800022B00D1DCE07B23E35C022B00D1FAE00C
:104D3800BB23E35C022B00D1E3E0FB23E35C022B03
:104D480000D141E13C23FF33E35C022B00D126E193
:104D58007C23FF33E35C022B00D10BE1BC23FF3340
:104D6800E35C022B00D1F0E0FC23FF33E35C022B71
:104D780000D1EFE1B64BE35C022B00D1D6E1B54B95
:104D8800E35C022B00D1BDE1B34BE35C022B00D105
:104D9800A4E1B24BE35C022B00D18BE1B04BE35CA6
:104DA800022B00D172E1AF4BE35C022B00D133E15F
:104DB800AD4BE35C022B00D118E1AC4BE35C022B5A
:104DC80000D1DCE1002E08D1A94B1B78002B04D1BF
:104DD8008021A84A90338902D15001AE984B0C2209
:104DE800002130009C6C00F00BFC03236405640D6B
:104DF8007370300002940121802400F01DFB9E4E48
:104E0800A402EB0668D480235B021D4214D0012261
:104E180023211C438C4B5A54DA70C023974ADB0079
:104E2800019302AB03CA03C3012101A800F004FBEC
:104E38008022904B92021A6580235B011D422FD17C
:104E48008023DB011D421AD180231B021D4204D19D
:104E5800AC4200D0ADE105B0F0BD01AE0C2200219E
:104E680030001C4300F0CCFB052301217370300097
:104E780000F0E2FA80227F4B12011A65E8E701AEE2
:104E88000C22002130001C4300F0BAFB042301214E
:104E98007370300000F0D0FA1022764B1A65D3E711
:104EA8001C430023664F01AE3B60FFF773FE0C22E4
:104EB8000021300000F0A4FB0123012173703000B1
:104EC80000F0BAFA80226B4B12031A65FB6CDB0305
:104ED800B6D500F075FBB3E7FFF7BAFE340092E7EA
:104EE8003833E65C002E00D11DE70233E25C002A6D
:104EF80000D118E700222000E254203000F03EFAEA
:104F080011E7B833E35C002B00D116E7BC22A15CA3
:104F18001E00002900D110E700232000A354A03070
:104F280000F02CFA09E77833E35C002B00D1FFE6A8
:104F38007C22A15C1E00002900D1F9E60023200094
:104F4800A354603000F01AFAF2E6B933FF33E35C99
:104F5800002B00D108E7DE225200A15C1E000029C8
:104F680000D101E720000023A130A354FF3000F056
:104F780005FAF9E67933FF33E35C002B00D1EDE65F
:104F8800BE225200A15C1E00002900D1E6E62000E6
:104F980000236130A354FF3000F0F0F9DEE6393326
:104FA800FF33E35C002B00D1D2E69E225200A15CC5
:104FB8001E00002900D1CBE6200000232130A35495
:104FC800FF3000F0DBF9C3E6F833E35C002B00D1D7
:104FD800B8E6FC22A15C1E00002900D1B2E600233D
:104FE8002000A354E03000F0C9F9ABE6244BE35CA1
:104FF800002B00D1E1E6EF239B00E25C002A00D001
:10500800CFE01A4BE35C022B00D0E6E61D4BE35CD5
:10501800002B00D0B8E0E0E61B4BE35C002B00D18E
:10502800C6E6DF229200A15C1E00002900D1BFE67F
:105038000023A354D8239B00E01800F09FF9B7E69B
:105048000000115000400540CC150020C01500207C
:105058003B0200007B020000BB020000FB020000D4
:105068003B0300007B030000BB030000FB030000C0
:105078000D1A0020003011501000020000001050DE
:10508800BA030000FA0300007A0300004B4BE35C0C
:10509800002B00D187E6CF229200A15C1E000029D8
:1050A80000D180E60023A354C8239B00E01800F039
:1050B80065F978E6424BE35C002B00D16EE6BF222F
:1050C8009200A15C1E00002900D167E60023A354CA
:1050D800B8239B00E01800F051F95FE6394BE35C18
:1050E800002B00D155E6AF229200A15C1E000029DA
:1050F80000D14EE60023A354A8239B00E01800F03B
:105108003DF946E6304BE35C002B00D13CE69F229C
:105118009200A15C1E00002900D135E60023A354AB
:1051280098239B00E01800F029F92DE6274BE35C53
:10513800002B00D123E68F229200A15C1E000029DB
:1051480000D11CE60023A35488239B00E01800F03C
:1051580015F914E6F933FF33E35C002B00D109E6B7
:10516800FE225200A15C1E00002900D102E62000A8
:105178000023E130A354FF3000F000F9FAE5144BA6
:10518800E35C002B00D11DE6FF239B00E25C002AB4
:1051980000D122E60022E2541C3BE01800F0EEF8B1
:1051A8001BE60022E254E8239B00E01800F0E6F832
:1051B80027E721000748694000F01AFA3A0300007F
:1051C800FA020000BA0200007A0200003A02000067
:1051D800FA03000010480010084A0300126C00206F
:1051E800920703D49A78D209012A00D07047D87E52
:1051F800023843425841C0B2F8E7C0460000115097
:1052080010B5FFF7E9FF00280CD00749074B8C467B
:10521800074A9B6A126863449B1A0020C6229A4276
:105228004041C0B210BDC046E0FCFFFF0040054051
:10523800C0150020F8B5028B838A04000F00161CE5
:105248009A4200D91E1C8025B6B29B1BE2789BB2FD
:10525800ED00A3823543002A02D09025AD013543E5
:1052680001214A40E2706278002A09D0002B02D15D
:105278008023DB011D43002F00D02D042800F8BD3A
:10528800E368B8019C4632006044216900F0C8F91F
:1052980023699C46802366441B021D432661A38A1A
:1052A800E4E7C046836870B504001D68002900D093
:1052B8002D0C6378AD05AD0D002B09D1E38AEB18F1
:1052C800E382238BAB4201D90023A382280070BD5F
:1052D800E36889019C462A002069614400F0A0F92E
:1052E800E38AEB18E38223695B192361E9E7C04687
:1052F80010B50400836800211B68FFF7D3FF6368BB
:105308001B685B0002D5238B834200D010BD0121AE
:105318002000FFF7C7FFF9E70023837643610361A5
:105328007047C04610B58368002901D01C68214029
:10533800002A11D08024E400114322420CD01A68BC
:1053480022420BD10A4A0A401A60FFE7FFE7FFE74B
:10535800FFE7FFE7FFE78368196010BD7F228178C8
:105368000448CB091140044A9B009A5800F040F9C0
:10537800FFFBFFFF24480010780D0020436870B53C
:10538800002180251E680400FFF754FF134B6D01B0
:105398001B6C05439B070FD5A3785B060FD0104BFA
:1053A8001E4080239B053343626800211360200060
:1053B8002A00FFF7B7FF70BDA378DB09EFD0A38AF7
:1053C800002BECD001212000FFF734FFA023054A71
:1053D800DB05324005431343E6E7C04600001150A1
:1053E800FFFFFFAFFFFFFFDF70B5857E0400002DD4
:1053F80013D0FFF77DFFA38A002B01D1280070BDD1
:105408002000FFF7FDFE051E03D0012300252377AA
:10541800F4E72000FFF7B2FFF0E77F228178044825
:10542800CB091140034A9B009A5800F0E1F8C046A6
:1054380044480010780D0020F0B54378050085B089
:10544800042B00D175E046D8022B00D183E0032B52
:1054580055D1504E504A00243378002A00D192E0AA
:105468004E4F03E00134E4B29C4214D8A342F9D968
:10547800396862008C461219D2006244002AF1D0C1
:105488005269002AEED02878696890470134337849
:10549800E4B29C42EAD9424B1A78520747D5042114
:1054A8001A7801A88A431A7000210C2200F0A8F883
:1054B8006A462B781371052353713A4B1C6862694D
:1054C800EFF3108172B61368002BFCD0BFF35F8F27
:1054D800A16101A920E0052B11D1314B1A78D2071F
:1054E80025D504211A788A431A702E4B1C686269E4
:1054F800EFF3108172B61368002B09D1FBE7294B33
:105508001C686269EFF3108172B61368002BFCD037
:10551800BFF35F8FA1612900200000F079F862696C
:10552800A369BFF35F8F0021116083F3108805B072
:10553800F0BD1B4B1A78D207F9D504211A780A4313
:105548001A70184B1C686269EFF3108172B6136801
:10555800002BDDD1FBE70120114A1178814311703E
:1055680011789943002311700421537013788B43E9
:1055780013700C4B1C686269EFF3108172B61368E4
:10558800002BC5D1FBE700220132D2B29A42FBD9E7
:1055980081E7C0460C1A002000000000EC10002033
:1055A8001C140020741400207047C046000000003E
:1055B80001B40248844601BC604700BFE5120010F0
:1055C80001B40248844601BC604700BFC1440010D2
:1055D80001B40248844601BC604700BF3D11001079
:1055E80001B40248844601BC604700BFD1200010C6
:1055F80001B40248844601BC604700BFD51E0010B4
:1056080001B40248844601BC604700BFA5210010D0
:1056180001B40248844601BC604700BFDD40001069
:1056280001B40248844601BC604700BFB1210010A4
:10563800544600102846001030460010404600101E
:1056480048460010100000000000000000000100A3
:105658000000000000000000000002000000000040
:10566800000000000000030000000000000000002F
:105678000000FF000000000001B5486801318E46B7
:105688000047704609380149884701BDF10A0010F2
:10569800280D002000000000D00D00207C150020FF
:1056A80000000000000000008C1500200000000031
:1056B80000000000100000000000000000000000D2
:1056C800503300004C3300005433000052330000C4
:1056D8004D5300004D430000533400004334000094
:1056E8008124001000000000CD240010792500104E
:1056F800000000000001000070480010744800100D
:105708007814002010000C000000000000000000C9
:10571800000000000000000000000000FF00000082
:10572800000000000000000095210010511F00102B
:105738001120001005210010E5020010412600107C
:04000005100001E9FD
:00000001FF
