:020000041000EA
:1000000000B5324B212058609868022188439860DF
:10001000D860186158612E4B002199600221596106
:100020000121F02299502B49196001219960352056
:1000300000F044F80222904214D00621196600F024
:1000400034F8196E01211966002018661A6600F04E
:100050002CF8196E196E196E052000F02FF8012189
:100060000842F9D1002199601B49196000215960AB
:100070001A491B48016001219960EB211966A021F2
:10008000196600F012F800219960164914480160C1
:100090000121996001BC002800D000471248134993
:1000A000086003C880F30888084703B5996A0420EC
:1000B0000142FBD001200142F8D103BD02B5186610
:1000C0001866FFF7F2FF186E186E02BD00000240BE
:1000D000000000180000070000035F00212200005C
:1000E000F4000018222000A00001001008ED00E03C
:1000F00000000000000000000000000074B24E7A12
:1001000000200420F7010010C3010010C5010010F9
:10011000C1010010C1010010C1010010C101001097
:10012000C1010010C1010010C1010010C701001081
:10013000C1010010C1010010C9010010CB01001065
:10014000CD010010CD010010CD010010CD01001037
:10015000CD010010CD010010CD010010CD01001027
:10016000CD010010CD010010CD010010CD01001017
:10017000CD010010CD010010CD010010CD01001007
:10018000CD010010CD010010CD010010CD010010F7
:10019000CD010010CD010010CD010010CD010010E7
:1001A000CD010010CD010010CD010010CD010010D7
:1001B000CD010010CD010010CD010010CD010010C7
:1001C00000BE00BE00BE00BE00BE00BEEFF3058054
:1001D000103800BEF2EB8871545500107C550010A9
:1001E0003402001090A31AE700201F49086006C8D7
:1001F00081F3088810471D48006800282FD10DA4FE
:100200000ECC002902D000F012F8F9E71849194A7B
:10021000002000E001C19142FCD1174988471749ED
:1002200088471749884700BEFDE701C901C29A42C5
:10023000FBD370477C550010C0000020F00D00205B
:10024000AC6200100000042000000420AC6200102A
:10025000001004200010042000000000704709482E
:1002600001F05EFF0047000008ED00E0000000D054
:10027000000E0020281D0020991F0010050300100B
:100280008D2000105756000006005250ABB360534B
:10029000A853001006005250861C0302B8530010E9
:1002A000060052505422A29DD8530010050052500F
:1002B000DE65F468AC620010F8B5C04610B5064CB7
:1002C0002378002B07D1054B002B02D0044800E017
:1002D00000BF0123237010BD0011002000000000AA
:1002E00050520010044B10B5002B03D003490448B2
:1002F00000E000BF10BDC046000000000411002057
:1003000050520010F0B5C64600B502F0E3FC0020E4
:1003100002F048FF1C4B1D4A1D491A6001221D4B6B
:100320001D4D1A701D4B1E4F1A8000221D4E598004
:100330009A80D9801A815A819A81012000214042F5
:1003400002F0A2FF01F0AEF83B682C689846002945
:1003500011D0FA220023920001F07AFF001B4045E1
:10036000EBD3307844442C6002F0CCFC012233788B
:1003700053403370E1E7FA21890001F02BFF001BA5
:100380004045DAD3EDE7C046181B002080BB0000D3
:1003900080BBFFFF211D0020341B00201C1B002000
:1003A000E00C0020231D0020FA22024B92001A606C
:1003B0007047C046E00C0020FA22014B1A607047DB
:1003C000E00C0020014B024A1A607047E00C00204C
:1003D000C4090000FA22024B92001A607047C0461E
:1003E000E00C0020002070470020704730B54B78AB
:1003F0000020012B02D14B79022B00D030BDCC78EC
:100400008D78012C10D0022CF8D1CB798C791B027D
:100410002343022BF2D1537811781B02094A6D0055
:100420000B4301205353E9E7CB798C791B0223431B
:10043000012BE3D10023D35601205A1E9341024AD7
:100440005355DBE7141D0020F81A002000207047E8
:1004500000207047F0B5CB788A784C791B021A439C
:10046000050083B01B0A012C0FD0DFB2E6B2022CCC
:1004700004D00020042E34D003B0F0BDD2B2012B42
:1004800029D0022F12D00020F6E70020022BF3D152
:100490006B461C7058709870D87018716B466A461D
:1004A00058710623280004F071FAE5E74B78012B18
:1004B00021D0022BE7D101236A4613805A226846D5
:1004C00052424280B4328280C3806A462800073399
:1004D00004F05CFAD0E7144B9A18012303F0B4FB44
:1004E000CAE7012B0ED0022FC6D1012328000F4AE4
:1004F00003F0AAFBC0E70E4B52009A18022303F048
:10050000A3FBB9E74B78012B07D0022BB4D10E2304
:100510002800084A03F098FBAEE704232800064AA7
:1005200003F092FBA8E7C046F81A0020211D002026
:10053000141D00201C1B0020181B002010B5084CA7
:10054000C02322000021002003F0B0FE2200C023BF
:100550000121C432002003F0A9FE012010BDC046D5
:10056000E417002070B5104D104B2E002C00C03643
:1005700018005A1C1B0C0133190413041B0C01C472
:100580000B43A642F4D18535094C084BFF351800C2
:100590005A1C1B0C0133190413041B0C01C40B431C
:1005A000AC42F4D1012070BDE4170020010001002D
:1005B000A818002001207047004870471C53001005
:1005C000004870478052001070B5002826D00428DB
:1005D00031D81A4B8000C658300004F0AFFDC0B2CD
:1005E000011C1F2815D8C9B2002821D00023144DA2
:1005F000AA1CF05C0133DCB210800232A142F8D8B0
:10060000C0230131C9B249009B0019432800298049
:1006100070BD1F21C9B20028E8D109E0084D074B81
:1006200002221968A81C02F0DDF8C1218900EDE75B
:100630000449034DEAE70020EAE7C046E40C002045
:100640006811002002030000094A830094464022FA
:10065000634410B51C68C0006240C024144080226E
:10066000520113431C60034B9C466044416010BD23
:1006700004C0014000400140034BC0009C46604460
:1006800043681F2018407047004001400A4B80001B
:100690009C4604236044002901D00C230821002A31
:1006A00000D10B00026853400C221A4080235B01EA
:1006B000184302607047C04604C00140074BC000A9
:1006C0009C466044036809045940C0239B021940BA
:1006D00080235B01184301607047C046044001401D
:1006E000074BC0009C466044036809035940C0237F
:1006F0009B01194080235B01184301607047C0468D
:10070000044001400123D02283401206936293618A
:10071000094A83009446402263441968C0004A4055
:10072000C02111408022520113431960034B9C46A3
:10073000052360444360704704C00140004001400D
:10074000024B18688007C00F7047C04600C00640C3
:100750008023DB051868000F7047C04670B5EFF3C3
:10076000108C72B60D4D2B68002BFCD0BFF35F8F41
:100770000724CB08C618C05C01230C40A3401C0012
:100780000440034207D103433370BFF35F8F2C60F3
:100790008CF3108870BD100001F07CFC2C0100D09F
:1007A000F8B54746CE46884680B5EFF3108C72B652
:1007B000214D2C68002CFCD0BFF35F8F9A422CD8BF
:1007C000D4080727055D061901241740BC402C42B8
:1007D0001FD007210127894609E0D408055D0619C5
:1007E0004C4639001440A1400C00294211D001327E
:1007F0009342F2D201204042BFF35F8F00220E4BA2
:100800001A608CF3108800280FDBC0BCB946B046D4
:10081000F8BD2C4310003470EEE7BFF35F8F002368
:100820002B608CF31088012040424346002BECD013
:10083000089801F02FFCC0462C0100D00021044B89
:10084000044ABFF35F8F02C39342FAD17047C04698
:10085000000100D0800100D0044A1078431CDBB2B4
:10086000172B00D9102313707047C046F80C0020D6
:1008700000B5054B83B00100009318221F230348E5
:10088000FFF78EFF03B000BD305300102813002087
:1008900001238340002904D0034A1360034A1360F4
:1008A0007047034A1360FBE780E200E000E100E0EC
:1008B00080E100E0024B10309B688000C058704718
:1008C00000ED00E070B50D00EFF3108672B60F4A30
:1008D0001368002BFCD0BFF35F8F0D4B10309B686B
:1008E00084001B590B4A934203D09D4201D001F072
:1008F000E9FB074B9B681D51BFF35F8FBFF35F8F11
:100900000022024B1A6086F3108870BD240100D0CB
:1009100000ED00E0CD010010F0B557464E46DE4632
:100920004546E0B585B0060002911700EFF3108B45
:1009300072B6674A1368002BFCD0BFF35F8F0025A7
:10094000644B5D579A46002D00DAA4E06B00624CC0
:1009500003935B199B009846A146C1444B465246FF
:100960009B79103613705D4BB2009B6801929958C9
:100970000B1B2F2B34D95A4B994200D0A4E0039B78
:10098000584A9C46584B6544AD0063534346023376
:100990006519E418554B0121043B1B1B1B055B0D1E
:1009A00013436B80524BEF71AB80FF23AB71029B03
:1009B000AB604B460B431900484B019A9B6899501A
:1009C000BFF35F8FBFF35F8F0022414B1A608BF341
:1009D000108805B0F0BCBB46B246A946A046F0BDA3
:1009E00001200A008243D379BB422FD845464E46A8
:1009F000130040491B1B5B415943090D3A4B63539C
:100A00003A4B02356519043B5B1B1B05354D5B0DED
:100A10002B4373800426B446E0444444131F1B1B3D
:100A20004C46A17102991B05A16049465B0D2B4301
:100A3000A380314BE77101431360BDE75800C01834
:100A400080002018C679BE422BD902000623D35657
:100A5000002BF3DA101D8246284880460426764291
:100A6000B446E14450464E46361A3005400D8246A3
:100A700056461C48957106439680039A94466544F1
:100A80001D4AAD00641922604246A371029BA280F8
:100A9000E771A36090E701F015FB002553465D5711
:100AA00054E7101D82469088400500158446404654
:100AB000D444664604302018301AE0260005400D64
:100AC000360230438046C9E701F0FCFA57E7C046DA
:100AD000240100D0221D0020FC0C002000ED00E0CD
:100AE000CD01001000E0FFFF00A1FFFF2C0D002052
:100AF00001BDFFFFAAAA00000148804701BD000018
:100B0000F0B5DE4657464E464546E0B50C0083B08C
:100B1000EFF3108972B6584A1368002BFCD0BFF36C
:100B20005F8F564B9A68030010339F00D559544A83
:100B30009046954232D0A54243D0524EAA1B2F2A4E
:100B40002CD801228240924651464F4A12681140E9
:100B5000019151464D4A1160BFF35F8FEFF305825B
:100B60009346002A33D101232A009A4393689C427A
:100B700008D177E04B005B189B00F3189968A142FD
:100B80002AD01A00062151560029F3DA019B002BC6
:100B900019D052463E4B1A603B4B1A60374B9B684C
:100BA000DD51BFF35F8FBFF35F8F0022324B1A60BE
:100BB00089F3108803B0F0BCBB46B246A946A046F4
:100BC000F0BD1500EAE75246304B1A60E6E7934263
:100BD000C9D001F077FAC6E706215956002921DB72
:100BE0004A005018800034188046A0689860E07968
:100BF000D871062020569871002824DBA488F01AAA
:100C00006405241544440019E0240005400D240225
:100C10002043988052181F4B9200B6181A7819700A
:100C2000B271B3E7594600290FD1FF3191711A49CA
:100C3000918018490A789A71184A9B1B5B415A4364
:100C4000120D0A70A2E71648E3E7164A1649D21AAF
:100C5000083A5002400D01439980144952080A4352
:100C6000DA8093E70621515613000029B8DA5A4674
:100C7000002AEAD14546DCE7240100D000ED00E07F
:100C8000CD010010FC0C002000E100E080E100E05C
:100C900080E200E0221D002001BDFFFFAAAA0000A3
:100CA00001BD0000360D002000F0FFFF00F8FFFF3F
:100CB00070B5EFF3058101240443EFF3108C72B695
:100CC000214A1368002BFCD0BFF35F8F1F4B050038
:100CD0001F4AED1A6D416A43120D1E4D8900AE6820
:100CE00052B27658A6421CD00621595691421CD0C9
:100CF00012215956914222D01E215956914220D09C
:100D00002A2159560324914210D0134B19781A7096
:100D10008171BFF35F8F00220B4B1A608CF3108838
:100D200070BDAB680D4C5C50EFE700246100091901
:100D300089005B18FF21997109499980E5E7012431
:100D4000F4E70224F2E7C046240100D0FC0C0020A6
:100D5000AAAA000000ED00E0221D0020CD01001035
:100D600001BDFFFF054B064A1360064A136053603E
:100D70009360D3601361536193617047808080807A
:100D800000E400E004E400E0024B9C46614489007A
:100D9000016070474000003410B50400FFF75CFDAF
:100DA00001002000FFF7F0FFFF232371BFF35F8FE7
:100DB00010BDC04610B50400FFF74EFD0100200035
:100DC000FFF7E2FFFF23A380BFF35F8F10BDC04694
:100DD00010B504000120FFF74BFD044B9C46604416
:100DE00080002060BFF35F8F10BDC046400000341C
:100DF00083680B4810B584466144624409011201BE
:100E00009A18591854684B6801209C4201D802D0A6
:100E10000020C0B210BD12680B689A42F9D8F7E7FB
:100E2000FFFFFF0F0A4B1968EFF3108072B60A68D4
:100E3000002AFCD0BFF35F8F1B68BFF35F8F0022D7
:100E40001A6080F3108840BF002000217047C04620
:100E5000301B0020F8B557464E464546DE46E0B505
:100E600099460CAB1C780DAB1B78060090469A4651
:100E70000768002C11D1BC7B002C42D065003B6878
:100E80002D19033D59194B78BB73002B00D1FB730F
:100E900000238B704B700B7004E065003B682D19CC
:100EA000033D5919B2682A4B94464246E3181B0188
:100EB00063441A604A465A600A9A9A600B9ADA604A
:100EC00000238B704B700B707B7B9B46002B2BD0D1
:100ED00022005946B8687B6898473A68002816D0BF
:100EE0005B4658465B005B445519033BA870D1181C
:100EF000D35C002B00D06B705B460C707B73A345FA
:100F000013D0F0BCBB46B246A946A046F8BD5B462E
:100F10005B005B44033BD3189C705119525D002A5F
:100F200000D05A705B460B707C7342464B46307D56
:100F300000F032FB051E06D05346002B03D12100E2
:100F4000306800F04DFD0E9B002BDAD01D70D8E705
:100F5000FFFFFF0FF0B5DE4657464E4645460023DD
:100F6000E0B58BB00893674B8200D45800239B46B2
:100F7000099000F097FA626806000F00EFF3108501
:100F800072B61368002BFCD0BFF35F8F23689C46BA
:100F90005B7B9946002B00D169E0A2685A4B9046D2
:100FA0004B441B01984443461A685B6810001900C3
:100FB000801BB941002900DC63E0099800F0ECFADD
:100FC00000230022984600230692079300239A46A6
:100FD0006368BFF35F8F5A461A6085F310885346E3
:100FE000002B08D10028C4D10BB0F0BCBB46B246E0
:100FF000A946A046F0BD089B414618024B4618433F
:10100000D047626806000F00EFF3108572B61368D0
:10101000002BFCD0BFF35F8F002F50DB33003B432E
:1010200002D02369002B61D12368D97B002907D026
:101030004A00521819688C4649466244033A517076
:101040009A7B002A01D14A469A734A46DA734B4684
:10105000E168013BCA5C0132CA545B4623616368A4
:10106000BFF35F8F5A461A6085F3108881E700232B
:1010700000229846002306920793002300209A46F8
:10108000A6E7002902D1002800D096E7002160469B
:1010900000F024FC43461A685B68069207934346B7
:1010A0009B689A464346DB689846E3684B44013B9D
:1010B0001B7808931B0203432361002088E7236900
:1010C000002BB1D0069A079B921BBB41002B15DB6E
:1010D00059460491012103914946029141460191EB
:1010E000514620000091FFF7B5FEB6E700F0DAF9AF
:1010F00032003B0012184B41002BE9DA0122034B6E
:101100005242E5E7081B0020FFFFFF0FFFFFFF7FB4
:1011100010B5144C6368002B04D00A211248FFF765
:1011200033FE10BD2300114A1021206800F0F0FAB0
:10113000032000F0ABF9032000F098FA03200C49DB
:1011400000F0E4F9FFF788FB0A4B9C460323237564
:10115000D0231B061B6860446375074B80006060EA
:10116000DC60DAE7440D0020301B0020F10D001098
:10117000550F001040000034081B00200048704745
:10118000440D0020F0B54E464546DE465746E0B5D4
:1011900085B0019310AB1B7806000393002399469A
:1011A000984600927268EFF3108B72B61368002BAA
:1011B000FCD0BFF35F8F3568AC7B002C3DD067005F
:1011C0002B683F19033FDB195A78AA73002A00D114
:1011D000EA73B168474A8C4600980199A218120137
:1011E0006244106051600E9991600F99D16042463F
:1011F0009A705A701A706B7B9A46002B67D0220047
:101200001900A8686B6898472A68002852D053468E
:1012100050465B005344D719033BB870D118D35CD8
:10122000002B00D07B7053460C706B7354454FD02D
:10123000F3681B19013B187800E000207368BFF3C6
:101240005F8F42461A608BF31088002C4FD04B46BC
:10125000002B08D10002204305B0F0BCBB46B246CB
:10126000A946A046F0BD039B002B3ED00E9B00205C
:101270000F999847030004000D000B4335D0002957
:101280000ADA009A019B121BAB4100920193002BDA
:101290000ADB039B994685E700F004F924184D41C9
:1012A00000940195002DF4DA0123134C5B42009366
:1012B0000194EEE753465B005344033BD3189C7004
:1012C000D119D25D002A00D05A7053460B706C734E
:1012D000307D009A019B00F05FF981460028A7D07D
:1012E0002100306800F07CFBA2E70020B4E7012079
:1012F0004042B1E7FFFFFF0FFFFFFF7FF0B5EFF3C5
:101300000583CE46474680B505000C0085B0002B0E
:1013100012D02C4A0020536A9C4203D8926A0130B2
:10132000AA4204D305B0C0BCB946B046F0BDE01A2D
:10133000421E9041C0B2F5E7234E02930193234B26
:101340000200009330000B00FFF71CFF031EE0DDDE
:1013500020BF7168EFF3108772B60A68002AFCD0CC
:10136000BFF35F8FDAB294463068427B62451DD08E
:10137000FF221A4051008946016891448846494637
:10138000414403398978002913D0F1681B0A884643
:101390004244013A1278DBB29A420FD07368BFF32D
:1013A0005F8F00221A6087F31088B2E7FF221A408D
:1013B000EBE732699342F1D13161EFE7614600F02A
:1013C0000FFBEBE700400540440D0020250E001008
:1013D000F0B5EFF30582D6464F4646461000C0B53D
:1013E0001038EFF3108872B6214C2368002BFCD024
:1013F000BFF35F8F0123190081401E4D1F006963F9
:10140000AA461D4D29601D4D2E78AC463500C540BD
:101410002F402B4209D1BFF35F8F276088F31088DC
:10142000E0BCBA46B146A846F0BD5346144D5F6ACB
:1014300083005D59AF420ED3124A8E439B586246D9
:101440001670BFF35F8F0022226088F31088002B94
:10145000E6D09847E4E70C4B92009C466244136840
:101460001360BFF35F8F0023236088F31088D7E7F2
:10147000280100D0004005403C700540241D00209C
:10148000381B00200C130020D03F054010B5010090
:10149000024A0348FFF762F910BDC0464C530010E2
:1014A000201D0020034B596A0A00986A596A8A4233
:1014B000FAD170470040054070B504000D00124A93
:1014C000536A1900966A536A8B42FAD130001900A8
:1014D00024184D41AB4211D80ED02B000A494A6A5C
:1014E0009A42FCD307D1084A02E0516A994202D1DC
:1014F000916AA142F9D370BDA642EED9012301241D
:101500006442E5175B42E9E70040054070B504001E
:101510000D00EFF3108672B61A4A1368002BFCD048
:10152000BFF35F8F002D1BD02000FFF7C3F91649D2
:1015300081420AD02000FFF7C5F901212000FFF702
:10154000A7F90123A340114A1360114BA400E550F1
:10155000BFF35F8F00220B4B1A6086F3108870BDBB
:101560000B4BA200D5500122A2400A4920000B7863
:1015700093430B700449FFF7C3FA00212000FFF7E3
:1015800087F9E5E7280100D0D11300103860054045
:101590000C130020241D0020F0B54F46D6464646C9
:1015A000C0B507002C4C616A0D00A66A616AA942A9
:1015B000FAD18B4208D805D00120E0BCBA46B1462A
:1015C000A846F0BDB242F7D9EFF3108A72B62348AD
:1015D00001680029FCD0BFF35F8F0125BD40204981
:1015E0001D4C8846097889462943C9B28C46414634
:1015F00060460870391D1B48890065630A51B900AF
:101600000B50216A0020294219D0616A0800A66A9D
:10161000616A8142FAD18B4219D801D1B24216D8FF
:10162000CC4516D00C4B1F201D625D630123074083
:10163000BB400D4A1E38136043464A461A70BFF33A
:101640005F8F0022054B1A608AF31088B5E70020EF
:10165000F5E70120F3E7C04600400540280100D02F
:10166000241D0020381B002080E200E0EFF3108CE6
:1016700072B60A490B68002BFCD0BFF35F8F0123C1
:101680008340074A0748136202789A430270BFF307
:101690005F8F00230B608CF310887047280100D007
:1016A00000400540241D002070B505001400160000
:1016B000002915D00C00002A12D080686B6898476A
:1016C000296800280ED073009B196200033B121991
:1016D000CB18033A9C7088188A5C002A15D10670D2
:1016E000200070BD63001B197200033B9219CB18D8
:1016F000033A9E7088188A5C002A02D10470340074
:10170000EEE75A7004703400EAE75A700670E7E7B3
:1017100030B583600023CCB243730133047342605D
:101720008373C4730D000068012C06D9421C013379
:10173000DBB2137003329C42F9D1FF2129404B00E8
:101740005918002340180338437030BDF8B5CE4611
:10175000474606000C0080B5002907D04D000368FD
:101760006D18033D5A195778002F04D12000C0BCD2
:10177000B946B046F8BD7900C919033988464344D3
:101780005978894600215970517073683A002100D8
:10179000806898473368002814D042469A1894709D
:1017A00059195B5D002B00D053700F70270049461C
:1017B0003000FFF7CBFF390002003000FFF774FF65
:1017C0000400D3E7424641465D19AF709A185B5C4E
:1017D000002B00D06B701470E9E7C046F0B5574697
:1017E0004546DE464E46E0B50D006B0001685B19CC
:1017F000DF1E0400C85D83B00192CA19002850D0D2
:1018000043001B18033BCB185E78B446002E1AD158
:10181000019E002E42D0E67B002E04D073009B195F
:10182000CB18033B5D70A37B002B00D1A573E57340
:1018300000282FD10023537003B0F0BCBB46B24642
:10184000A946A046F0BD72006244033A89184A785E
:10185000904600224A7091465A70010032002000E2
:10186000FFF722FF43468246002B07D05B0021682A
:101870004344033BCB185A78002A16D142465146BE
:101880002000FFF711FF2168019BCA19002BC2D16C
:101890000028CFD043001B18033BCB1800219970C0
:1018A000C8E7019B002BB6D1C4E75000801803386D
:1018B00009184878834648464870587041462000C9
:1018C000FFF7F2FE594680462000FFF73FFF4146F2
:1018D00002002000FFF7E8FE8046CFE7F0B557464C
:1018E0004546DE464E46E0B583B00191457B040097
:1018F0006B0000685B19DF1EC15DC219002952D060
:101900004B005B18033BC3185E78B446002E1CD115
:10191000019E002E44D0E67B002E04D073009B195C
:10192000C318033B5D70A37B002B00D1A573E57347
:10193000002931D1002328005370617303B0F0BC3B
:10194000BB46B246A946A046F0BD72006244033AC7
:101950008018427890460022427091465A702000CA
:101960003200FFF7A1FE43468246002B07D05B0002
:1019700021684344033BCB185A78002A17D14246CA
:1019800051462000FFF790FE019B01002068C2191C
:10199000002BC0D10029CDD04B005B18033BC318EE
:1019A00000209870C6E7019B002BB4D1C2E750001D
:1019B000801803380918487883464846487058709C
:1019C00041462000FFF770FE594680462000FFF791
:1019D000BDFE414602002000FFF766FE8046CEE7CE
:1019E00070B5040000292CD0437B8B422ED00568B3
:1019F00048004018033828188278002A21D0530064
:101A00009B18033BEA5CEE188A4202D11BE0002AD5
:101A100008D053009B18033BEB185A788A42F6D142
:101A200042785A7000230122837043702000FFF730
:101A3000D5FE617B02002000FFF736FE60730120B7
:101A400000E0002070BD43783370EBE701221900FD
:101A5000FFF7C4FE60730120F4E7C046F8B5CE4638
:101A60004746040080B506200E0000F023FA051E4C
:101A700051D0524B5249E21853425A418023DB0362
:101A80009C4692054F4B62441A604F4B1A601000FF
:101A90008B689843FBD1494B8021E3185A4253414C
:101AA0004A4A5B0049009952062000F003FA3100CF
:101AB000C00000F08FFBC30932D1402201219046C3
:101AC0006162A362256BEB0736D427008026E36AA8
:101AD00000232C3776013E4333600620256300F057
:101AE000E9F94146800000F075FB236B050098463C
:101AF000DB073BD46022E36A5A406E231340336015
:101B000043462363802310229B013B431A60304BE2
:101B100023630323A3642800C0BCB946B046F8BDC4
:101B20002C4A93423FD900232B492C4A6162A3627D
:101B3000256B9046EB07C8D52200C02330329B01AD
:101B40001343234A06201A60666AA26AB601B618D1
:101B500000F0B0F9224900F03DFBB6020100300070
:101B600000F038FB0021FFF7A7FCAEE72200C023FE
:101B700030329B011343164A06201A60636AA26A38
:101B80009B019946914400F095F94B4614499B02FC
:101B9000994600F01FFB0100484600F01BFB0021A6
:101BA000FFF78AFCA6E77F229901884610400130A2
:101BB000400819008044030082E7C0460080FCBF53
:101BC00000C0004000E0004000F00040081D002080
:101BD00001030000FEFF0000FFFF0000C0FF3F0008
:101BE0004E0E000030B50C2083B000F0B9F9FEF7BE
:101BF000A7FD00280ED0994B994A1A605A609A6046
:101C0000DA601A615A619A61DA611A62954A5A6217
:101C100003B030BD944CA06700F0AAF90122934BA9
:101C20001A60636C012BFCD10322914B1A608E4A1F
:101C3000936B012BFCD1013301218E4A8E48009316
:101C4000043300F03DF905238C4A009301218C48B0
:101C500000F036F98B4B5A68FF2A02D880225200D6
:101C60005A6080227D4C824B21691201854D1A6099
:101C7000002907D0606900F0ADFA431C5800C01875
:101C80000338FDD2E0217F4B02201A6811408022E8
:101C900052012A4311601968484003210140116034
:101CA00004219A681142FCD08022802192012A43AB
:101CB00009011160802252005A60734B2361734BFB
:101CC0005968FF2900D85A600321684A6F4B116098
:101CD00002399A681142FCD0E0201A681040802234
:101CE00052011A4310601868484003210140022045
:101CF000116066498A681042FCD080229201134329
:101D0000802212011A608022614B52004A60636196
:101D1000604B5968FF2900D85A6080225E4BE16908
:101D200012015C4D1A60002907D0606900F052FA78
:101D3000431C5800C0180338FDD2E02255490B68F7
:101D40001A4080235B012B431A60802380229B0171
:101D50002B4312011A608022414B52004A60E3611A
:101D60004E4B5968FF2900D85A6080224C4B216A9B
:101D700012014A4D1A60002907D0606900F02AFA62
:101D8000431C5800C0180338FDD2E02243490B68B9
:101D90001A4080235B012B431A60802380229B0121
:101DA0002B4312011A60802380225B004B602C4B76
:101DB000D20223623B4B5968914200D25A60802282
:101DC000394B616A1201374D1A60002907D06069EA
:101DD00000F000FA431C5800C0180338FDD2E0227E
:101DE00030490B681A4080235B012B431A60802323
:101DF00080229B012B4312011A608023DB024B607F
:101E0000184B6362294B5A68FF2A02D8802252007D
:101E10005A608022264BA1691201244D1A600029C4
:101E200007D0606900F0D6F9431C5800C018033889
:101E3000FDD2E0221D490B681A4080235B012B4331
:101E40001A60802380229B012B4312011A60802399
:101E50005B004B600E4BA361DAE6C0462C130020FA
:101E6000006CDC021BB70000008000403CB000406A
:101E700030B00040002F685900800240008C864737
:101E800000C0024030800040001BB7003C80004092
:101E9000405973075480004054B0004060800040B7
:101EA00060B000406C8000406CB000404880004052
:101EB00048B00040014B8000C05870472C130020F0
:101EC000F8B5040021481D0017000E0000F082F94B
:101ED0000100380000F07EF9069B29041B0319431A
:101EE0002368002B20DB1A4B1A4DE21853425A414B
:101EF00080235B019C461203174B62441A60174B08
:101F00001A601700AB689F43FBD1C022231D9201CA
:101F10001A4321232660A06013602368002BFCDA9B
:101F20000823E1601360F8BD3F2322681340B342E9
:101F3000D9D1A3681B051B0D8342D4D1EE22E368DF
:101F4000D20213408B42CED1EDE7C046001BB70052
:101F50000040FDBF00C0004000E0004000F0004035
:101F60008023024A9B000343D362704700800540F0
:101F7000AA23064A1B0113602F230549D360054B92
:101F800019605368002BFCDA7047C04600400240DD
:101F900000B0FA00006002402C4B2D4A70B51A6068
:101FA0002C4A2D4B2D491A6014008B689C43FBD1A1
:101FB0002B4D2C4EB54208D2013E761BB60808CDFB
:101FC000984723000134B342F9D1FFF70BFE264AAC
:101FD000214B1A60214A9368DB43DB01DD09002BAA
:101FE000F9D14022214B224C224E9A675A671A6738
:101FF000DA66B44208D223682000002B20D00834CF
:10200000FEF7D8FEB442F6D31B4E1C4CC022A1688A
:10201000300000F0E7FBA660FEF710FCFEF7A2FE22
:10202000FFF776F8164C174EB44208D2013E361B25
:10203000B60808CC98472B0001359E42F9D170BDF7
:102040000834FEF7A9FEB442D5D3DDE700E0004036
:10205000BFCDFBFEFE7F3C0000F0004000C0004012
:10206000D80D0020E80D0020FFFFFF0100F0014027
:10207000D00D0020D80D00200000002000ED00E071
:10208000E80D0020F00D002000BEFDE710B5FFF7C1
:10209000FBFFC0460FB400B5084883B000F0D4FC85
:1020A000049B002B07D005A91800019100F018F837
:1020B000034800F0C9FC0120FFF7E6FF7053001051
:1020C0008053001010B50148FFF7E4FF845300105F
:1020D00010B5002800D110BD00F06AFCFBE7C04637
:1020E00010B5094A0300146884B0002C08D00122FE
:1020F00000910648524203A9A047012004B010BD38
:1021000000F0A2FC0020F9E76C190020D12000109B
:1021100001480421014B1847700D00204121001097
:10212000142310B50100188804331B88984710BD8C
:10213000162310B50100188802331B88984710BD7C
:10214000F8B54746CE4680B50F1E19D014239946E0
:10215000043304000025012698464B461888434660
:1021600021681B88984701C4431E984101354042AD
:102170000640AF42F1D13000C0BCB946B046F8BD10
:102180000126F8E7124A936F9B0815D29066D16634
:10219000002905D0FFE7FFE7FFE7516F106F704799
:1021A00004B580210906C2175140002800D0C84359
:1021B00003F01EF8002104BDF0B5146E556E576F84
:1021C000166FFFF7E3FF1466556657671667F0BD95
:1021D000000000D0114A936F9B0813D2106651661D
:1021E000002905D0FFE7FFE7FFE7516F106F704749
:1021F00004B5002801D00020C04302F0F9FF0021FF
:1022000004BDC046F0B5146E556E576F166FFFF7DC
:10221000E5FF1466556657671667F0BD000000D0ED
:1022200094464A4A926F9208624601D228E0C0461C
:10223000F0B5464E346E756E776F366F00F020F84D
:102240009446424A14665566576716676246F0BD63
:1022500094463E4A926F9208624601D254E0C046CC
:10226000F0B53A4E346E756E776F366F00F04CF8FD
:102270009446364A14665566576716676246F0BD3F
:10228000002B24DB11D000293EDA00B5C9434042BF
:1022900000D1013100F038F8C943404200D101318A
:1022A000DB43524200D1013300BD002AEBD10028AC
:1022B00001D1002905D00020C90FC90701D1C043B1
:1022C000410800B502F084FF0022002300BD00B5E4
:1022D00000290ADBDB43524200D1013300F014F83D
:1022E000C943404200D1013100BDC943404200D141
:1022F0000131DB43524200D1013300F005F8DB43EA
:10230000524200D1013300BD002923D1002B18D146
:10231000002A0CD0BC460D4F38667A660021002397
:10232000FFE7FFE7FFE77A6F386F674670470028DF
:1023300001D00748010000B502F04AFF0022002347
:1023400000BD02000B00002000217047000000D0FB
:10235000FFFFFFFF002B00D0BFE0130C28D1002AA5
:10236000E7D080B4114F39667A66FFE7FFE730B4F3
:10237000040C7B6F396F1B0423433B667A66FFE7CF
:10238000FFE7FFE7C04684B27B6F3D6F1B0423432A
:102390003B667A66FFE7FFE7C04600232C042D0C5E
:1023A0007A6F386F00196941B0BC7047000000D0E7
:1023B000F0B594460025140E01D112020835140F11
:1023C00001D112010435940F01D192000235D40FCE
:1023D00001D152000135D40B0134254F7C66254CC8
:1023E0003C660E0C93B2FFE7FFE7FFE73C6F6643E6
:1023F000360C7703BE467343DF0B5B04C01AB9414A
:10240000130C7343DB18C91ACE086643360CB64466
:1024100093B273431F0F1B01C01AB941130C7343CE
:102420001F0B1B05C01AB941860D8F023E43664340
:10243000360C092D24DB520A7243801A7703460AB0
:102440006643360C16235B1BDE40DF40BF19644633
:102450006643821B7046043506330100D940A8400C
:10246000C01900D30131A24206D20023F0BD000002
:10247000000000D0FFFFFFFF121B0130F3D3F1E794
:1024800009277F1BFE406446A2B27243801A00D225
:102490000139220C7243130C1204821A99410B0069
:1024A0007046043513370100F940A840801900D365
:1024B0000131002B02D1A2420AD2F0BD013000D37B
:1024C0000131121BFAD2013BF8D1A24200D2F0BD79
:1024D000013000D30131121BF7E7F0B51C0C00D01E
:1024E00080E00CB400251C0A04D11B02160E3343F5
:1024F000120208351C0B04D11B01160F33431201C5
:1025000004359C0B04D19B00960F33439200023597
:10251000DC0B02D192185B4101351C009718644115
:102520000134464F7C66464C3C660E0CFFE7FFE7E5
:10253000FFE7C0463C6F6643360C7703BE4697B252
:102540007743C01B00D20139C01B00D201399FB2B2
:102550007743C91BC91B170C77437E04FF0B801BF5
:10256000B941CE086643360C0C2D33DBB644120B52
:102570001F053A431B0B97B27743C01B00D20139AA
:102580009FB27743C91B170C77433E043F0C801B57
:10259000B941860D8F023E43664329277F1BFE40CB
:1025A0000C3D7746AF40BF1930BCA2B2ABB272430C
:1025B0007343801A9941220C7243130C1204801A3F
:1025C000994102000B000137001BA941F9D2781E86
:1025D0000021F0BD0C277F1BFE4077467F0BAF40EC
:1025E000FF19E0E700245D1C07D0144F7D663966B3
:1025F000FFE7FFE7FFE7FFE73C6F95B29EB2654359
:102600006643401BB141150C1E0C654366433604FE
:102610002F0C3E432D04401BB141994204D20200CD
:102620000B0020000021F0BD01D19042F7D3801AA9
:10263000994101349942F2D3F6E70000000000D03E
:10264000FFFFFFFF132370B51D78012D15D010DD9E
:102650001C48FFF76DFD1C4C01008022200000F09B
:10266000C1F8022D06D01948FFF75AFD184B186023
:1026700070BD154C174BA364F5E7164B124C236045
:102680006360A360E36023616361A361E36123622C
:102690006362A362E36223636363A363E36323640C
:1026A0006364A364E36423656365A365E3652366EC
:1026B0006366A366E36623676367A367E367A36450
:1026C000D1E7C04653440000000F00204C33000007
:1026D0002C1B0020D926001007B5604601880A0A85
:1026E0000230DF2AFAD1C9B2820804D302884088B6
:1026F0000004104300E00068014A5050039007BDF9
:10270000000F002051434343C9188C46110C83B27B
:102710004B4310B4040C614392B280B25043624305
:102720001C041B0C001910BC59411304120CC018D6
:102730005141614470470000132310B512481C78C2
:10274000FFF7F6FC0100012C0AD003DD80220F48C0
:1027500000F048F80E48FFF7E3FC0E4B186010BD80
:102760000A4C5422200000F03DF80B4B6365A36532
:10277000E36523666366A366E36623676367A3670F
:10278000E3672362E361E5E75346000000100020A1
:102790004C3300002C1B00209D27001007B560461D
:1027A00001880A0A0230DF2AFAD1C9B2820804D3AA
:1027B000028840880004104300E00068014A50503D
:1027C000039007BD0010002001480421014B184769
:1027D000800D002041210010014B1B6818470000AC
:1027E000800D0020014B5B6818470000800D002021
:1027F000030010B5080011001B68984710BDC046C3
:10280000F0B546464F46D646C0B5437D80460E00DD
:102810001700002B46D0002A3FDD4B1E9946244B63
:102820000125002400209A460DE04B461B5D0D3B20
:102830005A425341325DDBB20A2A0BD02B000134DD
:1028400001359F421ADD002CEFD14346325D1B7DDE
:102850000A2AF3D1002BF1D1A04204DA4346211A0F
:102860001B6830189847434650461B68022198471A
:10287000013428002B0001359F42E4DC874204DD4F
:102880004346391A1B6830189847F619013E3378C9
:102890000D3B5A42534142461375E0BCBA46B1461D
:1028A000A846F0BD0368110030009847F5E7C04620
:1028B00008540010F0B5DE4657464E464546E0B592
:1028C00085B017001C0006000D00FEF7EBFD00238D
:1028D000304A12184B41002B58DB2F4908008A461A
:1028E00002F096FC01906B1C03D1300002F026FC34
:1028F0000500002C25D1294B9846294B1C68002C3B
:1029000015D0002F20D1274F02E02469002C0ED0D3
:102910002368002BF9D03B68002B01D0A342F4D1EF
:1029200020002A003100C0472469002CF0D1019B0F
:10293000002B27D105B0F0BCBB46B246A946A04645
:10294000F0BD194B9846D8E7164B994602ABDF1DF0
:102950000A239B4602E02469002CE8D02368002B60
:10296000F9D04B461B68002B01D0A342F3D12A00BB
:1029700031002000C0475B460122390020003B7037
:10298000C047E8E7504602F01BFCD3E70122074BA3
:102990005242A2E740420F00D00D00200128001053
:1029A000D4130020DC130020F1270010FFFFFF7F6D
:1029B000F0B5CE46474680B583B06B460600DD1DB8
:1029C0002870FEF76FFD00231A4A12184B41002BA6
:1029D0002BDB19490800884602F01AFC174B814688
:1029E0001C68002C14D0164F02E02469002C0FD074
:1029F0002368002BF9D03B68002B01D0A342F4D10F
:102A0000200001222900FFF7FBFE2469002CEFD1F2
:102A10004B46002B05D1300003B0C0BCB946B046D0
:102A2000F0BD404602F0CCFBF5E70122054B5242D7
:102A3000CFE7C04640420F00D00D0020D413002045
:102A4000DC130020FFFFFF7F70B5040002F076FB6F
:102A500000230100050001222000FFF72BFF084B97
:102A60001C68002C06D06368002B05D098472469A9
:102A7000002CF8D1280070BD2469002CF3D1F9E7AF
:102A8000D41300200A4A1368002B05D10CE01A0069
:102A90001B691032002B07D09842F8D1002902D1CF
:102AA00003691360016170470029FCD01060FAE7E8
:102AB000D4130020F0B50D1E15DD0E4B0D271A683E
:102AC0000D4B4519D31859424B410C495B005E5ED2
:102AD00020210478A64207D093691942FCD1013025
:102AE0001460A842F5D1F0BD93691942FCD117607A
:102AF000F2E7C046101D00200080FCBF081D00202A
:102B000030B504000D1E26DD002010211B4B013CBA
:102B10001A689369194219D1013093691942FCD19D
:102B2000136823548542F4D1154B1B68002B0CD03D
:102B300050239363516B183B34320B4011008022B9
:102B400052010A431360002815D030BD0C4B1B689E
:102B5000002BEDD1F7E70A4B1B68002B0BD050225E
:102B60003821064B1B689A635A6B3433114080221C
:102B700052011343196003204042E6E7101D002074
:102B800020130020064B10B51B68002B06D0002137
:102B9000044A12689163044A1068984710BDC04601
:102BA00020130020101D0020241300201D4BF0B521
:102BB0001A68C64698461C4B0E00D31859424B4122
:102BC0001A4F14331C00050000B53B68002807D0DD
:102BD000002B11D0164B3D601E6080BCB846F0BD86
:102BE000002BF7D0906300212000FDF751FE20005C
:102BF0001049FDF785FFEDE720000E49FDF762FE65
:102C000001212000FDF744FE4346502238211B6875
:102C10009A635A6B34331140802252011343196076
:102C2000D8E7C046101D00200080FCBF2013002004
:102C300024130020852B001070B50C4E0D001C00D5
:102C40003060002A03DB02211000FDF7FDFC002CA0
:102C500003DB02212000FDF7F7FC29003068FEF7B6
:102C6000FDFE01210248FFF70DFF70BD101D002081
:102C7000900D002010B5114C114B22689A4210D1D2
:102C8000104B62689A420CD10F4BA2689A4208D14D
:102C900000230E482360FFF743FA002103000020C1
:102CA0009847074B00212360064B09486360064B99
:102CB000A360FEF701FC0023236010BDF00D00208F
:102CC000DE8116F0299B72BD7ABE59D355420000B1
:102CD000400D030010B51920FDF714FDD02380220C
:102CE000E1211B0692045A620448054B0022186039
:102CF00049020123FFF7A0FF10BDC046004003407A
:102D00000C1D0020D02380221B069204002801D035
:102D10005A6170479A61FCE710B501210520FDF763
:102D2000B7FD10BD10B500220021024800F008FADE
:102D300010BDC046041400208022024B5202DA6407
:102D40007047C04600201150F0B5C64600B50600D9
:102D500000F0D0F90C231B4DFF22AB6705201A4968
:102D6000FDF7DAFD40239846184C40220021200050
:102D7000FFF732FD43460127238321210023144A14
:102D80006770A260136063545F316184414621879C
:102D9000053963540F4A10496360E260A1620B6019
:102DA0006362E26202F0FCF980239B052F64EB640E
:102DB00090230A4A3000EA50FFF7BEFF80BCB846B5
:102DC000F0BDC0460000115079030020E41300203C
:102DD00084001050000110508000105010D00100ED
:102DE0000B785B0602D14B78052B00D070478A78B0
:102DF000014B1A60FAE7C04600001150F0B5C64614
:102E000000B54B790C791B0288782343CC787F215D
:102E1000A4070140C509A20F4F001400324E7A19D1
:102E20005201B218907001206840507000205B057C
:102E30005B0DD0701383D4768046CA00012D33D049
:102E40002A488446880162448446B44460468260CD
:102E500040461060002933D0254AC900904662469A
:102E6000414451603F223F339343022C00D15B0029
:102E700020487A1901685201B218D1601E4ACB1855
:102E8000036051405340802288465201934228D823
:102E90004346A4061C4380237F197F011B06F619B5
:102EA0001C4373681C6011E0144884468801624426
:102EB0008446B4446046826240461060002909D1CD
:102EC00000236D01761973600D4BF360012080BC07
:102ED000B846F0BD084AC900904662464144516276
:102EE000C0E7FFF7EFF8D3E7E413002084001050A9
:102EF00004001050001B00200000105080001050F3
:102F00000001105010B502F04BF910BD10B57F2034
:102F10000C0020404000E409110000191A00034B86
:102F20004001C01800F00CF9012010BDE41300208E
:102F30007F22130010B50B400A420BD0C909802232
:102F4000580040180649400140181201002102F0C3
:102F500077F910BD02220348C909521A8266EEE7CA
:102F6000E4130020002011507F22100010B508400B
:102F70000A4200D110BD0023C9094000401804498D
:102F80004001081800220349C37002F059F9F1E723
:102F9000E4130020FFF7FFFF7F20002308404000DC
:102FA000C90910B54018504C400120184268002152
:102FB0001360826813602022FFF70EFCE36C002B85
:102FC00000D090E0E36E002B00D08CE08C33E3580F
:102FD000002B00D087E0AC33E358002B00D082E018
:102FE000CC33E358002B7ED1EC33E358002B7AD15D
:102FF0000D33FF33E358002B75D12D33FF33E358E6
:10300000002B70D14D33FF33E358002B6BD16D3360
:10301000FF33E358002B66D18D33FF33E358002B89
:1030200061D1AD33FF33E358002B5CD1CD33FF3397
:10303000E358002B57D1ED33FF33E358002B52D127
:1030400083239B00E358002B4DD18B239B00E35837
:10305000002B48D193239B00E358002B43D19B23A3
:103060009B00E358002B3ED1A3239B00E358002B89
:1030700039D1AB239B00E358002B34D1B3239B0001
:10308000E358002B2FD1BB239B00E358002B2AD100
:10309000C3239B00E358002B25D1CB239B00E3588F
:1030A000002B20D1D3239B00E358002B1BD1DB2323
:1030B0009B00E358002B16D1E3239B00E358002B21
:1030C00011D1EB239B00E358002B0CD1F3239B0081
:1030D000E358002B07D1FB239B00E358002B02D1C0
:1030E000024B034A1A6010BDE4130020001B0020AD
:1030F0008001105080220D4B520410B51A600C4B09
:103100000C491A6010008B689843FBD10A4C9C2232
:1031100000212000FFF760FB8022002152010748B8
:10312000FFF75AFB0923636710BDC04600E000406B
:1031300000F0004000C0004000001150000010509E
:1031400070B5837E04000D001600002B17D10023FC
:10315000E38201332000A682A376256102F040F8C5
:10316000002804D080219023084A8902D1502000F1
:1031700002F01EF8002805D00123237770BD02F06D
:1031800057F8E4E7200002F04BF8F7E70020115071
:10319000034B1878FF38431E9841C0B27047C046B1
:1031A000CC0D0020F8B5CE46474680B52C4E050024
:1031B00033780120FF2B03D0C0BCB946B046F8BD20
:1031C000532200212748FFF707FB274C2000FDF77B
:1031D000E3FD264B1C60264C20001430FDF7F8FD63
:1031E000200001F047FE234B234F1C60234B9846E1
:1031F000002B04D0380000E000BF214B186042468D
:1032000000243B78002A23D01E4A90461C4A91464F
:10321000A34212D80FD14346984701343B78E4B219
:10322000A342F5D228003570FFF78EFD2800FFF786
:1032300073FD0120C0E70020BEE74A461268630024
:1032400094461B19DB006344002BF4D01B68E3E7B2
:1032500001F048F83B780020002BADD1E2E7C046F2
:10326000CC0D0020F0110020A811002044120020F5
:10327000B00D0020481200201E1D0020000000009C
:103280001C110020E5420010F0B5DE4657464E46C0
:103290004546E0B58BB001F0FDFB002800D10EE102
:1032A000C84BC94F9A46C94D07AC3E687269EFF3E7
:1032B000108172B61368002BFCD0BFF35F8FB16131
:1032C0003000210001F08EFC7269B369BFF35F8F9B
:1032D0000021116083F31088002800D1EFE06378AB
:1032E000082BE2D852469B00D3589F466368002BB8
:1032F000DBD0A0689847D8E77F222179B34E0A40F7
:1033000050003618B046CB0998444046012630306C
:10331000C378B343C370C3780336B343C370002A82
:1033200000D1F1E04346AA4ADB7C002A06D0A94A34
:103330001278934200D261E19B1ADBB2002B00D0DD
:10334000BDE0A54E62792078A368B047ADE70122C1
:103350002B78012113432B7033230420EA5C8A432A
:10336000EA54EA5C8243EA540133EA5C8A43EA5451
:10337000EA5C8243EA54237800209B4600F0CCFCB0
:10338000602223791A40602A0DD0402A00D1C1E082
:10339000DB06DB0E012B00D13BE1022B00D1D6E096
:1033A000002B00D1C5E020780021FFF7C1FD80216E
:1033B0002078FFF7BDFD78E7844E3378DB0700D433
:1033C00073E7864B002B00D16FE7FDF703F86CE73E
:1033D0007E4E3378DB0700D467E7814B002B00D1AA
:1033E00063E730780007C00FFCF7ECFF5DE7237858
:1033F000774A9846774B002699461B78002A00D1D9
:103400007AE0784A9346B34260D819D1764B404669
:1034100098474B4601361B78F6B2B342F3D26B4E57
:10342000532200213000FFF7D7F91022FF21F01CB2
:10343000FFF7D2F930002022FF211330FFF7CCF93B
:1034400000F060FC694B002B00D12EE7FCF7B4FFC5
:103450002BE723785E4A98465E4B002699461B78F8
:10346000002A1FD05F4A93469E423AD321D15E4B39
:10347000404698474B4601361B78F6B2B342F3D22A
:10348000524E532200213000FFF7A6F91022FF21EF
:10349000F01CFFF7A1F930002022FF211330FFF7C5
:1034A0009BF907E0404600F073FF4B461B78002B6A
:1034B000E6D0464E00F026FC2379B370F5E60BB05B
:1034C000F0BCBB46B246A946A046F0BD5A461268BB
:1034D000730094469B19DB006344002BB0D05B68FB
:1034E00095E75A461268730094469B19DB006344C3
:1034F000002BDED05B68BBE7404600F049FF4B463F
:103500001B78002B9CD18AE762792078A36800F0B1
:1035100017FCCAE63648002800D144E700F0FCFB5F
:103520000121584608AA00E000BF002800D0BCE6F0
:1035300039E7202A00D1A1E0002A00D033E76379DF
:10354000092B00D92FE72B4A9B00D3589F467023A5
:10355000217A0B4200D026E70F330B405B00E818BE
:10356000CE0900931A4B8019C07C002B06D0194B52
:103570001B78984200D2A4E0C01AC0B2002800D044
:1035800099E0002A00D057E11B4B984663791A0056
:10359000994602239A43012A00D151E14B46002B60
:1035A00000D000E7009B06AAEB189E193036F3788E
:1035B00002329B07DB0F13805846022308A900F054
:1035C00043FB72E6B054001048120020F0110020B6
:1035D000000000001E1D002065490010D5030010EA
:1035E000C50300101C11002091430010B903001006
:1035F00000000000D45400103C5500105A00D318AD
:10360000BB4ADB001268D318002B00D157E71E69B4
:1036100098E6237A0F2B00D9C5E6B64AEB18DB787B
:10362000002A05D0B44A1278934263D39B1ADBB2C6
:10363000002B00D0B7E6B148B14E00F06DFB012180
:103640005846F36808AA9847002800D02DE6602263
:10365000160023791E401A4200D0A4E663790A3B83
:10366000012B00D99FE600F057FB63790A2B00D1AC
:1036700035E1584608A900F0CFFA16E6237A0F2B59
:1036800000D990E69B4AEB18DB78002A06D09A4ACC
:103690001278934200D2F6E09B1ADBB2002B00D0E6
:1036A00081E69648964E00F037FB01215846F368B4
:1036B00008AA984739E7002A00D074E60023984604
:1036C00064E7430098468A4B40441B68C000984614
:1036D0008044002A00D159E74346002B00D162E61E
:1036E000D86800F019FB434601215846DB6808AA58
:1036F00098471AE77E4A5E00F3181668DB00F61852
:10370000002E00D14FE6F06897E7A37900931A00E6
:103710006B789A4207D06B78002B00D056E1009B63
:10372000002B00D0F8E0009B584608A96B7000F011
:1037300073FABAE56B7806AA023213705846012371
:1037400008A900F081FAB0E5E088030AC0B20F2BA7
:1037500000D928E66B499A008A58974608A800F0D5
:10376000E1FA5846A179FFF7DDFA02222B781343DC
:103770002B709AE5E388012B00D014E608222B7801
:103780005846934308A92B7000F046FA8DE50220B5
:10379000297806AB9A1C8B068908DB0F01400B4386
:1037A00009E7E388012B00D0FDE508222B78584675
:1037B000134308A92B7000F02FFA76E5524B002B2B
:1037C00000D1F0E500E000BF021E00D1EBE5D378A8
:1037D00091781B020B43584608A900F035FAA4E67D
:1037E0004A4B002B00D1DEE500E000BF021E00D1F5
:1037F000D9E55846137808A900F026FA95E62189FC
:10380000FCF7E2FE021EF4D1CDE5022B00D11BE154
:103810003F4B002B00D1C6E500E000BF0200002AAC
:1038200000D1C0E5D3E7FCF7C7FE1223020008A9C8
:10383000584600F009FA78E6314B3048984650E790
:10384000E288002A09D14B46012B27D0009BEB18B8
:103850009E193036F3789B0734D54346002B00D1B0
:1038600023E5D86800F058FA43460121DB6808AA2E
:1038700058469847002000F04FFA3423EB5CDB07F2
:1038800000D512E5F5E61A4A5E00F3181668DB006B
:10389000F618002E00D186E5F06804E7009BEB18CF
:1038A0009E193036F3789B07D7D51A4B1878FFF757
:1038B0005BFB0222F37893434A46F370F378934319
:1038C000F370CAE7134B1878FFF732FB0222F37844
:1038D00013430122F370F3781343F370BDE706AB93
:1038E0009A1C5846012308A9167000F0ADF9DCE4D3
:1038F0001C110020000000001E1D00200D440010BF
:103900003C550010FC5400100000000000000000B6
:1039100000000000CC0D0020581EC0B2FCF750FE85
:10392000002800D13FE54378022B00D03BE5012180
:10393000C279931152110B400A4012015B011343EB
:103940002A782F318A4313432B70092399468144E7
:103950004E46C37882781B021343C3180293029B1E
:10396000B34200D8ADE00122737803920B2B03D150
:10397000F37803933378F6187378042B00D012E5AC
:103980000021029B554A9B1B9BB20193544B8846D6
:1039900004931B788A4268D032000E0090469E4203
:1039A00056D300D0FFE44F4B019A4146584691460A
:1039B0009847082803D94B46834200D388E0049BEC
:1039C00001361B78F6B2B342E9D2ECE45846FFF771
:1039D00099FAAB78414A0193414B002699461B78EE
:1039E000002A0ED0404A90469E4223D31FD13F4B1F
:1039F000584698474B4601361B78F6B2B342F3D28D
:103A000006E0584600F0C4FC4B461B78002B0ED154
:103A1000532200212800FEF7DFFE1022FF21E81CC0
:103A2000FEF7DAFE2022FF213148FEF7D5FE019B8A
:103A3000AB7074E64246182312687343944663449D
:103A4000002BF4D05B68D3E7FCF7BAFD0200E6E692
:103A5000254B1B6805931823059A734394466344CA
:103A6000002B00D19FE49B689EE731005846019AE5
:103A700000F0ACFC8146082800D894E4019B834206
:103A800000D290E4002240460AE0B378D318DBB2BB
:103A9000EB18D978FF2900D085E40132D870D2B272
:103AA000039B9A42F1D18046030031004A461048F8
:103AB00001F030F8049B4E441B78434500D34EE799
:103AC00071E40C4B002B00D12DE6FCF76DFC2AE6CF
:103AD00043468146B0461E00D4E7C04600000000C1
:103AE0001E1D0020CD4300101C110020914300102A
:103AF00003120020A9030010702270B58B780C000F
:103B00001A4201D0002070BD064B20001D78064BE4
:103B1000997800F0C3FF0028F4D021002800FFF7B7
:103B20006DF9F0E7CC0D0020F01100207F2070B57A
:103B300008400F4C4000CD09241864193034E57852
:103B40000020ED0700D570BD0126E5780948354312
:103B50000078E570FFF7DAF90028F4D10122E37864
:103B60009343E370E37803329343E370EBE7C0469B
:103B7000F0110020CC0D00207F22CB090A4004491F
:103B800052008918C9183031C878C007C00F704773
:103B9000F01100207F2310B50B400B4C5B00E418A4
:103BA000CA09A4183034E3789B0700D410BD074B32
:103BB0001878FFF7D9F90222E3789343E370E378AA
:103BC000013A9343E370F1E7F0110020CC0D00209F
:103BD0000E4B10B50C00002B17D00D4B1878FFF7CB
:103BE000DBF97F21022221404B000A49E409C91870
:103BF00009193031CB789343CB70CB78013A93439A
:103C0000CB70CB7803329343CB7010BD992F00104B
:103C1000CC0D0020F011002070B50A4E05003000D8
:103C200008220C00FEF7DEFD00237F21F3602278DE
:103C3000B36091425B412800D90100220023FFF7C5
:103C400075FF70BD54110020F8B5CE464746914629
:103C50002A4E80B50822070030000D009846FEF776
:103C6000C1FD4B46B3600023F381EC79A9792402AE
:103C70000C43231C444500D943469AB29046B38175
:103C8000002C13D0002A1FD04B46002B34D0131C1D
:103C9000402A1FD89BB2984633787F2B20D800212A
:103CA000174A43463800FFF741FF09E07F222B788F
:103CB00038009A42644100230022E101FFF736FFF9
:103CC000C0BCB946B046F8BD33787F2B11D98021EE
:103CD0000022E6E740239BB2984633787F2BDED95B
:103CE000074C424649462000FEF77CFD8021220019
:103CF000D7E700210022D4E70020E1E7541100209B
:103D0000B011002010B5142200210248FEF764FD16
:103D100010BDC04654110020014B18617047C046C9
:103D20005411002010B5054C010008222000FEF7B8
:103D300059FD0023A360E36010BDC046541100206C
:103D4000F8B53B4C1D0023780600DA09C9098A4200
:103D500013D00020002D00D0F8BD364B002B03D02F
:103D600021003000FFF73CF82369002B44D02200EB
:103D70000321300098470120EEE77F2B06D8A0688A
:103D8000002837D02A002C49FEF72CFDA368E289D1
:103D900059195219E38892B2E281A160934214D07A
:103DA0003F2D12D9A589A81A071C80B240282FD808
:103DB0002378BFB27F2B2DD80021AA4235D01E4ACE
:103DC0003B003000FFF7B2FEC6E72369002B05D0A9
:103DD000220002213000984700280FD07F220021C6
:103DE000237830009A42494100230022C901FFF79D
:103DF0009DFEB1E70020AFE70120ADE700213000D4
:103E0000FFF796F830008021FFF792F80120A3E732
:103E10004027CDE7AA4207D0074C3A002000FEF722
:103E2000E1FC80212200CBE780210022C8E7C046C8
:103E300054110020E12D0010B0110020F0B54E46C5
:103E4000DE4657464546E0B5C14C060063688FB074
:103E5000002B21D0E1891A78083959189B18DA7992
:103E60009879120202439B18994215D90027207BAA
:103E700003E01A789B1899420ED95A78042AF8D18F
:103E8000DA78002AF5D19A7882420DD01A78013773
:103E90009B18FFB29942F0D800200FB0F0BCBB468F
:103EA000B246A946A046F0BDA369DB5D002BF3D066
:103EB000A84A002A06D000213000227AFCF73EFBF7
:103EC0000028E9D0237F0025012B14D02B003000DF
:103ED000217A226BFFF72AFE0028DDD09E4B002BB3
:103EE000DBD0A269237AD25D290000923000002243
:103EF000FCF738FBD1E7236A012BE7D13000217AA8
:103F0000FFF73AFE002800D0FAE02623E15C013BEF
:103F10000291E25C013BE35C60895A430D009046EC
:103F2000FEF730F983B2A06A9B4600F045FE824658
:103F3000012D00D89BE1AB1EDBB29A00D3182822DA
:103F400091469B0099444B463200B9461425060021
:103F500092461F00A36A581900F02EFE031CB042BF
:103F600000D9331C14359EB2BD42F3D15346B2463C
:103F70001E0053464F46002B00D1C1E05846D345A2
:103F800000D95046414680B2FEF724F943465843D3
:103F900083B20693029A002194469300049353003F
:103FA00005936344884607930897099608E0012320
:103FB0009C46E0444346029ADBB2934200D3A1E020
:103FC000236B0BA999462523E65C013BE55C434640
:103FD0009F004744A36ABF00D81900F079FF08ABDF
:103FE0009B89002BE3D0424656436E4306994E44CC
:103FF0001A1C8B4200D90A1C93B2994603932423BE
:1040000008A98A810C9DE35CA944032B00D1E9E057
:1040100048D8012B00D1CEE0022B1CD14D451AD23D
:10402000029BB346AA46012B2ED1B246AB462900CD
:1040300030000222FEF7D6FB059B02359C46664403
:10404000A945F4D856465D461A00EB434B445B083D
:1040500001335343F618039A069B9B1A08AAD18989
:104060001A1C9BB28B4200D90A1C93B29A4608AB29
:10407000DA815346002B4CD10399A36A514489B28B
:10408000D81900F017FF92E7290058460222FEF7E0
:10409000A9FB059B02359C46E344A945F4D8554647
:1040A0001A00D2E7042BD6D14D45D4D2029BB34699
:1040B000AA46012B16D1B246AB4629003000042295
:1040C000FEF790FB049B04359C466644A945F4D852
:1040D00056465D461A00EB434B449B08013353435D
:1040E000F618B8E7290058460422FEF77BFB049B2C
:1040F00004359C46E344A945F4D855461A00EAE73E
:104100000025E3E6089F099E029D069B5D43ADB234
:10411000DCE624230D9DE35CA946D144032B00D1AA
:1041200094E027D8012B00D17BE0022BA4D14D4590
:10413000A2D2029B012B11D1290030000222FEF7EE
:1041400051FB059B02359C466644A945F4D893E78C
:10415000201100203D0500106505001029003000E9
:104160000222FEF73FFB059B02359C466644A945AB
:10417000F4D881E7042B00D07EE74D4500D37BE7E0
:10418000029B012B0BD1290030000422FEF72AFBF1
:10419000049B04359C466644A945F4D86CE7290085
:1041A00030000422FEF71EFB049B04359C46664447
:1041B000A945F4D860E74D4500D34CE702992B00A0
:1041C00032004846012921D119780133117001329A
:1041D0009842F9D1039B029A5343F61808AB9B8986
:1041E000039338E74A464D4500D334E72B783370C4
:1041F0006B787370AB780335B370079B9C4666444D
:10420000AA42F3D808AB9B89039324E733004946BD
:104210002A7801351A70029A94466344A942F7D16C
:10422000D8E74D4500D327E7029A2B004946012ADB
:1042300031D11A780133327001369942F9D108AB85
:104240009B89039308ABDB899A4615E74A464D459F
:1042500000D311E72B7833706B787370AB7803352C
:10426000B370079B9C466644AA42F3D8E7E7002850
:1042700000D145E75846D34500D95046414680B263
:10428000FDF7A8FF4346584383B20693029B002BD9
:1042900000D139E77EE64A462B7801353370029B20
:1042A0009C466644AA42F7D1C9E7C04670B50C00E7
:1042B0001100002811D10A4D6A68002A0DD02C2265
:1042C000AA5CA24200D870BDA0000019AC6A8000B0
:1042D0001A00201800F01AFDF5E70020F3E7C046A9
:1042E00020110020F0B5D6464F464646C0B5214CB9
:1042F00082B02E2200212000FEF76EFA1E4B1F4DC9
:104300002361402323751E4B1E4FA3611E4B3900B2
:1043100023630223984642462A33E2549833E385C6
:10432000C33BA562C232009328009A4600F00CFC01
:10433000164E3000FCF730FD002339002B61994602
:1043400028005346EE60C4220093C431083614306E
:1043500000F0FAFB3000FCF71FFD4B4642466B6253
:1043600025332E62E25402B0E0BCBA46B146A846FC
:10437000F0BDC0462011002054130020481B00202F
:104380001C130020701B002070190020F81C002056
:1043900070B50D4D102200212800FEF71DFA2C23C8
:1043A000EB5C002B0ED000242C26AB6AA0009C46B0
:1043B00000198000604400F05DFD0134AB5DE4B2A3
:1043C000A342F2D870BDC046201100204A790300F4
:1043D00010B50020012A02D18A79012A00D010BD2F
:1043E000CA79202AFBD10A79012AF8D0CA78002A92
:1043F000F5D1054A5468002CF1D113709023516017
:10440000D3818830EBE7C04620110020F0B5454647
:10441000DE4657464E46E0B51400050087B0012938
:1044200009D0012002293CD007B0F0BCBB46B246FF
:10443000A946A046F0BD602311781A000A409046B4
:104440000B422AD163780A2B00D18FE00B2B26D1A7
:10445000BA4F7E68002E22D0F98933780839711856
:10446000F618F379B0791B020343F618B14216D956
:104470002079A446029003E03378F618B1420ED9B1
:104480007378042BF8D1F378002BF5D1B4788442FB
:1044900000D18FE00132D2B2EEE7202A32D00020E4
:1044A000C2E713781F22190091432029BCD1DB06F3
:1044B000DB0E012B00D1DBE0022BF0D1A04B2079E9
:1044C000002BECD09D4F7B68002BE8D01A78F9893F
:1044D00059189B18DA799E79120232439B18994237
:1044E00004D8DCE71A789B189942D8D95A78052A5B
:1044F000F8D19A788242F5D1210028003A69FBF779
:1045000071FF91E7637926791B02CA063343D20E05
:10451000012A00D1E5E0022AC1D1884F7B68002B37
:10452000BDD0F8891A78804698449B189A799446A9
:104530006046DA79120202439B189845AFD940468B
:1045400003E01A789B189842A9D95A78052AF8D11D
:104550009A78B242F5D149B2002900DA69E1210026
:1045600028003B7D3A69FFF76FFB5DE7734F7B687F
:10457000002B94D0F9891A78083959189B18DA79E0
:104580009E79120232439B18994288D94646207977
:1045900004E01A789B18994200D880E75A78042AD8
:1045A000F7D1DA78002AF4D19A78824257D00136CE
:1045B000F6B2EEE764469A46E3789046A2781B028C
:1045C00013439B46029A3B7B934200D1F9E05B4642
:1045D0004146DAB2BB695A547968FB898946083B7F
:1045E0009944B14577D94946029803E03378F618E3
:1045F000B14270D97378042BF8D1B3788342F5D1E6
:10460000F3789342F2D1337989469846002B58D0FB
:10461000B14200D843E7230034009B462378E418D6
:10462000D0454AD9A14500D839E76378052BF5D1A3
:1046300021002800FFF760FA002800D12FE7A378B7
:10464000280019000393FFF7A5FA039BDB09012B50
:1046500000D1F7E053460133DBB29A46DEE7B046BD
:10466000BA690123210028004244FFF7EDFADBE696
:1046700061792679002900D181E0324A002A00D1EF
:104680000DE72E4FC9B27B68002B00D107E79A785F
:10469000B24200D003E71A789B18D8799A790002C1
:1046A0001043181803E0DA788A4200D1F8E01A784B
:1046B0009B189842F7D80020B6E65C46D04500D05B
:1046C000EDE6214B002B06D02100280000E000BFC2
:1046D000002800D1E3E621002800FFF79DFA012021
:1046E000A2E61B0A1BD0154FDBB27A68002A00D164
:1046F000D5E69078B04200D0D1E610781218D6797D
:10470000907936020643961903E0D078984200D19A
:1047100082E0107812189642F7D8002084E6074FFE
:104720007B689C46002B00D1B9E6F88908386044C4
:10473000834200D3B3E68C4619000CE02011002020
:10474000E5030010ED030010000000001A789B182C
:10475000984200D8A3E65A78042AF7D18A78B24260
:10476000F4D1614649B2002900DBF8E6774B002B13
:1047700000D194E621002800FBF76AFE54E6744B52
:10478000002B00D18BE6734F7868002800D186E6B5
:10479000F98908394118884200D380E6030004E013
:1047A0001A789B18994200D879E65A78042AF7D1EA
:1047B0008278B242F4D1210028003A69FBF714FE56
:1047C00032E6534628003B73397AFFF701FA2C236F
:1047D000FB5C002B13D00023994623004C469946DE
:1047E000BB6AA0009C4600198000604400F042FBB8
:1047F0002C230134FB5CE4B2A342F1D84C46564B67
:10480000002B06D021002800FBF7D4FE002800D1A1
:1048100045E600233B72DAE649B2002900DB9EE65A
:104820004E4B002B00D13AE621002800FBF712FE88
:10483000FAE54B4B002B00D131E621002800FBF7B5
:1048400005FEF1E530221100E378194005911A4286
:1048500000D0FFE6039B3B72029B3B736379227996
:104860001B0213435B055B0D7B813378F31899457D
:104870001DD9484603E01A789B18984216D95A78F1
:10488000042A13D0242AF6D19A78012A49D0022A80
:10489000F1D1DA78012AEED124211A797A54EAE7A3
:1048A000210028003A69FBF7A1FDBDE581462423DC
:1048B000FB5CF88D19000393FDF764FC039B5843E0
:1048C00083B203932C23FB5C0493002B15D0049438
:1048D000059CBB6AA0009C4601230019800060442F
:1048E0000168039A009300F02FF92C230134FB5C3C
:1048F000E4B29C42EDD3049C04932523787FF95CB9
:10490000FDF768FC2623C0B2F854049B984200D9F6
:10491000C5E52800FFF792FA002800D09AE60020AB
:1049200082E59A7A7A775A793A77D9799A79090227
:1049300011431A7A120411435A7A12060A433A6250
:104940005A78242A97D19A78A1E7C04651040010DA
:10495000E903001020110020B505001055040010D7
:104960004D04001010B5084B0200187A884208D197
:104970009B690020002B00D110BD1000FFF75EFAEC
:10498000FAE70020F8E7C04620110020F0B54646BF
:10499000D6464F469C460B788046C0B592460E00E0
:1049A00000207F2B35D94C790A792402DB06144389
:1049B000DB0E012B34D0022B2BD1354F7C68002C21
:1049C00027D02578FB89E3186419A579A9464946BB
:1049D000E5792D020D436419A34204D819E020782B
:1049E0002418A3421AD96578052DF8D1A0789042F1
:1049F000F5D13B7D1C1C634530D8A4B22200514642
:104A00003869FDF7EFFE2300310040463A69FFF7B1
:104A10001BF9E0BCBA46B146A846F0BD0020F8E755
:104A2000240A1DD01A4FE4B27B68002BF1D09D7888
:104A30009542EED11A789B18DD799A792D021543AB
:104A40001A785D199B189D4204D8E2E71A789B18E2
:104A50009D42E3D9DA78A242F8D1CAE76446CCE7AE
:104A60000B4F7B689946002BD3D0FD89083D4D4400
:104A7000AB42CED21C0003E02378E418A542CDD986
:104A80006378042BF8D14B469B789342F4D1B0E77E
:104A90002011002010B5FEF77BFB10BD10B5437947
:104AA00004791B0223435B055A0DC3789B079B0FB8
:104AB000022B05D0032B15D00020012B08D010BDF0
:104AC00002291CD00020402393424041C0B2F6E7A7
:104AD00002394B4259410D4B9C4661449142404141
:104AE000C0B2ECE702394B425941F0230020494261
:104AF0009B001940403191424041C0B2DFE7044B76
:104B0000D3185A425341D8B2D9E7C046FF03000038
:104B100000FEFFFF8A1870B5914207D27F264C78BD
:104B2000052C04D00C7809198A42F8D870BD3400DD
:104B30008D782C4064000419ED0963550C7809192F
:104B40008A42ECD8F2E7C046F0B5C64600B504008C
:104B500006A805788020884617001E0000028242C1
:104B600027D8E068002803D00121494200F048FB23
:104B70002069002803D00121494200F041FB43464F
:104B8000236073045B0CED031D430023E068638125
:104B9000A780E5802381002801D000F011FB206967
:104BA0000124002801D000F00BFB200080BCB84697
:104BB000F0BD0024F9E7C04610B504894189828818
:104BC000A3B288B28C4207D31B1A9BB2101C9A4224
:104BD00000D9181C80B210BD5100091A5B189BB295
:104BE000F4E7C04670B5040000690E00002803D049
:104BF0000121494200F004FB25896089A288A9B2FD
:104C000083B285422CD3CD1AADB2002D2ED0AA424C
:104C100008D2914231D38B1A9BB263819A4203D856
:104C20009B1A9BB29A42FBD9E28821685204520C2B
:104C300053433000C918FDF7D5FD618901254B1C90
:104C40009BB2A288994214D9002352009B1A9BB2AE
:104C500020696381002801D000F0B2FA280070BDFD
:104C60005500ED1A4D19ADB2002DD0D10025638944
:104C70009BB252009342EBDBE8E789188BB2638169
:104C8000CCE7C046F8B50400C0680E00002803D089
:104C90000121494200F0B4FA258920896189A2885E
:104CA000ADB283B28FB2884228D3DB1B9BB29A424B
:104CB00009D8E779FF0906D1E068002801D000F0A3
:104CC0007FFA3800F8BD2B00954203D39B1A9BB2A4
:104CD0009342FBD2E28821685204520C5343C81815
:104CE0003100FDF77FFDA2886B1C9BB252009D42F4
:104CF00009D99B1A9BB201272381DDE75100C91B0B
:104D00005B189BB2D3E79342F5DBF2E7F0B54E4672
:104D10004546DE465746E0B589460500140083B097
:104D2000002A6ED0C068002803D00121494200F05B
:104D300067FA2F89EA796B89BFB29BB2D20942D157
:104D4000AE889F4267D27200D31AFB189BB2002232
:104D500090469E4231D9F31A1A1C9BB2A34200D945
:104D6000221C93B29846E8884346FB189BB29B46A8
:104D70003C00B74203D3A41BA4B2B442FBD240040C
:104D8000430C18009A462B6860439C46311B89B23D
:104D9000604441454ED35246434649465A43FDF787
:104DA00021FDAB885B00BB4501D39B4503DB5A4625
:104DB000D31A9BB29B465B462B81E868002822D021
:104DC00000F0FEF91FE0AA889046944226D29F4246
:104DD00044D34146FA1A92B2490012198A4209DBB9
:104DE00042469A1892B2171BBFB29346BB423AD9B9
:104DF0007F1ABFB2E3199BB246469B46A046E8889D
:104E0000B6E700239846404603B0F0BCBB46B24626
:104E1000A946A046F0BDFB1A9BB298E7E888A21A03
:104E20004404640C54434246A144002AC5D046467B
:104E30001F0099E75346594389B20A000191494638
:104E4000FDF7D0FC43469A1B5346A2185A430199DA
:104E5000286892B24944FDF7C5FCA2E75100CA1A7E
:104E6000BA1892B2B9E7B942C2DD4646E888A04610
:104E70007EE7C04610B50400C068002803D00121B9
:104E8000494200F0BDF92069002803D001214942C0
:104E900000F0B6F90023E06863812381002801D087
:104EA00000F08EF92069002801D000F089F9012076
:104EB00010BDC04642898388511889B25B008A427E
:104EC00001D8994201DBC91A89B241817047C046B5
:104ED000F8B50E0001894289070083888DB294B22B
:104EE000914236D32A1B92B2934214D238691A00E7
:104EF000002805D00121494200F082F93869BA88BA
:104F000095422FD3AC1AA4B27C81002802D000F0C5
:104F100057F9BA881300002A02D11FE0ED1AADB28A
:104F20009D42FBD29C4203D3E41AA4B29C42FBD222
:104F3000396808197060AC4206D3181BD31AE418FC
:104F400030807480B160F8BD002332807380B3601C
:104F5000F9E75A00121BAA1892B2C5E732607260D4
:104F6000B260F0E7AC18A4B2CEE7C04680210A4A8E
:104F70004902136D0B42FCD0092353670422074BEF
:104F800000201A60064B00211A68064BDA67064BB0
:104F90001A68064B1A647047000011508030115097
:104FA000E013002000400140041B002000C001402D
:104FB00070B5102084B0FBF75FFB08285DD0324B42
:104FC000324DDB6F324C2B60324B01221B6C0121C6
:104FD0000F202360FBF75AFB02210F20FBF780FB19
:104FE00008222D4B03211B680F205A401F2313401A
:104FF0002A4A1360FBF762FB02220421284BDA677E
:105000007E329950274B743A5A671B6D1B079B0FD2
:10501000012B2FD1FCF7B2F80600FCF743FAFA2275
:105020000023920012184B41002B29DB0121029131
:10503000002101911C4930000091FCF7A3F80028E1
:1050400001DB04B070BDFA2000218000FCF734FAC7
:105050008021144A4902136D0B42FCD00923536787
:105060000422124B1A602A68074BDA672268094B40
:105070001A64E6E7FDF726F8CCE7FDF723F89EE78C
:1050800001220B4B5242D1E700400140E0130020C7
:10509000041B002000C001407C4001407C500140C6
:1050A00000201150000011506D4F00108030115041
:1050B000FFFFFF7F074B10B51B6D1B079B0F03D135
:1050C000FA200021800010BDFFF772FF00200021B0
:1050D000F9E7C0460000115010B584B0FBF738FB6B
:1050E000012801D004B010BDFCF748F80400FCF71B
:1050F000D9F9FA220023920012184B41002B13DB3E
:105100000121029100210191094920000091FCF741
:1051100039F80028E6DA032206490B6D9B081A428B
:10512000FBD0FFF745FFDDE70122034B5242E7E7E3
:10513000B550001000001150FFFFFF7F10B583072E
:105140000AD00300032102E001330B4205D01A7894
:10515000002AF9D1181A10BD030019680C4A0D4C29
:105160008A188A4322420FD15968094A04338A189F
:105170008A43224208D15968054A04338A188A436F
:105180002242F1D000E001331A78002AFBD1E1E796
:10519000FFFEFEFE80808080F8B5C0460000000063
:1051A00001B40248844601BC604700BF15020020DC
:1051B00001B40248844601BC604700BF810800205A
:1051C00001B40248844601BC604700BFED010020E5
:1051D00001B40248844601BC604700BF590C00205E
:1051E00001B40248844601BC604700BF5908002052
:1051F00001B40248844601BC604700BF590C00203E
:1052000001B40248844601BC604700BF5D01002034
:1052100001B40248844601BC604700BFC1000020C1
:1052200001B40248844601BC604700BFFD0900206C
:1052300001B40248844601BC604700BF99090020C0
:1052400001B40248844601BC604700BFA5090020A4
:1052500050616E6952436F72700000004D69634E79
:105260006F64655F345F436800000000313233349F
:1052700035380000554143320000000009040000A9
:10528000090299000201008032080B00020100208F
:1052900000090400000001012000092401000203AC
:1052A00048000008240A0401010100112402010140
:1052B0000203040400000000000400000C240303A7
:1052C00001010102040000001A240602010F00007F
:1052D000000F0000000F0000000F0000000F000092
:1052E000000009040100000102200009040101017D
:1052F000010220001024010300010100000004004D
:105300000000000006240201021007058105880143
:105310000108250100000000000000001201000249
:10532000EF020140FECA104000010102030100002B
:105330004E6F207370696E6C6F636B732061726562
:1053400020617661696C61626C650000486172641D
:105350007761726520616C61726D20256420616CDB
:10536000726561647920636C61696D656400000039
:105370000A2A2A2A2050414E4943202A2A2A0A0072
:105380000A000000486172642061737365727400E2
:1053900052656C6561736500626F6F74325F77325E
:1053A0003571303830000000312E352E31000000CC
:1053B0007069636F0000000074696E797573625FD5
:1053C0006465765F617564696F5F345F6368616EA1
:1053D0006E656C5F6D696300466562203134203212
:1053E0003032340006005250BBFF3CB6B0530010C0
:1053F00006005250E182887F9853001006005250F8
:10540000D3F07542905300100D0A0000646F75626E
:105410006C65207265736574202D3E20424F4F5499
:1054200053454C000600525053B4F4A10C540010E4
:105430004C45440009005250000000023054001056
:105440000800525012000000556E68616E646C6571
:10545000642049525120307825780A006570202553
:10546000642025732077617320616C7265616479B3
:1054700020617661696C61626C65000043616E2732
:105480007420636F6E74696E75652078666572202E
:105490006F6E20696E616374697665206570202582
:1054A00064202573000000006F757400696E0000B1
:1054B000AA32001052340010EE330010AA3200104D
:1054C000D0330010B83300104E330010F832001003
:1054D000EC3200108E37001074370010A633001025
:1054E000A2370010A63300105C37001048370010B8
:1054F000A6330010343700100A370010A63300100E
:10550000263800100A380010FE370010A6330010AD
:10551000A6330010E03700100A380010A633001040
:10552000A6330010A6330010A6330010A6330010D7
:10553000A6330010A6330010BC370010E54200105F
:1055400091430010CD4300100D4400106549001038
:04555000550C0020D6
:10555400AC020010A002001094020010E4530010EA
:1055640088020010F0530010FC5300102454001063
:085574003454001040540010F3
:10557C00F0B5C646150000B504001E000268EFF336
:10558C00108172B61368002BFCD0BFF35F8F04231D
:10559C00E356002B2DDB2268BFF35F8F00201060D9
:1055AC0081F31088D0221206127852B290469A4299
:1055BC0003D1002080BCB846F0BD00270BE0236867
:1055CC00BFF35F8F1F6081F310882800310000F05B
:1055DC00CFFD0028EDD12268EFF3108172B613686D
:1055EC00002BFCD0BFF35F8F23797F2BE7D9434689
:1055FC0002E0D0231B061B6823712368BFF35F8F67
:10560C0000221A6081F310880120D3E7F0B5C6465A
:10561C0000B50D00040000F093FDFA2206000F0007
:10562C00002328000021920000F082FD36184F4123
:10563C00002F2CDBD0231B061B68002598460BE0A3
:10564C002368BFF35F8F1D6081F310883000390031
:10565C0000F08EFD002818D12268EFF3108172B68D
:10566C001368002BFCD0BFF35F8F23797F2BE7D916
:10567C00434623712368BFF35F8F00221A6081F3C6
:10568C001088012080BCB846F0BD0020FAE7012646
:10569C00014F7642CEE7C046FFFFFF7F0268EFF373
:1056AC00108172B61368002BFCD0BFF35F8FFF2301
:1056BC0003710368BFF35F8F00221A6081F31088B7
:1056CC0040BF704700231C4A10B59360D3601B4A3F
:1056DC0000219360D3601A4A1A489360D3601A4A27
:1056EC009360D360194A9360D360194A9360D36076
:1056FC00184A9360D360184A9360D360174A93603A
:10570C00D360174A9360D360164A9360D360164AED
:10571C009360D360154A9360D360154A9360D3604D
:10572C00144A9360D360F022920000F011FD124BEA
:10573C00124A1A6010BDC0460000105008001050EC
:10574C00100010502414002018001050200010508D
:10575C0028001050300010503800105040001050ED
:10576C00480010505000105058001050600010505D
:10577C006800105070001050001B00208001105069
:10578C00F0B55746DE464E464546E0B5234B87B04E
:10579C009F6D002F23D0224B00249946012398465D
:1057AC00204B01269A4604E001347600E4B2202C0A
:1057BC0015D03E42F8D04B469E65434665086D00B9
:1057CC00A343ED186D015544280000F0A5FB0028FB
:1057DC000CD10134B743E4B27600002FE7D107B007
:1057EC00F0BCBB46B246A946A046F0BDAB78082239
:1057FC009B46EB8A002103A8019300F0A9FC072328
:10580C00594602AA5371019B117203A801210593F9
:10581C0000F0AAFB280000F017FBDAE7000011509B
:10582C0000301150E41300209823D14AF0B5D5581C
:10583C0080232C009B02102685B01C401D4278D082
:10584C00CC4BCD4C9A6ACD4B00261A603B23E35CC3
:10585C00022B00D1DCE07B23E35C022B00D1FAE0CD
:10586C00BB23E35C022B00D1E3E0FB23E35C022BC4
:10587C0000D141E13C23FF33E35C022B00D126E154
:10588C007C23FF33E35C022B00D10BE1BC23FF3301
:10589C00E35C022B00D1F0E0FC23FF33E35C022B32
:1058AC0000D1EFE1B64BE35C022B00D1D6E1B54B56
:1058BC00E35C022B00D1BDE1B34BE35C022B00D1C6
:1058CC00A4E1B24BE35C022B00D18BE1B04BE35C67
:1058DC00022B00D172E1AF4BE35C022B00D133E120
:1058EC00AD4BE35C022B00D118E1AC4BE35C022B1B
:1058FC0000D1DCE1002E08D1A94B1B78002B04D180
:10590C008021A84A90338902D15001AE984B0C22C9
:10591C00002130009C6C00F01BFC03236405640D1B
:10592C007370300002940121802400F01DFB9E4E08
:10593C00A402EB0668D480235B021D4214D0012222
:10594C0023211C438C4B5A54DA70C023974ADB003A
:10595C00019302AB03CA03C3012101A800F004FBAD
:10596C008022904B92021A6580235B011D422FD13D
:10597C008023DB011D421AD180231B021D4204D15E
:10598C00AC4200D0ADE105B0F0BD01AE0C2200215F
:10599C0030001C4300F0DCFB052301217370300048
:1059AC0000F0E2FA80227F4B12011A65E8E701AEA3
:1059BC000C22002130001C4300F0CAFB04230121FF
:1059CC007370300000F0D0FA1022764B1A65D3E7D2
:1059DC001C430023664F01AE3B60FFF773FE0C22A5
:1059EC000021300000F0B4FB012301217370300062
:1059FC0000F0BAFA80226B4B12031A65FB6CDB03C6
:105A0C00B6D500F0BDFBB3E7FFF7BAFE340092E762
:105A1C003833E65C002E00D11DE70233E25C002A2D
:105A2C0000D118E700222000E254203000F03EFAAA
:105A3C0011E7B833E35C002B00D116E7BC22A15C64
:105A4C001E00002900D110E700232000A354A03031
:105A5C0000F02CFA09E77833E35C002B00D1FFE669
:105A6C007C22A15C1E00002900D1F9E60023200055
:105A7C00A354603000F01AFAF2E6B933FF33E35C5A
:105A8C00002B00D108E7DE225200A15C1E00002989
:105A9C0000D101E720000023A130A354FF3000F017
:105AAC0005FAF9E67933FF33E35C002B00D1EDE620
:105ABC00BE225200A15C1E00002900D1E6E62000A7
:105ACC0000236130A354FF3000F0F0F9DEE63933E7
