:020000041000EA
:1000000000B5324B212058609868022188439860DF
:10001000D860186158612E4B002199600221596106
:100020000121F02299502B49196001219960352056
:1000300000F044F80222904214D00621196600F024
:1000400034F8196E01211966002018661A6600F04E
:100050002CF8196E196E196E052000F02FF8012189
:100060000842F9D1002199601B49196000215960AB
:100070001A491B48016001219960EB211966A021F2
:10008000196600F012F800219960164914480160C1
:100090000121996001BC002800D000471248134993
:1000A000086003C880F30888084703B5996A0420EC
:1000B0000142FBD001200142F8D103BD02B5186610
:1000C0001866FFF7F2FF186E186E02BD00000240BE
:1000D000000000180000070000035F00212200005C
:1000E000F4000018222000A00001001008ED00E03C
:1000F00000000000000000000000000074B24E7A12
:1001000000200420F7010010C3010010C5010010F9
:10011000C1010010C1010010C1010010C101001097
:10012000C1010010C1010010C1010010C701001081
:10013000C1010010C1010010C9010010CB01001065
:10014000CD010010CD010010CD010010CD01001037
:10015000CD010010CD010010CD010010CD01001027
:10016000CD010010CD010010CD010010CD01001017
:10017000CD010010CD010010CD010010CD01001007
:10018000CD010010CD010010CD010010CD010010F7
:10019000CD010010CD010010CD010010CD010010E7
:1001A000CD010010CD010010CD010010CD010010D7
:1001B000CD010010CD010010CD010010CD010010C7
:1001C00000BE00BE00BE00BE00BE00BEEFF3058054
:1001D000103800BEF2EB887108600010306000102B
:1001E0003402001090A31AE700201F49086006C8D7
:1001F00081F3088810471D48006800282FD10DA4FE
:100200000ECC002902D000F012F8F9E71849194A7B
:10021000002000E001C19142FCD1174988471749ED
:1002200088471749884700BEFDE701C901C29A42C5
:10023000FBD3704730600010C0000020102F00205A
:10024000808E00100000042000000420808E00102A
:10025000001004200010042000000000704709482E
:1002600001F072FF0047000008ED00E0000000D040
:10027000202F0020B43D0020C11F001005040010F5
:10028000B52000105756000006005250ABB3605323
:10029000905D001006005250861C0302A05D001005
:1002A000060052505422A29DC45D00100500525019
:1002B000DE65F468808E0010F8B5C04610B5064CB7
:1002C0002378002B07D1054B002B02D0044800E017
:1002D00000BF0123237010BD203200200000000069
:1002E000905B0010044B10B5002B03D00349044869
:1002F00000E000BF10BDC046000000002432002016
:10030000905B0010FA22024B92001A607047C046C0
:10031000000E0020FA22014B1A607047000E0020E8
:10032000014B024A1A607047000E0020C409000009
:10033000FA22024B92001A607047C046000E00205D
:1003400010B5002901D0002A00D110BD2222024997
:10035000002003F0ABFDF8E7905B00107047C0464B
:1003600070B584B003E0002003A903F0A5FF0021CD
:10037000002003F08BFF0028F5D101F0A7F8002939
:1003800031D0FA220023920001F04EFF8F211A4A49
:1003900049001368C01A884223D3184C5B181360B5
:1003A00023685E1E26D4164D01AAEB5C9021537083
:1003B0007F231170937000217C3B002003F0BCFF71
:1003C000802302AA1370AB5D002553700021032324
:1003D0000020957003F0B0FF236801333F2B07D94D
:1003E000256004B070BDFA21890001F0DFFECDE781
:1003F0002360F6E73F26D6E78C3D0020683D0020CD
:10040000B45B0010F0B5D6464F464646C0B592B034
:1004100002F04CFC002002F071FE2F4B2F4D98464D
:100420006B462F4FDC1D1CE0FA220023920001F0E6
:10043000FBFE2B683A68C01A90420BD39B182B60C6
:100440004346187802F04AFC434601221B78534089
:1004500042461370002003F089FC00280FD1FFF7FB
:100460007FFF01200021404202F0CAFE01F02EF879
:100470000029D9D1FA21890001F098FED9E700209E
:1004800003F08EFC0028EAD04022002002A903F0ED
:1004900097FC00281CD002AEB1460A2381449A463C
:1004A00002E001364E4513D033780122237021003B
:1004B000002003F0FBFC33780D2BF2D153460122D0
:1004C000210000202370013603F0F0FC4E45EBD1F3
:1004D000002003F0AFFCC2E7B03D0020883D0020C3
:1004E000000E0020F0B5C64600B588B08C4602A9C3
:1004F00098460B000E4C170024CC24C31D000D4C55
:1005000045CC45C3227860461A700B4B07220193F5
:1005100002F054F929000C22380002F04FF90322AE
:10052000404601A902F04AF908B080BCB846F0BDC7
:10053000F45B0010FC5B0010312E3000012070478E
:1005400010230B60F133FF33138070470120704795
:10055000180010B50F2908D849028918044A8918CB
:10056000029A02F02BF9029810BD01204042FBE7ED
:10057000040E0020080010B519000F2808D840020A
:100580008018054A8018029A02F018F9029810BDE6
:1005900001204042FBE7C046040E002010B50023B6
:1005A0002022052104F0DCF90120404210BDC046A4
:1005B00010B502F09DFB044B1860002801D10348E0
:1005C00010BD0348FCE7C046603D0020F05C001011
:1005D000045D0010034B1B68002B01D102487047DB
:1005E0000248FCE7603D0020485C0010285C0010D9
:1005F00070B5002826D0032831D81A4B8000C65881
:10060000300005F023FAC0B2011C1F2815D8C9B26A
:10061000002821D00023144DAA1CF05C0133DCB269
:1006200010800232A142F8D8C0230131C9B249007A
:100630009B0019432800298070BD1F21C9B20028E2
:10064000E8D109E0084D074B02221968A81C02F006
:10065000B5F8C1218900EDE70449034DEAE7002020
:10066000EAE7C046042E00209C330020020300006D
:10067000094A830094464022634410B51C68C000B8
:100680006240C02414408022520113431C60034B7B
:100690009C466044416010BD04C0014000400140E0
:1006A000034BC0009C46604443681F2018407047BD
:1006B000004001400A4B80009C460423604400290E
:1006C00001D00C230821002A00D10B0002685340FE
:1006D0000C221A4080235B01184302607047C04619
:1006E00004C00140074BC0009C46604403680904F5
:1006F0005940C0239B02194080235B0118430160CD
:100700007047C04604400140074BC0009C4660440F
:10071000036809035940C0239B01194080235B01F2
:10072000184301607047C046044001400123D022B5
:100730008340120693629361094A830094464022E3
:1007400063441968C0004A40C02111408022520110
:1007500013431960034B9C46052360444360704774
:1007600004C0014000400140024B18688007C00FE0
:100770007047C04600C006408023DB051868000FA4
:100780007047C04670B5EFF3108C72B60D4D2B68F4
:10079000002BFCD0BFF35F8F0724CB08C618C05CCA
:1007A00001230C40A3401C000440034207D1034333
:1007B0003370BFF35F8F2C608CF3108870BD100016
:1007C00001F07CFC2C0100D0F8B54746CE468846A7
:1007D00080B5EFF3108C72B6214D2C68002CFCD044
:1007E000BFF35F8F9A422CD8D4080727055D0619FE
:1007F00001241740BC402C421FD007210127894605
:1008000009E0D408055D06194C4639001440A140A2
:100810000C00294211D001329342F2D20120404211
:10082000BFF35F8F00220E4B1A608CF310880028F4
:100830000FDBC0BCB946B046F8BD2C431000347085
:10084000EEE7BFF35F8F00232B608CF3108801204D
:1008500040424346002BECD0089801F02FFCC046E4
:100860002C0100D00021044B044ABFF35F8F02C368
:100870009342FAD17047C046000100D0800100D0F9
:10088000044A1078431CDBB2172B00D910231370D5
:100890007047C046142E002000B5054B83B0010000
:1008A000009318221F230348FFF78EFF03B000BDFB
:1008B000185D0010E038002001238340002904D097
:1008C000034A1360034A13607047034A1360FBE74F
:1008D00080E200E000E100E080E100E0024B103047
:1008E0009B688000C058704700ED00E070B50D00B7
:1008F000EFF3108672B60F4A1368002BFCD0BFF3DB
:100900005F8F0D4B10309B6884001B590B4A93423C
:1009100003D09D4201D001F0E9FB074B9B681D51BC
:10092000BFF35F8FBFF35F8F0022024B1A6086F325
:10093000108870BD240100D000ED00E0CD01001052
:10094000F0B557464E46DE464546E0B585B0060052
:1009500002911700EFF3108B72B6674A1368002BF1
:10096000FCD0BFF35F8F0025644B5D579A46002D86
:1009700000DAA4E06B00624C03935B199B0098467D
:10098000A146C1444B4652469B79103613705D4BCD
:10099000B2009B68019299580B1B2F2B34D95A4BEC
:1009A000994200D0A4E0039B584A9C46584B6544AA
:1009B000AD006353434602336519E418554B0121DA
:1009C000043B1B1B1B055B0D13436B80524BEF71EC
:1009D000AB80FF23AB71029BAB604B460B4319000E
:1009E000484B019A9B689950BFF35F8FBFF35F8FAD
:1009F0000022414B1A608BF3108805B0F0BCBB4657
:100A0000B246A946A046F0BD01200A008243D37930
:100A1000BB422FD845464E46130040491B1B5B4145
:100A20005943090D3A4B63533A4B02356519043B60
:100A30005B1B1B05354D5B0D2B4373800426B446B1
:100A4000E0444444131F1B1B4C46A17102991B0533
:100A5000A16049465B0D2B43A380314BE7710143F5
:100A60001360BDE75800C01880002018C679BE4248
:100A70002BD902000623D356002BF3DA101D824631
:100A80002848804604267642B446E14450464E4605
:100A9000361A3005400D824656461C48957106436D
:100AA0009680039A944665441D4AAD0064192260FD
:100AB0004246A371029BA280E771A36090E701F018
:100AC00015FB002553465D5754E7101D824690885C
:100AD0004005001584464046D4446646043020183C
:100AE000301AE0260005400D360230438046C9E743
:100AF00001F0FCFA57E7C046240100D0AF3D0020CA
:100B0000182E002000ED00E0CD01001000E0FFFFF6
:100B100000A1FFFF482E002001BDFFFFAAAA000090
:100B20000148804701BD0000F0B5DE4657464E46FD
:100B30004546E0B50C0083B0EFF3108972B6584A11
:100B40001368002BFCD0BFF35F8F564B9A680300ED
:100B500010339F00D559544A9046954232D0A54251
:100B600043D0524EAA1B2F2A2CD8012282409246F3
:100B700051464F4A12681140019151464D4A116049
:100B8000BFF35F8FEFF305829346002A33D1012331
:100B90002A009A4393689C4208D177E04B005B1887
:100BA0009B00F3189968A1422AD01A0006215156D9
:100BB0000029F3DA019B002B19D052463E4B1A60F4
:100BC0003B4B1A60374B9B68DD51BFF35F8FBFF320
:100BD0005F8F0022324B1A6089F3108803B0F0BC9B
:100BE000BB46B246A946A046F0BD1500EAE752460C
:100BF000304B1A60E6E79342C9D001F077FAC6E7B6
:100C000006215956002921DB4A005018800034186B
:100C10008046A0689860E079D871062020569871C7
:100C2000002824DBA488F01A640524154444001924
:100C3000E0240005400D24022043988052181F4BE9
:100C40009200B6181A781970B271B3E759460029A4
:100C50000FD1FF3191711A49918018490A789A7120
:100C6000184A9B1B5B415A43120D0A70A2E71648B3
:100C7000E3E7164A1649D21A083A5002400D0143DA
:100C80009980144952080A43DA8093E706215156A5
:100C900013000029B8DA5A46002AEAD14546DCE7B3
:100CA000240100D000ED00E0CD010010182E00203E
:100CB00000E100E080E100E080E200E0AF3D0020E4
:100CC00001BDFFFFAAAA000001BD0000522E0020B6
:100CD00000F0FFFF00F8FFFF70B5EFF3058101247E
:100CE0000443EFF3108C72B6214A1368002BFCD03A
:100CF000BFF35F8F1F4B05001F4AED1A6D416A431A
:100D0000120D1E4D8900AE6852B27658A6421CD014
:100D10000621595691421CD012215956914222D097
:100D20001E215956914220D02A215956032491421E
:100D300010D0134B19781A708171BFF35F8F0022A6
:100D40000B4B1A608CF3108870BDAB680D4C5C5077
:100D5000EFE700246100091989005B18FF219971F0
:100D600009499980E5E70124F4E70224F2E7C04647
:100D7000240100D0182E0020AAAA000000ED00E0F7
:100D8000AF3D0020CD01001001BDFFFF054B064A1D
:100D90001360064A136053609360D360136153611C
:100DA000936170478080808000E400E004E400E00C
:100DB000024B9C466144890001607047400000344A
:100DC00010B50400FFF75CFD01002000FFF7F0FF05
:100DD000FF232371BFF35F8F10BDC04610B5040021
:100DE000FFF74EFD01002000FFF7E2FFFF23A38085
:100DF000BFF35F8F10BDC04610B504000120FFF7A0
:100E00004BFD044B9C46604480002060BFF35F8F25
:100E100010BDC0464000003483680B4810B58446BE
:100E200061446244090112019A18591854684B68C8
:100E300001209C4201D802D00020C0B210BD12682F
:100E40000B689A42F9D8F7E7FFFFFF0F0A4B1968C2
:100E5000EFF3108072B60A68002AFCD0BFF35F8FF0
:100E60001B68BFF35F8F00221A6080F3108840BFB9
:100E7000002000217047C046843D0020F8B5574649
:100E80004E464546DE46E0B599460CAB1C780DABA8
:100E90001B78060090469A460768002C11D1BC7B4F
:100EA000002C42D065003B682D19033D59194B7841
:100EB000BB73002B00D1FB7300238B704B700B7046
:100EC00004E065003B682D19033D5919B2682A4BAF
:100ED00094464246E3181B0163441A604A465A602E
:100EE0000A9A9A600B9ADA6000238B704B700B7031
:100EF0007B7B9B46002B2BD022005946B8687B6831
:100F000098473A68002816D05B4658465B005B4419
:100F10005519033BA870D118D35C002B00D06B701F
:100F20005B460C707B73A34513D0F0BCBB46B24646
:100F3000A946A046F8BD5B465B005B44033BD31863
:100F40009C705119525D002A00D05A705B460B709C
:100F50007C7342464B46307D00F032FB051E06D0C6
:100F60005346002B03D12100306800F04DFD0E9B4D
:100F7000002BDAD01D70D8E7FFFFFF0FF0B5DE467B
:100F800057464E4645460023E0B58BB00893674B65
:100F90008200D45800239B46099000F097FA6268BB
:100FA00006000F00EFF3108572B61368002BFCD01B
:100FB000BFF35F8F23689C465B7B9946002B00D173
:100FC00069E0A2685A4B90464B441B019844434643
:100FD0001A685B6810001900801BB941002900DC09
:100FE00063E0099800F0ECFA002300229846002301
:100FF0000692079300239A466368BFF35F8F5A46B1
:101000001A6085F310885346002B08D10028C4D1FC
:101010000BB0F0BCBB46B246A946A046F0BD089B4B
:10102000414618024B461843D047626806000F003D
:10103000EFF3108572B61368002BFCD0BFF35F8FFF
:10104000002F50DB33003B4302D02369002B61D1DA
:101050002368D97B002907D04A00521819688C46AA
:1010600049466244033A51709A7B002A01D14A46AC
:101070009A734A46DA734B46E168013BCA5C013217
:10108000CA545B4623616368BFF35F8F5A461A6098
:1010900085F3108881E700230022984600230692FA
:1010A0000793002300209A46A6E7002902D10028D2
:1010B00000D096E70021604600F024FC43461A6801
:1010C0005B680692079343469B689A464346DB68F3
:1010D0009846E3684B44013B1B7808931B0203438B
:1010E0002361002088E72369002BB1D0069A079B73
:1010F000921BBB41002B15DB594604910121039142
:101100004946029141460191514620000091FFF766
:10111000B5FEB6E700F0DAF932003B0012184B4199
:10112000002BE9DA0122034B5242E5E7703D002033
:10113000FFFFFF0FFFFFFF7F10B5144C6368002B0C
:1011400004D00A211248FFF733FE10BD2300114AD4
:101150001021206800F0F0FA032000F0ABF9032022
:1011600000F098FA03200C4900F0E4F9FFF788FB3F
:101170000A4B9C4603232375D0231B061B6860443F
:101180006375074B80006060DC60DAE7602E00204A
:10119000843D0020190E00107D0F00104000003427
:1011A000703D002000487047602E0020F0B54E468C
:1011B0004546DE465746E0B585B0019310AB1B7837
:1011C0000600039300239946984600927268EFF355
:1011D000108B72B61368002BFCD0BFF35F8F35689D
:1011E000AC7B002C3DD067002B683F19033FDB1917
:1011F0005A78AA73002A00D1EA73B168474A8C462C
:1012000000980199A21812016244106051600E9971
:1012100091600F99D16042469A705A701A706B7B38
:101220009A46002B67D022001900A8686B6898477F
:101230002A68002852D0534650465B005344D719C1
:10124000033BB870D118D35C002B00D07B705346A1
:101250000C706B7354454FD0F3681B19013B187821
:1012600000E000207368BFF35F8F42461A608BF383
:101270001088002C4FD04B46002B08D10002204391
:1012800005B0F0BCBB46B246A946A046F0BD039BE4
:10129000002B3ED00E9B00200F99984703000400BE
:1012A0000D000B4335D000290ADA009A019B121B6E
:1012B000AB4100920193002B0ADB039B994685E723
:1012C00000F004F924184D4100940195002DF4DA42
:1012D0000123134C5B4200930194EEE753465B00FD
:1012E0005344033BD3189C70D119D25D002A00D01F
:1012F0005A7053460B706C73307D009A019B00F05E
:101300005FF981460028A7D02100306800F07CFBFF
:10131000A2E70020B4E701204042B1E7FFFFFF0F42
:10132000FFFFFF7FF0B5EFF30583CE46474680B55C
:1013300005000C0085B0002B12D02C4A0020536A07
:101340009C4203D8926A0130AA4204D305B0C0BCC3
:10135000B946B046F0BDE01A421E9041C0B2F5E772
:10136000234E02930193234B0200009330000B00A5
:10137000FFF71CFF031EE0DD20BF7168EFF310874D
:1013800072B60A68002AFCD0BFF35F8FDAB29446C7
:101390003068427B62451DD0FF221A4051008946C9
:1013A00001689144884649464144033989780029B7
:1013B00013D0F1681B0A88464244013A1278DBB226
:1013C0009A420FD07368BFF35F8F00221A6087F3D1
:1013D0001088B2E7FF221A40EBE732699342F1D15D
:1013E0003161EFE7614600F00FFBEBE7004005409D
:1013F000602E00204D0E0010F0B5EFF30582D646AA
:101400004F4646461000C0B51038EFF3108872B64C
:10141000214C2368002BFCD0BFF35F8F0123190000
:1014200081401E4D1F006963AA461D4D29601D4D58
:101430002E78AC463500C5402F402B4209D1BFF372
:101440005F8F276088F31088E0BCBA46B146A84693
:10145000F0BD5346144D5F6A83005D59AF420ED311
:10146000124A8E439B5862461670BFF35F8F00226C
:10147000226088F31088002BE6D09847E4E70C4BF5
:1014800092009C46624413681360BFF35F8F002391
:10149000236088F31088D7E7280100D0004005407A
:1014A0003C700540B13D0020903D0020C838002030
:1014B000D03F054010B50100024A0348FFF762F92A
:1014C00010BDC046345D0010AE3D0020034B596A8C
:1014D0000A00986A596A8A42FAD17047004005406A
:1014E00070B504000D00124A536A1900966A536AD7
:1014F0008B42FAD13000190024184D41AB4211D86B
:101500000ED02B000A494A6A9A42FCD307D1084AF6
:1015100002E0516A994202D1916AA142F9D370BDA9
:10152000A642EED9012301246442E5175B42E9E7B4
:101530000040054070B504000D00EFF3108672B650
:101540001A4A1368002BFCD0BFF35F8F002D1BD00D
:101550002000FFF7C3F9164981420AD02000FFF7A7
:10156000C5F901212000FFF7A7F90123A340114A83
:101570001360114BA400E550BFF35F8F00220B4BAB
:101580001A6086F3108870BD0B4BA200D550012263
:10159000A2400A4920000B7893430B700449FFF7DF
:1015A000C3FA00212000FFF787F9E5E7280100D002
:1015B000F913001038600540C8380020B13D002004
:1015C000F0B54F46D6464646C0B507002C4C616A7A
:1015D0000D00A66A616AA942FAD18B4208D805D0EB
:1015E0000120E0BCBA46B146A846F0BDB242F7D9E8
:1015F000EFF3108A72B6234801680029FCD0BFF3CC
:101600005F8F0125BD4020491D4C884609788946D9
:101610002943C9B28C46414660460870391D1B48B3
:10162000890065630A51B9000B50216A00202942E4
:1016300019D0616A0800A66A616A8142FAD18B42B8
:1016400019D801D1B24216D8CC4516D00C4B1F2068
:101650001D625D6301230740BB400D4A1E381360C5
:1016600043464A461A70BFF35F8F0022054B1A604B
:101670008AF31088B5E70020F5E70120F3E7C046BC
:1016800000400540280100D0B13D0020903D0020E1
:1016900080E200E0EFF3108C72B60A490B68002B71
:1016A000FCD0BFF35F8F01238340074A07481362D2
:1016B00002789A430270BFF35F8F00230B608CF3B4
:1016C00010887047280100D000400540B13D00203F
:1016D00070B5050014001600002915D00C00002A72
:1016E00012D080686B689847296800280ED0730074
:1016F0009B196200033B1219CB18033A9C7088189F
:101700008A5C002A15D10670200070BD63001B1989
:101710007200033B9219CB18033A9E7088188A5CBA
:10172000002A02D104703400EEE75A7004703400CD
:10173000EAE75A700670E7E730B583600023CCB261
:1017400043730133047342608373C4730D000068F4
:10175000012C06D9421C0133DBB2137003329C42C8
:10176000F9D1FF2129404B005918002340180338B4
:10177000437030BDF8B5CE46474606000C0080B534
:10178000002907D04D0003686D18033D5A1957789A
:10179000002F04D12000C0BCB946B046F8BD790086
:1017A000C91903398846434459788946002159703C
:1017B000517073683A0021008068984733680028A8
:1017C00014D042469A18947059195B5D002B00D0D2
:1017D00053700F70270049463000FFF7CBFF3900E8
:1017E00002003000FFF774FF0400D3E74246414691
:1017F0005D19AF709A185B5C002B00D06B70147091
:10180000E9E7C046F0B557464546DE464E46E0B5E8
:101810000D006B0001685B19DF1E0400C85D83B01A
:101820000192CA19002850D043001B18033BCB1863
:101830005E78B446002E1AD1019E002E42D0E67B7F
:10184000002E04D073009B19CB18033B5D70A37B63
:10185000002B00D1A573E57300282FD1002353700E
:1018600003B0F0BCBB46B246A946A046F0BD72002C
:101870006244033A89184A78904600224A70914699
:101880005A70010032002000FFF722FF43468246D3
:10189000002B07D05B0021684344033BCB185A78E8
:1018A000002A16D1424651462000FFF711FF216859
:1018B000019BCA19002BC2D10028CFD043001B18AE
:1018C000033BCB1800219970C8E7019B002BB6D1D0
:1018D000C4E7500080180338091848788346484602
:1018E0004870587041462000FFF7F2FE5946804686
:1018F0002000FFF73FFF414602002000FFF7E8FE0F
:101900008046CFE7F0B557464546DE464E46E0B541
:1019100083B00191457B04006B0000685B19DF1EFA
:10192000C15DC219002952D04B005B18033BC3189C
:101930005E78B446002E1CD1019E002E44D0E67B7A
:10194000002E04D073009B19C318033B5D70A37B6A
:10195000002B00D1A573E573002931D100232800A5
:101960005370617303B0F0BCBB46B246A946A046B3
:10197000F0BD72006244033A80184278904600221B
:10198000427091465A7020003200FFF7A1FE434694
:101990008246002B07D05B0021684344033BCB18F1
:1019A0005A78002A17D1424651462000FFF790FE90
:1019B000019B01002068C219002BC0D10029CDD0A5
:1019C0004B005B18033BC31800209870C6E7019BCF
:1019D000002BB4D1C2E750008018033809184878AA
:1019E000834648464870587041462000FFF770FE15
:1019F000594680462000FFF7BDFE41460200200008
:101A0000FFF766FE8046CEE770B5040000292CD0B3
:101A1000437B8B422ED005684800401803382818B5
:101A20008278002A21D053009B18033BEA5CEE1811
:101A30008A4202D11BE0002A08D053009B18033BC6
:101A4000EB185A788A42F6D142785A700023012264
:101A5000837043702000FFF7D5FE617B02002000F9
:101A6000FFF736FE6073012000E0002070BD437870
:101A70003370EBE701221900FFF7C4FE6073012009
:101A8000F4E7C046F8B5CE464746040080B50620C8
:101A90000E0000F023FA051E51D0524B5249E218B5
:101AA00053425A418023DB039C4692054F4B6244CC
:101AB0001A604F4B1A6010008B689843FBD1494B5A
:101AC0008021E3185A4253414A4A5B004900995227
:101AD000062000F003FA3100C00000F067FBC309E4
:101AE00032D14022012190466162A362256BEB074F
:101AF00036D427008026E36A00232C3776013E4344
:101B000033600620256300F0E9F94146800000F0CB
:101B10004DFB236B05009846DB073BD46022E36A4C
:101B20005A406E23134033604346236380231022C0
:101B30009B013B431A60304B23630323A3642800BB
:101B4000C0BCB946B046F8BD2C4A93423FD90023E9
:101B50002B492C4A6162A362256B9046EB07C8D5DE
:101B60002200C02330329B011343234A06201A600F
:101B7000666AA26AB601B61800F0B0F9224900F010
:101B800015FBB6020100300000F010FB0021FFF74A
:101B9000A7FCAEE72200C02330329B011343164A54
:101BA00006201A60636AA26A9B019946914400F07C
:101BB00095F94B4614499B02994600F0F7FA01004B
:101BC000484600F0F3FA0021FFF78AFCA6E77F22DF
:101BD00099018846104001304008190080440300F4
:101BE00082E7C0460080FCBF00C0004000E000402B
:101BF00000F00040A03D002001030000FEFF0000B7
:101C0000FFFF0000C0FF3F004E0E000030B50C206B
:101C100083B000F0B9F9FEF7A7FD00280ED0994B6C
:101C2000994A1A605A609A60DA601A615A619A6138
:101C3000DA611A62954A5A6203B030BD944CA067CB
:101C400000F0AAF90122934B1A60636C012BFCD1BE
:101C50000322914B1A608E4A936B012BFCD1013306
:101C600001218E4A8E480093043300F03DF905238C
:101C70008C4A009301218C4800F036F98B4B5A684E
:101C8000FF2A02D8802252005A6080227D4C824B6B
:101C900021691201854D1A60002907D0606900F0A2
:101CA00085FA431C5800C0180338FDD2E0217F4B51
:101CB00002201A681140802252012A4311601968DB
:101CC000484003210140116004219A681142FCD070
:101CD0008022802192012A43090111608022520052
:101CE0005A60734B2361734B5968FF2900D85A60BF
:101CF0000321684A6F4B116002399A681142FCD087
:101D0000E0201A681040802252011A4310601868BF
:101D10004840032101400220116066498A68104250
:101D2000FCD0802292011343802212011A6080228B
:101D3000614B52004A606361604B5968FF2900D8CB
:101D40005A6080225E4BE16912015C4D1A600029E5
:101D500007D0606900F02AFA431C5800C018033805
:101D6000FDD2E02255490B681A4080235B012B43CA
:101D70001A60802380229B012B4312011A6080226B
:101D8000414B52004A60E3614E4B5968FF2900D82D
:101D90005A6080224C4B216A12014A4D1A60002978
:101DA00007D0606900F002FA431C5800C0180338DD
:101DB000FDD2E02243490B681A4080235B012B438C
:101DC0001A60802380229B012B4312011A6080231A
:101DD00080225B004B602C4BD20223623B4B596844
:101DE000914200D25A608022394B616A1201374D0C
:101DF0001A60002907D0606900F0D8F9431C580028
:101E0000C0180338FDD2E02230490B681A40802305
:101E10005B012B431A60802380229B012B4312011C
:101E20001A608023DB024B60184B6362294B5A68AF
:101E3000FF2A02D8802252005A608022264BA169D4
:101E40001201244D1A60002907D0606900F0AEF934
:101E5000431C5800C0180338FDD2E0221D490B680E
:101E60001A4080235B012B431A60802380229B0150
:101E70002B4312011A6080235B004B600E4BA36161
:101E8000DAE6C046E4380020006CDC021BB7000034
:101E9000008000403CB0004030B00040002F685946
:101EA00000800240008C864700C002403080004025
:101EB000001BB7003C80004040597307548000402D
:101EC00054B000406080004060B000406C80004032
:101ED0006CB000404880004048B00040014B80009A
:101EE000C0587047E4380020F8B5040021481D00B0
:101EF00017000E0000F05AF90100380000F056F902
:101F0000069B29041B0319432368002B20DB1A4B73
:101F10001A4DE21853425A4180235B019C4612033A
:101F2000174B62441A60174B1A601700AB689F4347
:101F3000FBD1C022231D92011A4321232660A060F9
:101F400013602368002BFCDA0823E1601360F8BDFE
:101F50003F2322681340B342D9D1A3681B051B0D50
:101F60008342D4D1EE22E368D20213408B42CED119
:101F7000EDE7C046001BB7000040FDBF00C00040B9
:101F800000E0004000F000408023024A9B00034331
:101F9000D362704700800540AA23064A1B011360E4
:101FA0002F230549D360054B19605368002BFCDAD9
:101FB0007047C0460040024000B0FA000060024096
:101FC0002C4B2D4A70B51A602C4A2D4B2D491A60A6
:101FD00014008B689C43FBD12B4D2C4EB54208D28C
:101FE000013E761BB60808CD984723000134B34262
:101FF000F9D1FFF70BFE264A214B1A60214A93685C
:10200000DB43DB01DD09002BF9D14022214B224CBF
:10201000224E9A675A671A67DA66B44208D2236872
:102020002000002B20D00834FEF7D8FEB442F6D3AF
:102030001B4E1C4CC022A168300000F0BFFBA66004
:10204000FEF710FCFEF7A2FEFFF776F8164C174ECF
:10205000B44208D2013E361BB60808CC98472B0084
:1020600001359E42F9D170BD0834FEF7A9FEB44295
:10207000D5D3DDE700E00040BFCDFBFEFE7F3C0096
:1020800000F0004000C00040F82E0020082F002083
:10209000FFFFFF0100F00140F02E0020F82E00208D
:1020A0000000002000ED00E0082F0020102F00208D
:1020B00000BEFDE710B5FFF7FBFFC0460FB400B54B
:1020C000084883B000F0ACFC049B002B07D005A9A6
:1020D0001800019100F018F8034800F0A1FC01205D
:1020E000FFF7E6FF585D0010685D001010B501486D
:1020F000FFF7E4FF6C5D001010B5002800D110BDA3
:1021000000F042FCFBE7C04610B5094A0300146822
:1021100084B0002C08D0012200910648524203A945
:10212000A047012004B010BD00F07AFC0020F9E7C0
:102130005C3D0020F920001001480421014B1847A4
:10214000902E002069210010142310B5010018887A
:1021500004331B88984710BD162310B5010018885A
:1021600002331B88984710BDF8B54746CE4680B568
:102170000F1E19D0142399460433040000250126AC
:1021800098464B461888434621681B88984701C4E7
:10219000431E9841013540420640AF42F1D1300024
:1021A000C0BCB946B046F8BD0126F8E7114A936FA6
:1021B0009B0813D210665166002905D0FFE7FFE7A0
:1021C000FFE7516F106F704704B5002801D0002061
:1021D000C04303F095FC002104BDC046F0B5146E69
:1021E000556E576F166FFFF7E5FF14665566576714
:1021F0001667F0BD000000D094464A4A926F9208DC
:10220000624601D228E0C046F0B5464E346E756E87
:10221000776F366F00F020F89446424A1466556690
:10222000576716676246F0BD94463E4A926F920821
:10223000624601D254E0C046F0B53A4E346E756E37
:10224000776F366F00F04CF89446364A1466556640
:10225000576716676246F0BD002B24DB11D00029BA
:102260003EDA00B5C943404200D1013100F038F8F0
:10227000C943404200D10131DB43524200D1013316
:1022800000BD002AEBD1002801D1002905D0002093
:10229000C90FC90701D1C043410800B503F010FCC4
:1022A0000022002300BD00B500290ADBDB435242B7
:1022B00000D1013300F014F8C943404200D101318C
:1022C00000BDC943404200D10131DB43524200D13D
:1022D000013300F005F8DB43524200D1013300BD69
:1022E000002923D1002B18D1002A0CD0BC460D4F59
:1022F00038667A6600210023FFE7FFE7FFE77A6F81
:10230000386F67467047002801D00748010000B5C4
:1023100003F0D6FB0022002300BD02000B000020CA
:1023200000217047000000D0FFFFFFFF002B00D00E
:10233000BFE0130C28D1002AE7D080B4114F3966D2
:102340007A66FFE7FFE730B4040C7B6F396F1B043C
:1023500023433B667A66FFE7FFE7FFE7C04684B2A8
:102360007B6F3D6F1B0423433B667A66FFE7FFE705
:10237000C04600232C042D0C7A6F386F0019694178
:10238000B0BC7047000000D0F0B594460025140E94
:1023900001D112020835140F01D112010435940F36
:1023A00001D192000235D40F01D152000135D40B76
:1023B0000134254F7C66254C3C660E0C93B2FFE73A
:1023C000FFE7FFE73C6F6643360C7703BE46734377
:1023D000DF0B5B04C01AB941130C7343DB18C91A35
:1023E000CE086643360CB64493B273431F0F1B01ED
:1023F000C01AB941130C73431F0B1B05C01AB94116
:10240000860D8F023E436643360C092D24DB520AAB
:102410007243801A7703460A6643360C16235B1B09
:10242000DE40DF40BF1964466643821B70460435B8
:1024300006330100D940A840C01900D30131A2429F
:1024400006D20023F0BD0000000000D0FFFFFFFF18
:10245000121B0130F3D3F1E709277F1BFE406446CE
:10246000A2B27243801A00D20139220C7243130CBB
:102470001204821A99410B0070460435133701008B
:10248000F940A840801900D30131002B02D1A242AB
:102490000AD2F0BD013000D30131121BFAD2013B48
:1024A000F8D1A24200D2F0BD013000D30131121B9D
:1024B000F7E7F0B51C0C00D080E00CB400251C0A36
:1024C00004D11B02160E3343120208351C0B04D133
:1024D0001B01160F3343120104359C0B04D19B00E2
:1024E000960F334392000235DC0B02D192185B4108
:1024F00001351C00971864410134464F7C66464CF8
:102500003C660E0CFFE7FFE7FFE7C0463C6F664303
:10251000360C7703BE4697B27743C01B00D2013911
:10252000C01B00D201399FB27743C91BC91B170CCE
:1025300077437E04FF0B801BB941CE086643360CFF
:102540000C2D33DBB644120B1F053A431B0B97B21D
:102550007743C01B00D201399FB27743C91B170CC8
:1025600077433E043F0C801BB941860D8F023E43EA
:10257000664329277F1BFE400C3D7746AF40BF19BD
:1025800030BCA2B2ABB272437343801A9941220CA1
:102590007243130C1204801A994102000B00013798
:1025A000001BA941F9D2781E0021F0BD0C277F1B2A
:1025B000FE4077467F0BAF40FF19E0E700245D1C2B
:1025C00007D0144F7D663966FFE7FFE7FFE7FFE7B7
:1025D0003C6F95B29EB265436643401BB141150CFA
:1025E0001E0C6543664336042F0C3E432D04401BEE
:1025F000B141994204D202000B0020000021F0BD3D
:1026000001D19042F7D3801A994101349942F2D313
:10261000F6E70000000000D0FFFFFFFF132370B5B6
:102620001D78012D15D010DD1C48FFF795FD1C4CC1
:1026300001008022200000F0C1F8022D06D01948C8
:10264000FFF782FD184B186070BD154C174BA36443
:10265000F5E7164B124C23606360A360E3602361CF
:102660006361A361E36123626362A362E362236344
:102670006363A363E36323646364A364E364236524
:102680006365A365E36523666366A366E366236704
:102690006367A367E367A364D1E7C04653440000C0
:1026A000203000204C330000803D0020B126001077
:1026B00007B5604601880A0A0230DF2AFAD1C9B29A
:1026C000820804D3028840880004104300E00068B8
:1026D000014A5050039007BD20300020514343432E
:1026E000C9188C46110C83B24B4310B4040C6143DF
:1026F00092B280B2504362431C041B0C001910BC00
:1027000059411304120CC018514161447047000034
:10271000132310B512481C78FFF71EFD0100012C91
:102720000AD003DD80220F4800F048F80E48FFF77A
:102730000BFD0E4B186010BD0A4C5422200000F017
:102740003DF80B4B6365A365E36523666366A3668B
:10275000E36623676367A367E3672362E361E5E7F3
:1027600053460000203100204C330000803D002003
:102770007527001007B5604601880A0A0230DF2A73
:10278000FAD1C9B2820804D30288408800041043F9
:1027900000E00068014A5050039007BD203100203E
:1027A00001480421014B1847A02E00206921001088
:1027B000014B1B6818470000A02E0020014B5B68EE
:1027C00018470000A02E0020030010B508001100DB
:1027D0001B68984710BDC046F0B546464F46D646E2
:1027E000C0B5437D80460E001700002B46D0002A5E
:1027F0003FDD4B1E9946244B0125002400209A46BC
:102800000DE04B461B5D0D3B5A425341325DDBB23E
:102810000A2A0BD02B00013401359F421ADD002C0F
:10282000EFD14346325D1B7D0A2AF3D1002BF1D153
:10283000A04204DA4346211A1B68301898474346E1
:1028400050461B6802219847013428002B000135AF
:102850009F42E4DC874204DD4346391A1B68301886
:102860009847F619013E33780D3B5A425341424690
:102870001375E0BCBA46B146A846F0BD0368110026
:1028800030009847F5E7C046F45D0010F0B5DE462D
:1028900057464E464546E0B585B017001C00060079
:1028A0000D00FEF713FE0023304A12184B41002B97
:1028B00058DB2F4908008A4603F03AF901906B1C57
:1028C00003D1300003F0C2F80500002C25D1294BBC
:1028D0009846294B1C68002C15D0002F20D1274F7B
:1028E00002E02469002C0ED02368002BF9D03B684D
:1028F000002B01D0A342F4D120002A003100C047B0
:102900002469002CF0D1019B002B27D105B0F0BC2D
:10291000BB46B246A946A046F0BD194B9846D8E73B
:10292000164B994602ABDF1D0A239B4602E0246941
:10293000002CE8D02368002BF9D04B461B68002BF5
:1029400001D0A342F3D12A0031002000C0475B46EA
:102950000122390020003B70C047E8E7504603F0F1
:10296000A7F8D3E70122074B5242A2E740420F00EB
:10297000F02E0020D92700104C39002054390020B7
:10298000C9270010FFFFFF7FF0B5CE46474680B550
:1029900083B06B460600DD1D2870FEF797FD00230F
:1029A0001A4A12184B41002B2BDB194908008846A4
:1029B00003F0BEF8174B81461C68002C14D0164F4C
:1029C00002E02469002C0FD02368002BF9D03B686B
:1029D000002B01D0A342F4D1200001222900FFF7EF
:1029E000FBFE2469002CEFD14B46002B05D13000B3
:1029F00003B0C0BCB946B046F0BD404603F058F83D
:102A0000F5E70122054B5242CFE7C04640420F0096
:102A1000F02E00204C39002054390020FFFFFF7FAA
:102A200070B5040003F012F8002301000500012234
:102A30002000FFF72BFF084B1C68002C06D06368B2
:102A4000002B05D098472469002CF8D1280070BDD0
:102A50002469002CF3D1F9E74C3900200A4A1368A5
:102A6000002B05D10CE01A001B691032002B07D097
:102A70009842F8D1002902D10369136001617047BF
:102A80000029FCD01060FAE74C390020F0B50D1E8B
:102A900015DD0E4B0D271A680D4B4519D3185942F9
:102AA0004B410C495B005E5E20210478A64207D0B2
:102AB00093691942FCD101301460A842F5D1F0BDF0
:102AC00093691942FCD11760F2E7C046A83D002087
:102AD0000080FCBFA03D002030B504000D1E26DDA7
:102AE000002010211B4B013C1A689369194219D12F
:102AF000013093691942FCD1136823548542F4D103
:102B0000154B1B68002B0CD050239363516B183B63
:102B100034320B401100802252010A431360002816
:102B200015D030BD0C4B1B68002BEDD1F7E70A4BDD
:102B30001B68002B0BD050223821064B1B689A6370
:102B40005A6B343311408022520113431960032021
:102B50004042E6E7A83D0020D8380020064B10B5DB
:102B60001B68002B06D00021044A12689163044AB6
:102B70001068984710BDC046D8380020A83D0020F6
:102B8000DC3800201D4BF0B51A68C64698461C4B31
:102B90000E00D31859424B411A4F14331C00050044
:102BA00000B53B68002807D0002B11D0164B3D60C4
:102BB0001E6080BCB846F0BD002BF7D090630021AA
:102BC0002000FDF779FE20001049FDF7ADFFEDE78D
:102BD00020000E49FDF78AFE01212000FDF76CFE62
:102BE0004346502238211B689A635A6B3433114094
:102BF0008022520113431960D8E7C046A83D002047
:102C00000080FCBFD8380020DC3800205D2B00108D
:102C100070B50C4E0D001C003060002A03DB022151
:102C20001000FDF725FD002C03DB02212000FDF73D
:102C30001FFD29003068FEF725FF01210248FFF73C
:102C40000DFF70BDA83D0020B02E002010B5114C26
:102C5000114B22689A4210D1104B62689A420CD1F3
:102C60000F4BA2689A4208D100230E482360FFF759
:102C70006BFA0021030000209847074B00212360D6
:102C8000064B09486360064BA360FEF729FC00234E
:102C9000236010BD102F0020DE8116F0299B72BD2D
:102CA0007ABE59D355420000400D030010B51920DB
:102CB000FDF73CFDD0238022E1211B0692045A62DD
:102CC0000448054B0022186049020123FFF7A0FFCA
:102CD00010BDC04600400340A43D0020D023802208
:102CE0001B069204002801D05A6170479A61FCE7E4
:102CF00010B502F03DFF01235840C0B210BDC046E0
:102D000010B501210520FDF7D7FD10BD10B500223B
:102D10000021024800F05AF910BDC0467C3900205D
:102D20008022024B5202DA647047C04600201150E4
:102D3000F0B5C64600B5060000F022F90C231B4D85
:102D4000FF22AB6705201A49FDF7FAFD402398469C
:102D5000184C402200212000FFF72AFD434601279E
:102D6000238321210023144A6770A26013606354F7
:102D70005F31618441462187053963540F4A104908
:102D80006360E260A1620B606362E26202F0A0FE37
:102D900080239B052F64EB6490230A4A3000EA509D
:102DA000FFF7BEFF80BCB846F0BDC0460000115022
:102DB000D90300205C39002084001050000110501D
:102DC0008000105010D001000B785B0602D14B78C8
:102DD000052B00D070478A78014B1A60FAE7C0468D
:102DE00000001150F0B5C64600B54B790C791B02B6
:102DF00088782343CC787F21A4070140C509A20F1E
:102E00004F001400324E7A195201B218907001200E
:102E10006840507000205B055B0DD0701383D47642
:102E20008046CA00012D33D02A4884468801624476
:102E30008446B4446046826040461060002933D026
:102E4000254AC90090466246414451603F223F33C3
:102E50009343022C00D15B0020487A19016852018B
:102E6000B218D1601E4ACB180360514053408022F3
:102E700088465201934228D84346A4061C43802327
:102E80007F197F011B06F6191C4373681C6011E053
:102E900014488446880162448446B4446046826291
:102EA00040461060002909D100236D017619736036
:102EB0000D4BF360012080BCB846F0BD084AC90044
:102EC0009046624641445162C0E7FFF70FF9D3E7ED
:102ED0005C3900208400105004001050643D002034
:102EE00000001050800010500001105010B502F08A
:102EF000EFFD10BD10B57F200C0020404000E4091C
:102F0000110000191A00034B4001C01800F05EF8D0
:102F1000012010BD5C3900207F22130010B50B404A
:102F20000A420BD0C90980225800401806494001C6
:102F300040181201002102F013FE10BD02220348C6
:102F4000C909521A8266EEE75C3900200020115050
:102F50007F22100010B508400A4200D110BD0023A6
:102F6000C9094000401804494001081800220349DB
:102F7000C37002F0F5FDF1E75C390020FFF7FFFFB9
:102F800080220D4B520410B51A600C4B0C491A608C
:102F900010008B689843FBD10A4C9C220021200032
:102FA000FFF706FC8022002152010748FFF700FCD2
:102FB0000923636710BDC04600E0004000F00040F8
:102FC00000C00040000011500000105070B5837E1A
:102FD00004000D001600002B17D10023E3820133FB
:102FE0002000A682A376256102F07AFD002804D095
:102FF00080219023084A8902D150200002F078FDF8
:10300000002805D00123237770BD02F0A1FDE4E77D
:10301000200002F095FDF7E700201150F0B5C646FC
:1030200000B5244E244A050000243378234F002A9B
:1030300032D0234A9046A34224D8E31ADBB2022BB3
:103040001DD85A00D318DB00FB185B68280098478E
:1030500033780134E4B29A1CA242ECDA194C5322C0
:1030600000212000FFF7A4FB1022FF21E01CFFF746
:103070009FFB20002022FF211330FFF799FB80BC2B
:10308000B846F0BD42461268630094461B19DB0047
:103090006344002BD9D1F2E700247B6828009847CD
:1030A00033780134023318379C42D7DC032CE6D046
:1030B000F3E7C046AC3D002000000000285F001090
:1030C0003C320020AC370020024B5878431E984118
:1030D000C0B27047AC370020024B18784007C00FD1
:1030E0007047C046AC370020034B1878FF38431EAA
:1030F0009841C0B27047C046EC2E0020F8B5CE46CD
:10310000474680B5344E050033780120FF2B03D0AD
:10311000C0BCB946B046F8BD532200212F48FFF786
:1031200047FB2F4C2000FDF74BFE2E4B1C602E4C16
:1031300020001430FDF760FE200002F05BFB2B4BFB
:103140002B4F1C602B4B9846002B04D0380000E01E
:1031500000BF294B1860424600243B78002A1ED04D
:10316000264A9046244A9146A3422AD8E31ADBB263
:10317000022B24D85A00D318DB0043441B6898471D
:103180003B780134E4B29A1CA242EDDA2800357093
:10319000FFF7CEFD2800FFF7B3FD0120B8E7174B7E
:1031A0000024984643461B68984718239C463B7862
:1031B00001340233E0449C42E8DC032CF2D10020CD
:1031C000A6E74A461268630094461B19DB00634475
:1031D000002BD3D100209BE7EC2E0020AC37002041
:1031E0006437002000380020D02E00200438002052
:1031F000AC3D0020000000003C320020285F0010A1
:10320000F0B5DE4657464E464546E0B58FB002F073
:1032100029F8002800D1C8E0C84BC94F99461823A7
:103220009A46053B9B46C74D0BACBB442E68726962
:10323000EFF3108172B61368002BFCD0BFF35F8FE1
:10324000B1613000210002F017F97269B369BFF370
:103250005F8F0021116083F31088002800D1A4E063
:103260006378082BE2D84A469B00D3589F46636890
:10327000002BDBD0A0689847D8E77F222179B04B9C
:103280000A4056009B199846C809804440460123CD
:103290003030C6789E43C670C67803339E43C670EE
:1032A000002A00D188E04346A74ADB7C002A05D0EB
:1032B000A64A1278934270D39B1ADBB2022B74D8C1
:1032C0005A00D218A24BD2009B181E69627920784E
:1032D000A368B047AAE701223B78012013433B7063
:1032E00033230421FA5C8243FA54FA5C8A43FA5489
:1032F0000133FA5C8243FA54FA5C00208A43FA54A0
:103300002378984600F0A0FC602223791A40602AB6
:103310000AD0402A56D0DB06DB0E012B00D199E003
:10332000022B68D0002B5BD020780021FFF7F4FD42
:1033300080212078FFF7F0FD78E7814B1B78DB07D1
:1033400000D473E7834B002B00D16FE7FCF7F0FF4D
:103350006CE77B4B1A78D20700D467E77E4A002AD5
:1033600000D163E718780007C00FFCF7D9FF5DE7CD
:103370002078FFF753FE00F05DFC784B002B00D166
:1033800054E7FCF7C7FF51E72078FFF747FE00F04E
:1033900051FC22796A4B9A7048E75A00D218704B58
:1033A000D2001B689B18002B8FD10FB0F0BCBB461E
:1033B000B246A946A046F0BD62792078A36800F025
:1033C00057FC33E767480028AED000F03DFC0121F0
:1033D00040460CAA00E000BF002800D026E7A3E783
:1033E000202A71D0002A9FD16379092B9CD85E4A8C
:1033F0009B00D3589F467023217A0B4294D10F3300
:103400000B405B00F818CE0900934F4B8019C07C2D
:10341000002B06D04D4B1B78984200D2B0E0C01A6A
:10342000C0B202286AD843009C46494B6044C000A1
:103430009C46030063440193002A64D0019EF36814
:103440001800009300F000FC01214046F3680CAA2C
:103450009847C1E7237A0F2B00D965E73A4AFB1852
:10346000DB78002A06D0394A1278934200D27DE0F8
:103470009B1ADBB2022B00D956E75E00F318344EDC
:10348000DB00F618F06800F0DFFB01214046F3682E
:103490000CAA9847002800D0C8E6602216002379BD
:1034A0001E401A4200D03FE763790A3B012B00D946
:1034B0003AE700F0C9FB63790A2B00D155E1404699
:1034C0000CA900F041FBB1E6237A0F2B00D92BE7C2
:1034D0001D4AFB18DB78002A06D01C4A127893425A
:1034E00000D217E19B1ADBB2022B00D91CE75E0069
:1034F000F318174EDB00F618F068A3E7002A00D097
:1035000012E70023019360790223020002909A439C
:10351000012A00D1DBE0002800D005E7009B0AAAC1
:10352000FB189E193036F37802329B07DB0F1380AD
:10353000404602230CA900F01FFB77E69C5E0010BA
:10354000AC3700200438002000000000AC3D002013
:10355000285F001031030010210300101503001034
:103560003C32002000000000C05E0010C34A5E0034
:10357000F3181668DB00F618002E00D1D4E681E7B8
:1035800043009C46BD4B60441B68C0009C46030042
:1035900063440193002AB6D0002B00D04EE7C3E667
:1035A0007B780AAA02321370404601230CA900F06E
:1035B000E3FA3BE6E088030AC0B20F2B00D9B3E67A
:1035C000AF499A008A589746A37905931A007B78E9
:1035D0009A4207D07B78002B00D037E1059B002B67
:1035E00000D0CBE0059B40460CA97B7000F0ACFA04
:1035F0001CE60CA800F02EFB4046A179FFF786FBE5
:1036000002223B7813433B7010E6E388012B00D085
:103610008AE608223B78404613430CA93B7000F031
:1036200093FA03E6E388012B00D07DE608223B787D
:10363000404693430CA93B7000F086FAF6E5022061
:1036400039780AAB9A1C8B068908DB0F01400B43C3
:103650006DE78C4B002B00D166E600E000BF021E38
:1036600000D161E6D37891781B020B4340460CA948
:1036700000F082FAB0E6844B002B00D154E600E063
:1036800000BF021E00D14FE6404613780CA900F09F
:1036900073FAA1E62189FCF7ABFF021EF4D143E6E1
:1036A000022B00D1DBE0794B002B00D13CE600E09F
:1036B00000BF0200002A00D136E6D3E7FCF778FF0E
:1036C000122302000CA9404600F056FA84E6E28874
:1036D000002A08D1012827D0009BFB189E193036FC
:1036E000F3789B0734D5019E002E00D19EE5F36848
:1036F0001800009300F0A8FAF36801210CAA4046D4
:103700009847002000F0A0FA3423FB5CDB0700D5CB
:103710008CE5D4E6594A5E00F3181668DB00F6180B
:10372000002E00D100E6E7E6009BFB189E1930361C
:10373000F3789B07D7D5564B1878FFF709FC022280
:10374000F3789343F370F378029A9343F370CAE7E4
:103750004F4B1878FFF7E0FB0222F3781343012266
:10376000F370F3781343F370BDE70AAB9A1C40463D
:1037700001230CA9167000F0FFF957E5581EC0B2DE
:10378000FCF728FF002800D1CEE543780793022BF1
:1037900000D0C9E50121C2790600931152110B40F6
:1037A0000A4012015B0113433A782F318A431343D5
:1037B0003B70C37882781B021343C31808934346B7
:1037C00009360693089BB34200D8ACE00122737817
:1037D00001920B2B03D1F37801933378F6187378A9
:1037E000042B00D0A0E50021089B2A4A9B1B9BB21A
:1037F0000393294B02911B7800918A4250D01F4AB3
:103800009046009A9A422ED3D31ADBB2022B00D9EB
:103810008AE552465343214A944663440493049BE9
:1038200031009B68039A069809939847082802D9A3
:10383000039A824253D2009B0133D9B2164B0091B6
:103840001B7802919A1C8A42DBDA6DE54046FFF74D
:103850004DFBBE784046FFF7E1FBBE70BEE6FCF7CD
:10386000B9FE020026E75346534342461268944687
:1038700063440493002BD2D156E5C0463C3200206D
:10388000E85E0010000000000000000000000000E2
:10389000EC2E002000000000AC3D0020285F00104E
:1038A0002C4BB0461E00029AD3B20093032A00D1DB
:1038B0003AE54146039A0698B36804969847082863
:1038C00002D9039A824209D2234B029A1B78013211
:1038D0000233029218369A42E5DD25E54646019B01
:1038E000012B29D000220BE0B378D318DBB2FB18F0
:1038F000D978FF2900D017E500990132D970D2B2EA
:10390000019B9A42F0D1804602003100009B58464C
:1039100001F02CFD104B029A1B78464402339A4268
:1039200000DC4FE700E5069B98460C4B002B00D1CE
:1039300058E6FCF7E7FC55E6049B094A9B6893426E
:1039400005D0084A9342CDD1079B0193CAE7079A55
:103950000192F6E7285F0010AC3D0020050300103F
:10396000813F0010B5450010F8B557464E46DE467B
:1039700045460C00E0B516001F00002A3CD070231D
:1039800098461E4B00259B461D4B9A461AE05B4607
:103990001B78200099465346997801F0ABFC00282B
:1039A0001CD021004846FFF71DFA002816D0A37846
:1039B000DA09012A19D00A9A013513702378E4181C
:1039C000B54219DA6378052B08D1E3789B079B0F82
:1039D000BB4203D14246A3781A42D8D00020F0BCA3
:1039E000BB46B246A946A046F8BD0B9A01351370F6
:1039F0002378E418B542E5DB0120F0E7EC2E002047
:103A0000AC370020702270B58B780C001A4201D0C0
:103A1000002070BD064B20001D78064B997801F000
:103A200069FC0028F4D021002800FFF7DBF9F0E75B
:103A3000EC2E0020AC370020074B080019687F23CC
:103A400010B50340C0095B0033301818034B181839
:103A500001F00CFC10BDC04600380020AC3700203F
:103A6000074B080019687F2310B50340C0095B00AD
:103A700033301818034B181801F020FC10BDC04655
:103A800000380020AC3700207F2070B508400F4C74
:103A90004000CD09241864193034E5780020ED0782
:103AA00000D570BD0126E578094835430078E570FA
:103AB000FFF720FA0028F4D10122E3789343E37062
:103AC000E37803329343E370EBE7C046AC37002062
:103AD000EC2E00207F22CB090A40044952008918AD
:103AE000C9183031C878C007C00F7047AC37002004
:103AF0007F2310B50B400B4C5B00E418CA09A418D7
:103B00003034E3789B0700D510BD074B1878FFF7DA
:103B100003FA0222E37813430122E370E3781343AC
:103B2000E370F1E7AC370020EC2E00207F22CB09B8
:103B30000A40044952008918C9183031C8788007F2
:103B4000C00F7047AC37002070B50A4E050030003A
:103B500008220C00FEF732FE00237F21F36022785A
:103B6000B36091425B412800D90100220023FFF796
:103B70008BFF70BD88330020F8B5CE46474691468E
:103B80002A4E80B50822070030000D009846FEF747
:103B900015FE4B46B3600023F381EC79A97924022A
:103BA0000C43231C444500D943469AB29046B38146
:103BB000002C13D0002A1FD04B46002B34D0131CEE
:103BC000402A1FD89BB2984633787F2B20D80021FB
:103BD000174A43463800FFF757FF09E07F222B784A
:103BE00038009A42644100230022E101FFF74CFFB4
:103BF000C0BCB946B046F8BD33787F2B11D98021BF
:103C00000022E6E740239BB2984633787F2BDED92B
:103C1000074C424649462000FEF7D0FD8021220095
:103C2000D7E700210022D4E70020E1E78833002015
:103C30006C37002010B5142200210248FEF7B8FDB1
:103C400010BDC04688330020014B18617047C04644
:103C50008833002010B5054C010008222000FEF733
:103C6000ADFD0023A360E36010BDC0468833002093
:103C7000F8B53B4C1D0023780600DA09C9098A42D1
:103C800013D00020002D00D0F8BD364B002B03D000
:103C900021003000FFF798F82369002B44D0220060
:103CA0000321300098470120EEE77F2B06D8A0685B
:103CB000002837D02A002C49FEF780FDA368E2894E
:103CC00059195219E38892B2E281A160934214D04B
:103CD0003F2D12D9A589A81A071C80B240282FD8D9
:103CE0002378BFB27F2B2DD80021AA4235D01E4A9F
:103CF0003B003000FFF7C8FEC6E72369002B05D064
:103D0000220002213000984700280FD07F22002196
:103D1000237830009A42494100230022C901FFF76D
:103D2000B3FEB1E70020AFE70120ADE7002130008E
:103D3000FFF7F2F830008021FFF7EEF80120A3E74B
:103D40004027CDE7AA4207D0074C3A002000FEF7F3
:103D500035FD80212200CBE780210022C8E7C04644
:103D600088330020C92D00106C37002010B50400E6
:103D7000FFF7AAF9002801D1002010BDFFF7ACF928
:103D80000028F9D1A0000019C000044B0019C000A0
:103D90001818037901201840EFE7C0464032002090
:103DA000020083001B1810B5D8008018034BC00018
:103DB0001030C01801F02CFB10BDC046403200206E
:103DC000F0B584002418E4002418E4002600C64658
:103DD000174F1036F61900B5300092B201F09CFB77
:103DE0000500300001F032FB3F2803D8280080BCDA
:103DF000B846F0BD3B190020D9789846FFF71CFE65
:103E00000028F3D0300001F021FB3F2809D922001F
:103E10004346C832D978D21940230020FFF734FE38
:103E2000E4E743460020D978FFF71AFEDEE7C046F4
:103E300040320020F8B50500FFF746F9002801D10F
:103E40000020F8BDFFF748F90028F9D1AB005B1955
:103E5000DC006419E4002500134E2435AD19280058
:103E600001F0D6FA0028EBD037190020B978FFF717
:103E7000E3FD0028E4D00934FF34A4192100280010
:103E8000402201F049FBB978051E08D0030022004A
:103E90000020FFF7F9FD0028D2D02800D1E700204C
:103EA000FFF7DEFDCCE7C0464032002070B584004D
:103EB0002418E40024180A4BE4002434E418050014
:103EC00092B2200001F0E2FB0600200001F0A0FA0F
:103ED0003F2801D8300070BD2800FFF7ABFFF9E79D
:103EE00040320020A42270B5184C82B0002120007E
:103EF0005200FEF75DFCFF236371154B0025E38044
:103F00000126082321002000268123734022383116
:103F10000095073B103001F043FA00962100200085
:103F20002600012340227831B836243001F038FAD7
:103F30003000FCF745FF26622600C0363000E56100
:103F4000FCF73EFF2663656302B070BD403200207F
:103F500000C2FFFF10B5094C052200212000FEF72A
:103F600027FC20002434103001F044FC200001F034
:103F700041FC0121200001F05DFC10BD4032002019
:103F8000F0B54B79060083B0022B02D18B79022B5E
:103F900003D00025280003B0F0BD2F4FBB78002BC5
:103FA000F7D18B7809253B700C780C196378242B9A
:103FB0000BD1082A02D80FE0AA420DD32378E418C7
:103FC000ED186378ADB2242BF6D0052B1FD0042B4F
:103FD00002D163790A2B2DD0204C200001F036FA53
:103FE0003F28D7D92600103E0020F178FFF724FDA6
:103FF0000028CFD0200001F029FA3F2815D922004F
:104000004023F178B8320020FFF73EFDC2E72100DF
:104010003000FFF7F7FC0028BBD0A3787B70237833
:10402000ED18E4186378ADB2D1E7F1780020FFF71E
:1040300017FDAFE70A4B2778019301330093022263
:1040400002233000E119FFF78FFC0028A1D00E35C4
:10405000ED19ADB2C0E7C04640320020503200201A
:1040600042320020F8B56023140012780500134096
:104070000020202B12D12F4A6379277916781B0252
:104080003B439E420AD16378222B27D007D8202BAE
:1040900017D0212B02D101293DD00120F8BD232BBF
:1040A000FCD101293FD00329F7D1234B002BF4D0B9
:1040B000E178A37809020020194300E000BF012045
:1040C000ECE7012927D00329E7D11C4B002BE4D0D2
:1040D0000020911D00E000BF0120DFE7012922D070
:1040E0000329DAD101252E00A378E47802392402CD
:1040F0001C431471264024321000714001F09AFBD9
:104100000F4B002BC9D06208002031002A40FCF779
:1041100017F90120C2E7072321002800094AFFF709
:104120002BFD0120BAE721002800FFF70DFD01203B
:10413000B4E7C0464032002000000000000000004C
:104140004103001046320020F8B557464E4645461A
:10415000DE46E0B5484F8046FA780C001E008A42E1
:1041600063D19AB210233D009B46C835BB44290059
:10417000584601F08BFA414BD946002B18D07B7979
:10418000D946FF2B14D0002E12D0AA19924603E074
:10419000013555450CD07B792A789A42F8D14846AA
:1041A00001F04CF90028F3D1797900E000BFEFE786
:1041B000334B002B04D0484601F040F9002851D081
:1041C000484601F043F93F2834D84A46103A9378DC
:1041D000A34207D001242000F0BCBB46B246A9464A
:1041E000A046F8BD274B002B02D0002000E000BF06
:1041F0000020FFF71FFE0028ECD1234D280001F01E
:1042000007F90028E6D1002EE4D0B306E2D1243D20
:104210004046A978FFF710FC041EDBD000230022E3
:104220004046A978FFF730FCD5E7BB788B42D9D060
:104230000024D0E74D46103D0020E978FFF7FCFB55
:10424000002801D1AB78C3E7484601F0FFF83F28CA
:104250000BD94A4640230020E978B832FFF714FC16
:10426000AB78B5E7FCF77AF8AAE70020E978FFF722
:10427000F7FBAB78ACE7C0464032002000000000FE
:104280005D030010000000006432002070B584005F
:104290002418E4002418E4002000064D10304019D2
:1042A00001F0B6F82C19A37B627B9B1ADBB21818BD
:1042B00070BDC046DC330020F0B5C646840024182B
:1042C000E40024181B4DE4002F19BB78002000B532
:1042D000002B02D180BCB846F0BD260010367619FE
:1042E0000422300001F018F98046300001F0AEF8E9
:1042F0003F2805D90020B978FFF79EFB002805D19B
:104300004046043843425841C0B2E3E7300001F070
:104310009DF83F2808D92200C8324023B9785219A5
:104320000020FFF7B1FBEBE7B9780020FFF798FB1F
:10433000E6E7C046DC330020F0B54E46454657461A
:10434000DE4698468300E0B582461D005544ED00E8
:10435000774E89B055440593EB009146F218527898
:10436000002A00D1A8E04246002A00D1D9E0090184
:104370001A001F0007934BB2190002930F230B433F
:10438000DBB20693D31C9C46B444049363460024DA
:104390002437F71903930197019801F057F8032880
:1043A0003AD94B46195DEB00F318DA790134002A4B
:1043B00021D102208446D871D878197104284DD0B3
:1043C00008277F42BB46080983445F46032F3DD937
:1043D0000E283BD00C277F42BB4683445F46012F0B
:1043E00064D90F286AD05A719A71624606990220E0
:1043F000D9701A7243E0032A20D89818C170DF7868
:10440000501CC0B2D871042F2CD0EB00F3181B7ACB
:1044100098422CD0A045BFD1019F380000F0F8FF92
:1044200000280BD0059D00205544ED005544ED00BB
:1044300075196978FFF700FB002850D1200009B0FA
:10444000F0BCBB46B246A946A046F0BD029AEB00BE
:1044500010430422F318D8701A72DBE7F72909D049
:104460001872D7E7F729D0D10432DA70187203280E
:104470000FD804E00532DA70624602381A72049BE3
:1044800004229C46121A60440021D2B23018FEF772
:104490008FF904220399019801F0F8F80022EB004B
:1044A000F3181A72DA710428B4D0C7E7029A1043DD
:1044B0000322D8701A72ADE70024BFE7F02923D099
:1044C0000A0060468243F12A1AD0EB00F318F22961
:1044D0001ED00522DA70033A02201A72CFE7079B3A
:1044E00040220933FF33F6183100380001F014F888
:1044F0006978031E11D032000020FFF7C5FA9DE74E
:104500000322D8701A7285E70422DA701A7281E7E2
:104510000322DA7001321A727CE70020FFF7A0FA5A
:104520008CE71F00243700240793F71975E7C0466E
:10453000DC330020A42270B5144C82B0002120008E
:104540005200FEF735F9002521002000012340220A
:1045500038310095103000F023FF260021002000A4
:10456000012340227831B8360095243000F018FF3E
:104570003000FCF725FC26622600C0363000E561DD
:10458000FCF71EFC2663656302B070BDDC330020BF
:1045900010B5074C102200212000FEF709F9200079
:1045A000103001F027F92000243001F023F910BD6C
:1045B000DC330020F0B54F464646D646C0B54B79B1
:1045C00007001600012B02D18B79012B06D00025A4
:1045D0002800E0BCBA46B146A846F0BDCB79002B16
:1045E000F5D10C7823000C196278242A07D009E051
:1045F0002278A4189B1862789BB2242A02D1B34275
:10460000F6D9E4E7042AE2D16279012ADFD1A2795E
:10461000032ADCD12E4A91464946527889780A43CA
:10462000E1790A439046D2D14946A2780A702278AD
:10463000217992469B189DB2A244002907D124E01B
:1046400053461A78AD18ADB2924488451DD2AE4299
:104650001BD353465B78052BF2D151463800FFF748
:10466000D1F90028B3D053469B78DA09012A27D024
:104670004A46937053461A7843460133AD18DBB26D
:1046800098462179ADB29244DAE7124C200000F04E
:10469000DDFE3F289CD92600103E0020B178FFF7B0
:1046A000CBF9002894D0200000F0D0FE3F280AD992
:1046B00022004023B178B8320020FFF7E5F987E700
:1046C0004A465370D6E7B1780020FFF7C9F97FE773
:1046D000DC330020EC33002000207047F0B5C646E4
:1046E00000B53C4E0500B2781C008A421FD1310053
:1046F00030009AB2C831103000F0C8FF364B002BA2
:1047000002D0002000E000BF344D280000F09EFEE3
:104710003F2807D92E00103E0020B178FFF78CF912
:10472000041E41D10124200080BCB846F0BD73783E
:104730008B4201D00024F6E737002437380000F020
:1047400067FE002817D1264E300000F061FE0028D9
:10475000E8D1002CE6D0A306E4D1243E28007178ED
:10476000FFF76AF9041EDDD0002328001A007178D3
:10477000FFF78AF9D7E700207178FFF75DF9002885
:10478000E1D084235B009846B04441464022380083
:1047900000F0C2FE7178031E18D042460020FFF7D9
:1047A00073F90028BED1CEE7280000F04FFE3F2865
:1047B00007D92A004023B178B8320020FFF764F906
:1047C000B1E7B1780020FFF74BF9ACE70020FFF725
:1047D00047F9B8E7DC33002000000000EC3300208C
:1047E00000340020F0B54746CE4680B5364C060072
:1047F000E18AA36849BA89B2984687B0002904D0F3
:104800001800FDF7D3FC0104090C2369257D1A0A61
:10481000A36B2D06180099461543FDF7C7FC2DBA6A
:104820000A00434641194D465B1B8025274F607B9C
:10483000AD00AB4200D92B0000933B00FBF788FE94
:10484000051E1FDB00280BD02E2283B2A15C300096
:104850003A00FFF719F907B0C0BCB946B046F0BD41
:104860002E23E75C03AC082200212000FDF7A0FF07
:10487000072300212000267063702771059501F041
:104880004FF9E8E7124B0022A3873E233021022094
:10489000E254123B0132E254A268A36B6054D31A73
:1048A000A362002AD7D0002BD5D0237BDB0905D00B
:1048B0002E233000E15CFFF71BF9CCE72F233000FB
:1048C000E15CFFF715F9C6E7243700202435002006
:1048D000023A00001E4B70B505001E4C002B04D0A0
:1048E000607B00E000BF002810D0A26BA3689B1A79
:1048F00080229200934207D82F222800A15C9BB20D
:10490000154AFFF7C1F870BD1300F5E7134B0122FC
:10491000A3873E233021E054123BE254A268A36BEC
:104920000230D31AA3626054002AECD0002BEAD0E4
:10493000237BDB0905D02E232800E15CFFF7D8F8A4
:10494000E1E72F232800E15CFFF7D2F8DBE7C04660
:104950000000000024370020243500200727000035
:1049600010B53C24034801553D2142543E22835456
:10497000012010BD2437002010B54022002102483C
:10498000FDF716FF10BDC0462437002010B54022A9
:1049900000210248FDF70CFF10BDC046243700205F
:1049A00030B54B79040083B0082B02D18B79062BEC
:1049B00002D0002003B030BDCB79502BF9D1162A9C
:1049C000F7D98A780E4D233BEA540B780222C91896
:1049D0002B002E3301932B002F3300930223FEF77D
:1049E000C3FF0028E5D030230022EA54013BE95CF4
:1049F0002A002000103BFFF747F81720DAE7C046EF
:104A00002437002070B50500140082B001292AD196
:104A10007F2312781340022B28D0602300201340FC
:104A2000202B21D16378FE2B50D0FF2B1CD1E378B3
:104A3000A2781B02134317D1E379A2791B02134317
:104A400012D1302200213C4B98540E3258639863A7
:104A50009887995428002100FFF776F8012003E099
:104A60002800FFF745F8012002B070BD6378012BE4
:104A7000D3D1E378A2781B0200201343F4D1302273
:104A800021792D4CA35C042BEAD02E20205C884297
:104A900041D02F22A65C8E42E5D1002BE3D131001C
:104AA0002800FFF717F80028DDD131002800FFF7B4
:104AB0003DF80028D7D130230022E254013BE15CCD
:104AC00022002800103BFEF7DFFFCDE7E378A27855
:104AD0001B0213431BD1E379A2791B021343012B61
:104AE00015D16A46D371154B002B12D000E000BFE0
:104AF00000280CD00138C0B26B466A46D87121003C
:104B0000012328000732FFF737F80120ACE7002027
:104B1000AAE70020F0E7022BA5D1A16BA3685B1ADE
:104B2000A3620323A35422000100203228000A3389
:104B3000FEF7AAFF98E7C0462437002000000000D7
:104B4000F0B5454657464E46DE46E0B51F003023D9
:104B5000BB4C0500E65C984691B0012E0ED0032EAA
:104B600060D0002E1CD0022E00D18AE0012011B0AE
:104B7000F0BCBB46B246A946A046F0BDE37B282B5D
:104B800074D02A2B00D1BCE0A36B227B9C466744E7
:104B9000A763D20900D1A5E0636B9F426ED2E5E71F
:104BA000013BE35C8B42E1D11F2F00D086E0A54B97
:104BB00022689A4200D081E0A34B42462362636898
:104BC0002C2763620123E655A354E27BA368A66207
:104BD0006363A663282A00D1D3E02A2A00D175E2B4
:104BE000002B00D1F3E0207BC00900D0EFE0802251
:104BF0009200934200D82EE2A3623023D53AFF3AC6
:104C00000130A0542A3AE2540C33E35C002B03D168
:104C10008E4AA2873E22A3542800FEF769FF302364
:104C2000E65CA0E72E23E35C8B429FD10D2F9DD144
:104C3000E37B282B00D141E22A2B00D136E2844BC2
:104C4000002B04D02100607B0F3100E000BF002367
:104C50003026A3552F33E15C22002800103BFEF7DD
:104C600013FF002800D1FEE1A65D7CE7A36B9C4604
:104C7000636B6744A7639F4200D27DE0302302222A
:104C8000E2542E262800A15DFEF750FF002800D038
:104C90006CE7A368A26B934202D9217BC9091CD19E
:104CA0009B1AA36203223023E2542200023BE15C00
:104CB00028002032213BFEF7E7FE58E7042230238C
:104CC000E254023BE15C2800FEF712FF2F2328008C
:104CD000E15CFEF70DFF002049E72800A15DFEF72B
:104CE00007FF43E72100A38E607B5A4A0F31FBF791
:104CF00055FC002800DABAE1A36B626B9342BDD287
:104D00008DE7E18A49BA89B2002900D1ADE1A068F6
:104D1000FDF74CFA0104090C2369267D1A0AA06BE1
:104D200036061643FDF742FA36BA4A4B0A00811995
:104D3000607B00979846FBF71DFC002800DADDE158
:104D4000874238D93F1A002800D019E22F2307AE36
:104D5000E35C0822002130009846FDF729FD072377
:104D6000737043463570337130000021099700F0AD
:104D7000D7FE3023E65CF6E6FFF734FD4346E65CFB
:104D8000F1E6E08A40BA80B2002B00D005E20028AC
:104D900000D173E702232C22A3540022A2623032F6
:104DA000A3543A33E35C002B00D06AE7274AA2877A
:104DB0003E22A35465E7A36B9C46636B6744A763DD
:104DC0009F4200D35AE72800FFF784FD27E7667B60
:104DD000252A03D8204992008A5897463C22A25C93
:104DE000002A50D11B4A90462100424630009BB217
:104DF0000F31FBF7D3FB002845DB002800D07CE017
:104E0000A368002B00D139E72C220121A154A26B09
:104E100001319B1A3022A362A1540C32A25C002AF9
:104E200003D10A49A1873E216254002B00D128E713
:104E3000237BDB0900D0A0E12F23E15CECE6C04638
:104E40002437002055534243555342530520000058
:104E50000000000024350020705F001006AF3A000B
:104E6000300007A9FBF76CFB079B002B03D03A88A7
:104E7000002A00D0E9E13C23E35C002B03D1D84AAF
:104E8000A2873E22A3542C23012230210220E25487
:104E9000A268A36B6054D31AA3620C31615C002931
:104EA00003D1D048A0873E202154002A00D1E8E653
:104EB000BBE707AF0C2200213800FDF779FC02AAFE
:104EC00094460E2363441A00300006A99846FBF767
:104ED00037FB069A002ACED043461B88002BCAD047
:104EE000082112BAF970089202225BBA7B81BE4B8C
:104EF0003A72984607CF07C30C20A368002B00D056
:104F00005EE101222C33E254A36B01325B42A362C7
:104F10003023E2540C33E35C002B00D0B1E645E7CC
:104F2000B24B002B00D16BE7E17C30008B07CA0746
:104F3000DB0FD20F0909FBF709FB002800D05FE760
:104F40003C23E35C002B9ED1A54B0022A3873E238C
:104F5000E25498E7A64B0120002B02D0300000E07D
:104F600000BFA14B0322984601234340DBB2DB057F
:104F70001343424604201360BFE707AF0822002115
:104F80003800FDF715FC80235B427B708233BB70D9
:104F9000FB701D333B710822202109A8FDF708FC96
:104FA000102220210BA8FDF703FC924B300009A929
:104FB0000F930BAA0FABFBF795FA8B4B1A00984691
:104FC0000BCF0BC20BCF0BC20BCF0BC2242094E72D
:104FD0000F23984642462D33E35C07AF1A403D232A
:104FE000E35C93469A463E239946E35C12220021F5
:104FF00038000393FDF7DCFBF0235A463B70434631
:105000001340BB700A235246FB71039B3A737B73B8
:10501000754B984607CF07C33A681A60BA889A80DA
:10502000754B002B00D10BE18022414692003000ED
:1050300000E000BF00234A46A387A354984200DB48
:10504000DBE6667B636BCFE63000FBF777FA002880
:1050500000D175E7D4E62800634A9BB2FEF714FD41
:10506000002800D0DBE5002081E5002154E62C2358
:105070000220E6544646A368A26BA055991AA16285
:105080003A30205C002803D1564EA6873E26A05514
:10509000002B56D0002954D0237BDB0900D1B3E08C
:1050A0002E232800E15CFEF723FD25E6534B002B61
:1050B00000D1CCE5607B00E000BFC8E5504B002B81
:1050C00000D1C4E5607B00E000BFC0E5E08A40BAE3
:1050D00080B2002B00D15AE6267BF60900D099E079
:1050E000002833D0834200D28CE02800282A00D048
:1050F0006AE6FFF777FB3023E65C34E5384AA36BBA
:105100000021A2873E229C463026A154123A01314A
:10511000A154A2686744D31B0131A763A362A155C0
:10512000002A00D1ADE5002B00D1AAE5237BDB09E5
:1051300000D17EE02E232800E15CFEF7D9FCA65DBD
:1051400011E5636B9A4200D29BE597E501202C2282
:10515000A05402200432A054A3620C32A25C002AA4
:1051600008D12048A0873E202254002B00D188E59A
:10517000267BF609002E00D14EE52E23E15C4BE59F
:10518000A26B0100944603041B0C63443A004046A2
:105190004144A36300F0F4FCD8E5267BF6099FD1D7
:1051A0000222A3624346E2543C23E255E35C002B17
:1051B00000D031E50B4B0022A3873E23E254D7E712
:1051C000984200D918002E226063A15C83B2424647
:1051D0002800FEF759FC002800D020E50020C6E496
:1051E000023A000005200000243500204D05001083
:1051F000000000002020202000000000000000002F
:10520000000000000220A2E72F232800E15CFEF747
:105210006FFC71E50222A3622C2030232254E25459
:105220000C33E35C002BA8D10C4AA2873E22A35486
:105230009EE72F232800E15CFEF75AFCA65D92E46E
:105240004A461220A387A35457E60549013B1BBADF
:1052500012BA884608200B604A604EE6052000001E
:105260002435002010B5FDF73FFF10BD037870B561
:10527000DB0704000E00DD0F002B17D103785B075E
:1052800001D5280070BD01213000494200F040FCEA
:105290002378DB07DD0F002B0AD123785B0708D4C6
:1052A0000422237801251343237002E00025E8E758
:1052B0000025300000F0FCFBE3E7C04670B50D00B0
:1052C000012104004942280000F022FC23785B07FA
:1052D000DE0F002B04DB280000F0EAFB300070BD7D
:1052E0002378DB0704D40422237893432370F2E766
:1052F0000026F0E710B5437904791B0223435B05D0
:105300005A0DC3789B079B0F022B05D0032B15D09A
:105310000020012B08D010BD02291CD00020402302
:1053200093424041C0B2F6E702394B4259410D4B1E
:105330009C46614491424041C0B2ECE702394B4285
:105340005941F023002049429B00194040319142CD
:105350004041C0B2DFE7044BD3185A425341D8B2A0
:10536000D9E7C046FF03000000FEFFFF8A1870B5B2
:10537000914207D27F264C78052C04D00C7809196D
:105380008A42F8D870BD34008D782C40640004192E
:10539000ED0963550C7809198A42ECD8F2E7C0464A
:1053A000F0B5C64600B5040006A8057880208846FA
:1053B00017001E000002824227D8E068002803D0B0
:1053C0000121494200F0A4FB2069002803D00121FB
:1053D000494200F09DFB4346236073045B0CED03E0
:1053E0001D430023E0686381A780E58023810028B6
:1053F00001D000F05DFB20690124002801D000F0FD
:1054000057FB200080BCB846F0BD0024F9E7C04639
:1054100010B5048941898288A3B288B28C4207D32F
:105420001B1A9BB2101C9A4200D9181C80B210BDE6
:105430005100091A5B189BB2F4E7C04603000089CB
:105440005B89C01A43425841C0B2704710B5048905
:1054500041898288A3B288B28C4207D31B1A9BB2BF
:1054600000209A4201D9D31A98B210BD5100091AEE
:105470005B189BB2F4E7C04670B5040000690E00EB
:10548000002803D00121494200F042FB25896089B0
:10549000A288A9B283B285422CD3CD1AADB2002D19
:1054A0002ED0AA4208D2914231D38B1A9BB263818B
:1054B0009A4203D89B1A9BB29A42FBD9E288216890
:1054C0005204520C53433000C918FDF777F9618933
:1054D00001254B1C9BB2A288994214D9002352008B
:1054E0009B1A9BB220696381002801D000F0E0FA8A
:1054F000280070BD5500ED1A4D19ADB2002DD0D168
:10550000002563899BB252009342EBDBE8E78918E0
:105510008BB26381CCE7C046F0B546464F46D646CF
:10552000C0B50600006989469046002803D00121D5
:10553000494200F0EDFA31897289B5888BB294B294
:10554000914257D31F1BBFB2002F4DD0BD4205D291
:10555000AB4254D25B199CB22F0074814346B845CC
:1055600040D89FB2A54203D8641BA4B2A542FBD980
:10557000F288281B5204530C190098463368614383
:105580009C4680B26144874226D94346584383B241
:105590001A0048469A46FDF711F9434648467D1BD6
:1055A00064195C4331685044A2B2FDF707F9718970
:1055B000B588CB199BB26A00994217D99B1A9BB246
:1055C00030697381002801D000F072FA3800E0BC25
:1055D000BA46B146A846F0BD424648467A43FDF772
:1055E000EDF8E4E73B1CBCE773899BB26A00934289
:1055F000E6DBE3E76F003F1BDF19BFB2A4E75B1BED
:105600009CB2A9E7F8B50400C0680E00002803D0DA
:105610000121494200F07CFA258920896189A2880C
:10562000ADB283B28FB2884228D3DB1B9BB29A42C1
:1056300009D8E779FF0906D1E068002801D000F019
:1056400037FA3800F8BD2B00954203D39B1A9BB262
:105650009342FBD2E28821685204520C5343C8188B
:105660003100FDF7ABF8A2886B1C9BB252009D4243
:1056700009D99B1A9BB201272381DDE75100C91B81
:105680005B189BB2D3E79342F5DBF2E7F0B54E46E9
:105690004546DE465746E0B589460500140083B00E
:1056A000002A6ED0C068002803D00121494200F0D2
:1056B0002FFA2F89EA796B89BFB29BB2D20942D106
:1056C000AE889F4267D27200D31AFB189BB20022A9
:1056D00090469E4231D9F31A1A1C9BB2A34200D9BC
:1056E000221C93B29846E8884346FB189BB29B461F
:1056F0003C00B74203D3A41BA4B2B442FBD2400483
:10570000430C18009A462B6860439C46311B89B2B3
:10571000604441454ED35246434649465A43FDF7FD
:105720004DF8AB885B00BB4501D39B4503DB5A4674
:10573000D31A9BB29B465B462B81E868002822D097
:1057400000F0B6F91FE0AA889046944226D29F4204
:1057500044D34146FA1A92B2490012198A4209DB2F
:1057600042469A1892B2171BBFB29346BB423AD92F
:105770007F1ABFB2E3199BB246469B46A046E88813
:10578000B6E700239846404603B0F0BCBB46B2469D
:10579000A946A046F0BDFB1A9BB298E7E888A21A7A
:1057A0004404640C54434246A144002AC5D04646F2
:1057B0001F0099E75346594389B20A0001914946AF
:1057C000FCF7FCFF43469A1B5346A2185A43019923
:1057D000286892B24944FCF7F1FFA2E75100CA1AC7
:1057E000BA1892B2B9E7B942C2DD4646E888A04687
:1057F0007EE7C04610B50400C068002803D0012130
:10580000494200F085F92069002803D0012149426E
:1058100000F07EF90023E06863812381002801D035
:1058200000F046F92069002801D000F041F901207C
:1058300010BDC04670B50400C0680D00002803D03C
:105840000121494200F064F92069002803D00121B8
:10585000494200F05DF97F21E379ED011940E068EC
:105860002943E171002801D000F022F920690028C5
:1058700001D000F01DF9012070BDC04680210A4A08
:105880004902136D0B42FCD0092353670422074BD6
:1058900000201A60064B00211A68064BDA67064B97
:1058A0001A68064B1A64704700001150803011507E
:1058B00058390020004001406C3D002000C00140EC
:1058C00070B5102084B0FAF7EBFE08285DD0324B9B
:1058D000324DDB6F324C2B60324B01221B6C0121AD
:1058E0000F202360FAF7E6FE02210F20FAF70CFFE3
:1058F00008222D4B03211B680F205A401F23134001
:105900002A4A1360FAF7EEFE02220421284BDA67D6
:105910007E329950274B743A5A671B6D1B079B0FB9
:10592000012B2FD1FBF73EFC0600FBF7CFFDFA223F
:105930000023920012184B41002B29DB0121029118
:10594000002101911C4930000091FBF72FFC002839
:1059500001DB04B070BDFA2000218000FBF7C0FD20
:105960008021144A4902136D0B42FCD0092353676E
:105970000422124B1A602A68074BDA672268094B27
:105980001A64E6E7FCF7B2FBCCE7FCF7AFFB9EE757
:1059900001220B4B5242D1E7004001405839002010
:1059A0006C3D002000C001407C4001407C50014023
:1059B00000201150000011507D580010803011500F
:1059C000FFFFFF7F074B10B51B6D1B079B0F03D11C
:1059D000FA200021800010BDFFF772FF0020002197
:1059E000F9E7C0460000115010B584B0FAF7C4FEC4
:1059F000012801D004B010BDFBF7D4FB0400FBF775
:105A000065FDFA220023920012184B41002B13DB94
:105A10000121029100210191094920000091FBF729
:105A2000C5FB0028E6DA032206490B6D9B081A42E3
:105A3000FBD0FFF745FFDDE70122034B5242E7E7CA
:105A4000C559001000001150FFFFFF7F10B58307FC
:105A50000AD00300032102E001330B4205D01A787B
:105A6000002AF9D1181A10BD030019680C4A0D4C10
:105A70008A188A4322420FD15968094A04338A1886
:105A80008A43224208D15968054A04338A188A4356
:105A90002242F1D000E001331A78002AFBD1E1E77D
:105AA000FFFEFEFE80808080F8B5C046000000004A
:105AB00001B40248844601BC604700BFED010020EC
:105AC00001B40248844601BC604700BFCD0C0020F1
:105AD00001B40248844601BC604700BF7502002043
